{
	"OtherTopics.sol": {
		"MergeSortedArrays": {
			"abi": [
				{
					"inputs": [
						{
							"internalType": "uint256[]",
							"name": "a",
							"type": "uint256[]"
						},
						{
							"internalType": "uint256[]",
							"name": "b",
							"type": "uint256[]"
						}
					],
					"name": "mergeSortedArrays",
					"outputs": [
						{
							"internalType": "uint256[]",
							"name": "",
							"type": "uint256[]"
						}
					],
					"stateMutability": "pure",
					"type": "function"
				}
			],
			"devdoc": {
				"kind": "dev",
				"methods": {},
				"version": 1
			},
			"evm": {
				"assembly": "    /* \"OtherTopics.sol\":3092:4109  contract MergeSortedArrays {... */\n  mstore(0x40, 0x80)\n  callvalue\n  dup1\n  iszero\n  tag_1\n  jumpi\n  revert(0x00, 0x00)\ntag_1:\n  pop\n  dataSize(sub_0)\n  dup1\n  dataOffset(sub_0)\n  0x00\n  codecopy\n  0x00\n  return\nstop\n\nsub_0: assembly {\n        /* \"OtherTopics.sol\":3092:4109  contract MergeSortedArrays {... */\n      mstore(0x40, 0x80)\n      callvalue\n      dup1\n      iszero\n      tag_1\n      jumpi\n      revert(0x00, 0x00)\n    tag_1:\n      pop\n      jumpi(tag_2, lt(calldatasize, 0x04))\n      shr(0xe0, calldataload(0x00))\n      dup1\n      0x4cf0cc0d\n      eq\n      tag_3\n      jumpi\n    tag_2:\n      revert(0x00, 0x00)\n        /* \"OtherTopics.sol\":3126:4106  function mergeSortedArrays(uint[] memory a, uint[] memory b) public pure returns (uint[] memory) {... */\n    tag_3:\n      tag_4\n      0x04\n      dup1\n      calldatasize\n      sub\n      dup2\n      add\n      swap1\n      tag_5\n      swap2\n      swap1\n      tag_6\n      jump\t// in\n    tag_5:\n      tag_7\n      jump\t// in\n    tag_4:\n      mload(0x40)\n      tag_8\n      swap2\n      swap1\n      tag_9\n      jump\t// in\n    tag_8:\n      mload(0x40)\n      dup1\n      swap2\n      sub\n      swap1\n      return\n    tag_7:\n        /* \"OtherTopics.sol\":3208:3221  uint[] memory */\n      0x60\n        /* \"OtherTopics.sol\":3234:3250  uint totalLength */\n      0x00\n        /* \"OtherTopics.sol\":3264:3265  b */\n      dup3\n        /* \"OtherTopics.sol\":3264:3272  b.length */\n      mload\n        /* \"OtherTopics.sol\":3253:3254  a */\n      dup5\n        /* \"OtherTopics.sol\":3253:3261  a.length */\n      mload\n        /* \"OtherTopics.sol\":3253:3272  a.length + b.length */\n      tag_11\n      swap2\n      swap1\n      tag_12\n      jump\t// in\n    tag_11:\n        /* \"OtherTopics.sol\":3234:3272  uint totalLength = a.length + b.length */\n      swap1\n      pop\n        /* \"OtherTopics.sol\":3283:3303  uint[] memory result */\n      0x00\n        /* \"OtherTopics.sol\":3317:3328  totalLength */\n      dup2\n        /* \"OtherTopics.sol\":3306:3329  new uint[](totalLength) */\n      0xffffffffffffffff\n      dup2\n      gt\n      iszero\n      tag_13\n      jumpi\n      tag_14\n      tag_15\n      jump\t// in\n    tag_14:\n    tag_13:\n      mload(0x40)\n      swap1\n      dup1\n      dup3\n      mstore\n      dup1\n      0x20\n      mul\n      0x20\n      add\n      dup3\n      add\n      0x40\n      mstore\n      dup1\n      iszero\n      tag_16\n      jumpi\n      dup2\n      0x20\n      add\n      0x20\n      dup3\n      mul\n      dup1\n      calldatasize\n      dup4\n      calldatacopy\n      dup1\n      dup3\n      add\n      swap2\n      pop\n      pop\n      swap1\n      pop\n    tag_16:\n      pop\n        /* \"OtherTopics.sol\":3283:3329  uint[] memory result = new uint[](totalLength) */\n      swap1\n      pop\n        /* \"OtherTopics.sol\":3342:3348  uint i */\n      0x00\n        /* \"OtherTopics.sol\":3351:3352  0 */\n      0x00\n        /* \"OtherTopics.sol\":3342:3352  uint i = 0 */\n      swap1\n      pop\n        /* \"OtherTopics.sol\":3374:3380  uint j */\n      0x00\n        /* \"OtherTopics.sol\":3383:3384  0 */\n      0x00\n        /* \"OtherTopics.sol\":3374:3384  uint j = 0 */\n      swap1\n      pop\n        /* \"OtherTopics.sol\":3406:3412  uint k */\n      0x00\n        /* \"OtherTopics.sol\":3415:3416  0 */\n      0x00\n        /* \"OtherTopics.sol\":3406:3416  uint k = 0 */\n      swap1\n      pop\n        /* \"OtherTopics.sol\":3494:3745  while (i < a.length && j < b.length) {... */\n    tag_17:\n        /* \"OtherTopics.sol\":3505:3506  a */\n      dup8\n        /* \"OtherTopics.sol\":3505:3513  a.length */\n      mload\n        /* \"OtherTopics.sol\":3501:3502  i */\n      dup4\n        /* \"OtherTopics.sol\":3501:3513  i < a.length */\n      lt\n        /* \"OtherTopics.sol\":3501:3529  i < a.length && j < b.length */\n      dup1\n      iszero\n      tag_19\n      jumpi\n      pop\n        /* \"OtherTopics.sol\":3521:3522  b */\n      dup7\n        /* \"OtherTopics.sol\":3521:3529  b.length */\n      mload\n        /* \"OtherTopics.sol\":3517:3518  j */\n      dup3\n        /* \"OtherTopics.sol\":3517:3529  j < b.length */\n      lt\n        /* \"OtherTopics.sol\":3501:3529  i < a.length && j < b.length */\n    tag_19:\n        /* \"OtherTopics.sol\":3494:3745  while (i < a.length && j < b.length) {... */\n      iszero\n      tag_18\n      jumpi\n        /* \"OtherTopics.sol\":3558:3559  b */\n      dup7\n        /* \"OtherTopics.sol\":3560:3561  j */\n      dup3\n        /* \"OtherTopics.sol\":3558:3562  b[j] */\n      dup2\n      mload\n      dup2\n      lt\n      tag_20\n      jumpi\n      tag_21\n      tag_22\n      jump\t// in\n    tag_21:\n    tag_20:\n      0x20\n      mul\n      0x20\n      add\n      add\n      mload\n        /* \"OtherTopics.sol\":3550:3551  a */\n      dup9\n        /* \"OtherTopics.sol\":3552:3553  i */\n      dup5\n        /* \"OtherTopics.sol\":3550:3554  a[i] */\n      dup2\n      mload\n      dup2\n      lt\n      tag_23\n      jumpi\n      tag_24\n      tag_22\n      jump\t// in\n    tag_24:\n    tag_23:\n      0x20\n      mul\n      0x20\n      add\n      add\n      mload\n        /* \"OtherTopics.sol\":3550:3562  a[i] <= b[j] */\n      gt\n        /* \"OtherTopics.sol\":3546:3716  if (a[i] <= b[j]) {... */\n      tag_25\n      jumpi\n        /* \"OtherTopics.sol\":3595:3596  a */\n      dup8\n        /* \"OtherTopics.sol\":3597:3598  i */\n      dup4\n        /* \"OtherTopics.sol\":3595:3599  a[i] */\n      dup2\n      mload\n      dup2\n      lt\n      tag_26\n      jumpi\n      tag_27\n      tag_22\n      jump\t// in\n    tag_27:\n    tag_26:\n      0x20\n      mul\n      0x20\n      add\n      add\n      mload\n        /* \"OtherTopics.sol\":3583:3589  result */\n      dup5\n        /* \"OtherTopics.sol\":3590:3591  k */\n      dup3\n        /* \"OtherTopics.sol\":3583:3592  result[k] */\n      dup2\n      mload\n      dup2\n      lt\n      tag_28\n      jumpi\n      tag_29\n      tag_22\n      jump\t// in\n    tag_29:\n    tag_28:\n      0x20\n      mul\n      0x20\n      add\n      add\n        /* \"OtherTopics.sol\":3583:3599  result[k] = a[i] */\n      dup2\n      dup2\n      mstore\n      pop\n      pop\n        /* \"OtherTopics.sol\":3618:3621  i++ */\n      dup3\n      dup1\n      tag_30\n      swap1\n      tag_31\n      jump\t// in\n    tag_30:\n      swap4\n      pop\n      pop\n        /* \"OtherTopics.sol\":3546:3716  if (a[i] <= b[j]) {... */\n      jump(tag_32)\n    tag_25:\n        /* \"OtherTopics.sol\":3674:3675  b */\n      dup7\n        /* \"OtherTopics.sol\":3676:3677  j */\n      dup3\n        /* \"OtherTopics.sol\":3674:3678  b[j] */\n      dup2\n      mload\n      dup2\n      lt\n      tag_33\n      jumpi\n      tag_34\n      tag_22\n      jump\t// in\n    tag_34:\n    tag_33:\n      0x20\n      mul\n      0x20\n      add\n      add\n      mload\n        /* \"OtherTopics.sol\":3662:3668  result */\n      dup5\n        /* \"OtherTopics.sol\":3669:3670  k */\n      dup3\n        /* \"OtherTopics.sol\":3662:3671  result[k] */\n      dup2\n      mload\n      dup2\n      lt\n      tag_35\n      jumpi\n      tag_36\n      tag_22\n      jump\t// in\n    tag_36:\n    tag_35:\n      0x20\n      mul\n      0x20\n      add\n      add\n        /* \"OtherTopics.sol\":3662:3678  result[k] = b[j] */\n      dup2\n      dup2\n      mstore\n      pop\n      pop\n        /* \"OtherTopics.sol\":3697:3700  j++ */\n      dup2\n      dup1\n      tag_37\n      swap1\n      tag_31\n      jump\t// in\n    tag_37:\n      swap3\n      pop\n      pop\n        /* \"OtherTopics.sol\":3546:3716  if (a[i] <= b[j]) {... */\n    tag_32:\n        /* \"OtherTopics.sol\":3730:3733  k++ */\n      dup1\n      dup1\n      tag_38\n      swap1\n      tag_31\n      jump\t// in\n    tag_38:\n      swap2\n      pop\n      pop\n        /* \"OtherTopics.sol\":3494:3745  while (i < a.length && j < b.length) {... */\n      jump(tag_17)\n    tag_18:\n        /* \"OtherTopics.sol\":3863:3963  while (i < a.length) {... */\n    tag_39:\n        /* \"OtherTopics.sol\":3874:3875  a */\n      dup8\n        /* \"OtherTopics.sol\":3874:3882  a.length */\n      mload\n        /* \"OtherTopics.sol\":3870:3871  i */\n      dup4\n        /* \"OtherTopics.sol\":3870:3882  i < a.length */\n      lt\n        /* \"OtherTopics.sol\":3863:3963  while (i < a.length) {... */\n      iszero\n      tag_40\n      jumpi\n        /* \"OtherTopics.sol\":3911:3912  a */\n      dup8\n        /* \"OtherTopics.sol\":3913:3914  i */\n      dup4\n        /* \"OtherTopics.sol\":3911:3915  a[i] */\n      dup2\n      mload\n      dup2\n      lt\n      tag_41\n      jumpi\n      tag_42\n      tag_22\n      jump\t// in\n    tag_42:\n    tag_41:\n      0x20\n      mul\n      0x20\n      add\n      add\n      mload\n        /* \"OtherTopics.sol\":3899:3905  result */\n      dup5\n        /* \"OtherTopics.sol\":3906:3907  k */\n      dup3\n        /* \"OtherTopics.sol\":3899:3908  result[k] */\n      dup2\n      mload\n      dup2\n      lt\n      tag_43\n      jumpi\n      tag_44\n      tag_22\n      jump\t// in\n    tag_44:\n    tag_43:\n      0x20\n      mul\n      0x20\n      add\n      add\n        /* \"OtherTopics.sol\":3899:3915  result[k] = a[i] */\n      dup2\n      dup2\n      mstore\n      pop\n      pop\n        /* \"OtherTopics.sol\":3930:3933  i++ */\n      dup3\n      dup1\n      tag_45\n      swap1\n      tag_31\n      jump\t// in\n    tag_45:\n      swap4\n      pop\n      pop\n        /* \"OtherTopics.sol\":3948:3951  k++ */\n      dup1\n      dup1\n      tag_46\n      swap1\n      tag_31\n      jump\t// in\n    tag_46:\n      swap2\n      pop\n      pop\n        /* \"OtherTopics.sol\":3863:3963  while (i < a.length) {... */\n      jump(tag_39)\n    tag_40:\n        /* \"OtherTopics.sol\":3973:4073  while (j < b.length) {... */\n    tag_47:\n        /* \"OtherTopics.sol\":3984:3985  b */\n      dup7\n        /* \"OtherTopics.sol\":3984:3992  b.length */\n      mload\n        /* \"OtherTopics.sol\":3980:3981  j */\n      dup3\n        /* \"OtherTopics.sol\":3980:3992  j < b.length */\n      lt\n        /* \"OtherTopics.sol\":3973:4073  while (j < b.length) {... */\n      iszero\n      tag_48\n      jumpi\n        /* \"OtherTopics.sol\":4021:4022  b */\n      dup7\n        /* \"OtherTopics.sol\":4023:4024  j */\n      dup3\n        /* \"OtherTopics.sol\":4021:4025  b[j] */\n      dup2\n      mload\n      dup2\n      lt\n      tag_49\n      jumpi\n      tag_50\n      tag_22\n      jump\t// in\n    tag_50:\n    tag_49:\n      0x20\n      mul\n      0x20\n      add\n      add\n      mload\n        /* \"OtherTopics.sol\":4009:4015  result */\n      dup5\n        /* \"OtherTopics.sol\":4016:4017  k */\n      dup3\n        /* \"OtherTopics.sol\":4009:4018  result[k] */\n      dup2\n      mload\n      dup2\n      lt\n      tag_51\n      jumpi\n      tag_52\n      tag_22\n      jump\t// in\n    tag_52:\n    tag_51:\n      0x20\n      mul\n      0x20\n      add\n      add\n        /* \"OtherTopics.sol\":4009:4025  result[k] = b[j] */\n      dup2\n      dup2\n      mstore\n      pop\n      pop\n        /* \"OtherTopics.sol\":4040:4043  j++ */\n      dup2\n      dup1\n      tag_53\n      swap1\n      tag_31\n      jump\t// in\n    tag_53:\n      swap3\n      pop\n      pop\n        /* \"OtherTopics.sol\":4058:4061  k++ */\n      dup1\n      dup1\n      tag_54\n      swap1\n      tag_31\n      jump\t// in\n    tag_54:\n      swap2\n      pop\n      pop\n        /* \"OtherTopics.sol\":3973:4073  while (j < b.length) {... */\n      jump(tag_47)\n    tag_48:\n        /* \"OtherTopics.sol\":4092:4098  result */\n      dup4\n        /* \"OtherTopics.sol\":4085:4098  return result */\n      swap6\n      pop\n      pop\n      pop\n      pop\n      pop\n      pop\n        /* \"OtherTopics.sol\":3126:4106  function mergeSortedArrays(uint[] memory a, uint[] memory b) public pure returns (uint[] memory) {... */\n      swap3\n      swap2\n      pop\n      pop\n      jump\t// out\n        /* \"#utility.yul\":7:82   */\n    tag_55:\n        /* \"#utility.yul\":40:46   */\n      0x00\n        /* \"#utility.yul\":73:75   */\n      0x40\n        /* \"#utility.yul\":67:76   */\n      mload\n        /* \"#utility.yul\":57:76   */\n      swap1\n      pop\n        /* \"#utility.yul\":7:82   */\n      swap1\n      jump\t// out\n        /* \"#utility.yul\":88:205   */\n    tag_56:\n        /* \"#utility.yul\":197:198   */\n      0x00\n        /* \"#utility.yul\":194:195   */\n      0x00\n        /* \"#utility.yul\":187:199   */\n      revert\n        /* \"#utility.yul\":211:328   */\n    tag_57:\n        /* \"#utility.yul\":320:321   */\n      0x00\n        /* \"#utility.yul\":317:318   */\n      0x00\n        /* \"#utility.yul\":310:322   */\n      revert\n        /* \"#utility.yul\":334:451   */\n    tag_58:\n        /* \"#utility.yul\":443:444   */\n      0x00\n        /* \"#utility.yul\":440:441   */\n      0x00\n        /* \"#utility.yul\":433:445   */\n      revert\n        /* \"#utility.yul\":457:559   */\n    tag_59:\n        /* \"#utility.yul\":498:504   */\n      0x00\n        /* \"#utility.yul\":549:551   */\n      0x1f\n        /* \"#utility.yul\":545:552   */\n      not\n        /* \"#utility.yul\":540:542   */\n      0x1f\n        /* \"#utility.yul\":533:538   */\n      dup4\n        /* \"#utility.yul\":529:543   */\n      add\n        /* \"#utility.yul\":525:553   */\n      and\n        /* \"#utility.yul\":515:553   */\n      swap1\n      pop\n        /* \"#utility.yul\":457:559   */\n      swap2\n      swap1\n      pop\n      jump\t// out\n        /* \"#utility.yul\":565:745   */\n    tag_15:\n        /* \"#utility.yul\":613:690   */\n      0x4e487b7100000000000000000000000000000000000000000000000000000000\n        /* \"#utility.yul\":610:611   */\n      0x00\n        /* \"#utility.yul\":603:691   */\n      mstore\n        /* \"#utility.yul\":710:714   */\n      0x41\n        /* \"#utility.yul\":707:708   */\n      0x04\n        /* \"#utility.yul\":700:715   */\n      mstore\n        /* \"#utility.yul\":734:738   */\n      0x24\n        /* \"#utility.yul\":731:732   */\n      0x00\n        /* \"#utility.yul\":724:739   */\n      revert\n        /* \"#utility.yul\":751:1032   */\n    tag_60:\n        /* \"#utility.yul\":834:861   */\n      tag_85\n        /* \"#utility.yul\":856:860   */\n      dup3\n        /* \"#utility.yul\":834:861   */\n      tag_59\n      jump\t// in\n    tag_85:\n        /* \"#utility.yul\":826:832   */\n      dup2\n        /* \"#utility.yul\":822:862   */\n      add\n        /* \"#utility.yul\":964:970   */\n      dup2\n        /* \"#utility.yul\":952:962   */\n      dup2\n        /* \"#utility.yul\":949:971   */\n      lt\n        /* \"#utility.yul\":928:946   */\n      0xffffffffffffffff\n        /* \"#utility.yul\":916:926   */\n      dup3\n        /* \"#utility.yul\":913:947   */\n      gt\n        /* \"#utility.yul\":910:972   */\n      or\n        /* \"#utility.yul\":907:995   */\n      iszero\n      tag_86\n      jumpi\n        /* \"#utility.yul\":975:993   */\n      tag_87\n      tag_15\n      jump\t// in\n    tag_87:\n        /* \"#utility.yul\":907:995   */\n    tag_86:\n        /* \"#utility.yul\":1015:1025   */\n      dup1\n        /* \"#utility.yul\":1011:1013   */\n      0x40\n        /* \"#utility.yul\":1004:1026   */\n      mstore\n        /* \"#utility.yul\":794:1032   */\n      pop\n        /* \"#utility.yul\":751:1032   */\n      pop\n      pop\n      jump\t// out\n        /* \"#utility.yul\":1038:1167   */\n    tag_61:\n        /* \"#utility.yul\":1072:1078   */\n      0x00\n        /* \"#utility.yul\":1099:1119   */\n      tag_89\n      tag_55\n      jump\t// in\n    tag_89:\n        /* \"#utility.yul\":1089:1119   */\n      swap1\n      pop\n        /* \"#utility.yul\":1128:1161   */\n      tag_90\n        /* \"#utility.yul\":1156:1160   */\n      dup3\n        /* \"#utility.yul\":1148:1154   */\n      dup3\n        /* \"#utility.yul\":1128:1161   */\n      tag_60\n      jump\t// in\n    tag_90:\n        /* \"#utility.yul\":1038:1167   */\n      swap2\n      swap1\n      pop\n      jump\t// out\n        /* \"#utility.yul\":1173:1484   */\n    tag_62:\n        /* \"#utility.yul\":1250:1254   */\n      0x00\n        /* \"#utility.yul\":1340:1358   */\n      0xffffffffffffffff\n        /* \"#utility.yul\":1332:1338   */\n      dup3\n        /* \"#utility.yul\":1329:1359   */\n      gt\n        /* \"#utility.yul\":1326:1382   */\n      iszero\n      tag_92\n      jumpi\n        /* \"#utility.yul\":1362:1380   */\n      tag_93\n      tag_15\n      jump\t// in\n    tag_93:\n        /* \"#utility.yul\":1326:1382   */\n    tag_92:\n        /* \"#utility.yul\":1412:1416   */\n      0x20\n        /* \"#utility.yul\":1404:1410   */\n      dup3\n        /* \"#utility.yul\":1400:1417   */\n      mul\n        /* \"#utility.yul\":1392:1417   */\n      swap1\n      pop\n        /* \"#utility.yul\":1472:1476   */\n      0x20\n        /* \"#utility.yul\":1466:1470   */\n      dup2\n        /* \"#utility.yul\":1462:1477   */\n      add\n        /* \"#utility.yul\":1454:1477   */\n      swap1\n      pop\n        /* \"#utility.yul\":1173:1484   */\n      swap2\n      swap1\n      pop\n      jump\t// out\n        /* \"#utility.yul\":1490:1607   */\n    tag_63:\n        /* \"#utility.yul\":1599:1600   */\n      0x00\n        /* \"#utility.yul\":1596:1597   */\n      0x00\n        /* \"#utility.yul\":1589:1601   */\n      revert\n        /* \"#utility.yul\":1613:1690   */\n    tag_64:\n        /* \"#utility.yul\":1650:1657   */\n      0x00\n        /* \"#utility.yul\":1679:1684   */\n      dup2\n        /* \"#utility.yul\":1668:1684   */\n      swap1\n      pop\n        /* \"#utility.yul\":1613:1690   */\n      swap2\n      swap1\n      pop\n      jump\t// out\n        /* \"#utility.yul\":1696:1818   */\n    tag_65:\n        /* \"#utility.yul\":1769:1793   */\n      tag_97\n        /* \"#utility.yul\":1787:1792   */\n      dup2\n        /* \"#utility.yul\":1769:1793   */\n      tag_64\n      jump\t// in\n    tag_97:\n        /* \"#utility.yul\":1762:1767   */\n      dup2\n        /* \"#utility.yul\":1759:1794   */\n      eq\n        /* \"#utility.yul\":1749:1812   */\n      tag_98\n      jumpi\n        /* \"#utility.yul\":1808:1809   */\n      0x00\n        /* \"#utility.yul\":1805:1806   */\n      0x00\n        /* \"#utility.yul\":1798:1810   */\n      revert\n        /* \"#utility.yul\":1749:1812   */\n    tag_98:\n        /* \"#utility.yul\":1696:1818   */\n      pop\n      jump\t// out\n        /* \"#utility.yul\":1824:1963   */\n    tag_66:\n        /* \"#utility.yul\":1870:1875   */\n      0x00\n        /* \"#utility.yul\":1908:1914   */\n      dup2\n        /* \"#utility.yul\":1895:1915   */\n      calldataload\n        /* \"#utility.yul\":1886:1915   */\n      swap1\n      pop\n        /* \"#utility.yul\":1924:1957   */\n      tag_100\n        /* \"#utility.yul\":1951:1956   */\n      dup2\n        /* \"#utility.yul\":1924:1957   */\n      tag_65\n      jump\t// in\n    tag_100:\n        /* \"#utility.yul\":1824:1963   */\n      swap3\n      swap2\n      pop\n      pop\n      jump\t// out\n        /* \"#utility.yul\":1986:2696   */\n    tag_67:\n        /* \"#utility.yul\":2082:2087   */\n      0x00\n        /* \"#utility.yul\":2107:2188   */\n      tag_102\n        /* \"#utility.yul\":2123:2187   */\n      tag_103\n        /* \"#utility.yul\":2180:2186   */\n      dup5\n        /* \"#utility.yul\":2123:2187   */\n      tag_62\n      jump\t// in\n    tag_103:\n        /* \"#utility.yul\":2107:2188   */\n      tag_61\n      jump\t// in\n    tag_102:\n        /* \"#utility.yul\":2098:2188   */\n      swap1\n      pop\n        /* \"#utility.yul\":2208:2213   */\n      dup1\n        /* \"#utility.yul\":2237:2243   */\n      dup4\n        /* \"#utility.yul\":2230:2235   */\n      dup3\n        /* \"#utility.yul\":2223:2244   */\n      mstore\n        /* \"#utility.yul\":2271:2275   */\n      0x20\n        /* \"#utility.yul\":2264:2269   */\n      dup3\n        /* \"#utility.yul\":2260:2276   */\n      add\n        /* \"#utility.yul\":2253:2276   */\n      swap1\n      pop\n        /* \"#utility.yul\":2324:2328   */\n      0x20\n        /* \"#utility.yul\":2316:2322   */\n      dup5\n        /* \"#utility.yul\":2312:2329   */\n      mul\n        /* \"#utility.yul\":2304:2310   */\n      dup4\n        /* \"#utility.yul\":2300:2330   */\n      add\n        /* \"#utility.yul\":2353:2356   */\n      dup6\n        /* \"#utility.yul\":2345:2351   */\n      dup2\n        /* \"#utility.yul\":2342:2357   */\n      gt\n        /* \"#utility.yul\":2339:2461   */\n      iszero\n      tag_104\n      jumpi\n        /* \"#utility.yul\":2372:2451   */\n      tag_105\n      tag_63\n      jump\t// in\n    tag_105:\n        /* \"#utility.yul\":2339:2461   */\n    tag_104:\n        /* \"#utility.yul\":2487:2493   */\n      dup4\n        /* \"#utility.yul\":2470:2690   */\n    tag_106:\n        /* \"#utility.yul\":2504:2510   */\n      dup2\n        /* \"#utility.yul\":2499:2502   */\n      dup2\n        /* \"#utility.yul\":2496:2511   */\n      lt\n        /* \"#utility.yul\":2470:2690   */\n      iszero\n      tag_108\n      jumpi\n        /* \"#utility.yul\":2579:2582   */\n      dup1\n        /* \"#utility.yul\":2608:2645   */\n      tag_109\n        /* \"#utility.yul\":2641:2644   */\n      dup9\n        /* \"#utility.yul\":2629:2639   */\n      dup3\n        /* \"#utility.yul\":2608:2645   */\n      tag_66\n      jump\t// in\n    tag_109:\n        /* \"#utility.yul\":2603:2606   */\n      dup5\n        /* \"#utility.yul\":2596:2646   */\n      mstore\n        /* \"#utility.yul\":2675:2679   */\n      0x20\n        /* \"#utility.yul\":2670:2673   */\n      dup5\n        /* \"#utility.yul\":2666:2680   */\n      add\n        /* \"#utility.yul\":2659:2680   */\n      swap4\n      pop\n        /* \"#utility.yul\":2546:2690   */\n      pop\n        /* \"#utility.yul\":2530:2534   */\n      0x20\n        /* \"#utility.yul\":2525:2528   */\n      dup2\n        /* \"#utility.yul\":2521:2535   */\n      add\n        /* \"#utility.yul\":2514:2535   */\n      swap1\n      pop\n        /* \"#utility.yul\":2470:2690   */\n      jump(tag_106)\n    tag_108:\n        /* \"#utility.yul\":2474:2495   */\n      pop\n        /* \"#utility.yul\":2088:2696   */\n      pop\n      pop\n        /* \"#utility.yul\":1986:2696   */\n      swap4\n      swap3\n      pop\n      pop\n      pop\n      jump\t// out\n        /* \"#utility.yul\":2719:3089   */\n    tag_68:\n        /* \"#utility.yul\":2790:2795   */\n      0x00\n        /* \"#utility.yul\":2839:2842   */\n      dup3\n        /* \"#utility.yul\":2832:2836   */\n      0x1f\n        /* \"#utility.yul\":2824:2830   */\n      dup4\n        /* \"#utility.yul\":2820:2837   */\n      add\n        /* \"#utility.yul\":2816:2843   */\n      slt\n        /* \"#utility.yul\":2806:2928   */\n      tag_111\n      jumpi\n        /* \"#utility.yul\":2847:2926   */\n      tag_112\n      tag_58\n      jump\t// in\n    tag_112:\n        /* \"#utility.yul\":2806:2928   */\n    tag_111:\n        /* \"#utility.yul\":2964:2970   */\n      dup2\n        /* \"#utility.yul\":2951:2971   */\n      calldataload\n        /* \"#utility.yul\":2989:3083   */\n      tag_113\n        /* \"#utility.yul\":3079:3082   */\n      dup5\n        /* \"#utility.yul\":3071:3077   */\n      dup3\n        /* \"#utility.yul\":3064:3068   */\n      0x20\n        /* \"#utility.yul\":3056:3062   */\n      dup7\n        /* \"#utility.yul\":3052:3069   */\n      add\n        /* \"#utility.yul\":2989:3083   */\n      tag_67\n      jump\t// in\n    tag_113:\n        /* \"#utility.yul\":2980:3083   */\n      swap2\n      pop\n        /* \"#utility.yul\":2796:3089   */\n      pop\n        /* \"#utility.yul\":2719:3089   */\n      swap3\n      swap2\n      pop\n      pop\n      jump\t// out\n        /* \"#utility.yul\":3095:3989   */\n    tag_6:\n        /* \"#utility.yul\":3213:3219   */\n      0x00\n        /* \"#utility.yul\":3221:3227   */\n      0x00\n        /* \"#utility.yul\":3270:3272   */\n      0x40\n        /* \"#utility.yul\":3258:3267   */\n      dup4\n        /* \"#utility.yul\":3249:3256   */\n      dup6\n        /* \"#utility.yul\":3245:3268   */\n      sub\n        /* \"#utility.yul\":3241:3273   */\n      slt\n        /* \"#utility.yul\":3238:3357   */\n      iszero\n      tag_115\n      jumpi\n        /* \"#utility.yul\":3276:3355   */\n      tag_116\n      tag_56\n      jump\t// in\n    tag_116:\n        /* \"#utility.yul\":3238:3357   */\n    tag_115:\n        /* \"#utility.yul\":3424:3425   */\n      0x00\n        /* \"#utility.yul\":3413:3422   */\n      dup4\n        /* \"#utility.yul\":3409:3426   */\n      add\n        /* \"#utility.yul\":3396:3427   */\n      calldataload\n        /* \"#utility.yul\":3454:3472   */\n      0xffffffffffffffff\n        /* \"#utility.yul\":3446:3452   */\n      dup2\n        /* \"#utility.yul\":3443:3473   */\n      gt\n        /* \"#utility.yul\":3440:3557   */\n      iszero\n      tag_117\n      jumpi\n        /* \"#utility.yul\":3476:3555   */\n      tag_118\n      tag_57\n      jump\t// in\n    tag_118:\n        /* \"#utility.yul\":3440:3557   */\n    tag_117:\n        /* \"#utility.yul\":3581:3659   */\n      tag_119\n        /* \"#utility.yul\":3651:3658   */\n      dup6\n        /* \"#utility.yul\":3642:3648   */\n      dup3\n        /* \"#utility.yul\":3631:3640   */\n      dup7\n        /* \"#utility.yul\":3627:3649   */\n      add\n        /* \"#utility.yul\":3581:3659   */\n      tag_68\n      jump\t// in\n    tag_119:\n        /* \"#utility.yul\":3571:3659   */\n      swap3\n      pop\n        /* \"#utility.yul\":3367:3669   */\n      pop\n        /* \"#utility.yul\":3736:3738   */\n      0x20\n        /* \"#utility.yul\":3725:3734   */\n      dup4\n        /* \"#utility.yul\":3721:3739   */\n      add\n        /* \"#utility.yul\":3708:3740   */\n      calldataload\n        /* \"#utility.yul\":3767:3785   */\n      0xffffffffffffffff\n        /* \"#utility.yul\":3759:3765   */\n      dup2\n        /* \"#utility.yul\":3756:3786   */\n      gt\n        /* \"#utility.yul\":3753:3870   */\n      iszero\n      tag_120\n      jumpi\n        /* \"#utility.yul\":3789:3868   */\n      tag_121\n      tag_57\n      jump\t// in\n    tag_121:\n        /* \"#utility.yul\":3753:3870   */\n    tag_120:\n        /* \"#utility.yul\":3894:3972   */\n      tag_122\n        /* \"#utility.yul\":3964:3971   */\n      dup6\n        /* \"#utility.yul\":3955:3961   */\n      dup3\n        /* \"#utility.yul\":3944:3953   */\n      dup7\n        /* \"#utility.yul\":3940:3962   */\n      add\n        /* \"#utility.yul\":3894:3972   */\n      tag_68\n      jump\t// in\n    tag_122:\n        /* \"#utility.yul\":3884:3972   */\n      swap2\n      pop\n        /* \"#utility.yul\":3679:3982   */\n      pop\n        /* \"#utility.yul\":3095:3989   */\n      swap3\n      pop\n      swap3\n      swap1\n      pop\n      jump\t// out\n        /* \"#utility.yul\":3995:4109   */\n    tag_69:\n        /* \"#utility.yul\":4062:4068   */\n      0x00\n        /* \"#utility.yul\":4096:4101   */\n      dup2\n        /* \"#utility.yul\":4090:4102   */\n      mload\n        /* \"#utility.yul\":4080:4102   */\n      swap1\n      pop\n        /* \"#utility.yul\":3995:4109   */\n      swap2\n      swap1\n      pop\n      jump\t// out\n        /* \"#utility.yul\":4115:4299   */\n    tag_70:\n        /* \"#utility.yul\":4214:4225   */\n      0x00\n        /* \"#utility.yul\":4248:4254   */\n      dup3\n        /* \"#utility.yul\":4243:4246   */\n      dup3\n        /* \"#utility.yul\":4236:4255   */\n      mstore\n        /* \"#utility.yul\":4288:4292   */\n      0x20\n        /* \"#utility.yul\":4283:4286   */\n      dup3\n        /* \"#utility.yul\":4279:4293   */\n      add\n        /* \"#utility.yul\":4264:4293   */\n      swap1\n      pop\n        /* \"#utility.yul\":4115:4299   */\n      swap3\n      swap2\n      pop\n      pop\n      jump\t// out\n        /* \"#utility.yul\":4305:4437   */\n    tag_71:\n        /* \"#utility.yul\":4372:4376   */\n      0x00\n        /* \"#utility.yul\":4395:4398   */\n      dup2\n        /* \"#utility.yul\":4387:4398   */\n      swap1\n      pop\n        /* \"#utility.yul\":4425:4429   */\n      0x20\n        /* \"#utility.yul\":4420:4423   */\n      dup3\n        /* \"#utility.yul\":4416:4430   */\n      add\n        /* \"#utility.yul\":4408:4430   */\n      swap1\n      pop\n        /* \"#utility.yul\":4305:4437   */\n      swap2\n      swap1\n      pop\n      jump\t// out\n        /* \"#utility.yul\":4443:4551   */\n    tag_72:\n        /* \"#utility.yul\":4520:4544   */\n      tag_127\n        /* \"#utility.yul\":4538:4543   */\n      dup2\n        /* \"#utility.yul\":4520:4544   */\n      tag_64\n      jump\t// in\n    tag_127:\n        /* \"#utility.yul\":4515:4518   */\n      dup3\n        /* \"#utility.yul\":4508:4545   */\n      mstore\n        /* \"#utility.yul\":4443:4551   */\n      pop\n      pop\n      jump\t// out\n        /* \"#utility.yul\":4557:4736   */\n    tag_73:\n        /* \"#utility.yul\":4626:4636   */\n      0x00\n        /* \"#utility.yul\":4647:4693   */\n      tag_129\n        /* \"#utility.yul\":4689:4692   */\n      dup4\n        /* \"#utility.yul\":4681:4687   */\n      dup4\n        /* \"#utility.yul\":4647:4693   */\n      tag_72\n      jump\t// in\n    tag_129:\n        /* \"#utility.yul\":4725:4729   */\n      0x20\n        /* \"#utility.yul\":4720:4723   */\n      dup4\n        /* \"#utility.yul\":4716:4730   */\n      add\n        /* \"#utility.yul\":4702:4730   */\n      swap1\n      pop\n        /* \"#utility.yul\":4557:4736   */\n      swap3\n      swap2\n      pop\n      pop\n      jump\t// out\n        /* \"#utility.yul\":4742:4855   */\n    tag_74:\n        /* \"#utility.yul\":4812:4816   */\n      0x00\n        /* \"#utility.yul\":4844:4848   */\n      0x20\n        /* \"#utility.yul\":4839:4842   */\n      dup3\n        /* \"#utility.yul\":4835:4849   */\n      add\n        /* \"#utility.yul\":4827:4849   */\n      swap1\n      pop\n        /* \"#utility.yul\":4742:4855   */\n      swap2\n      swap1\n      pop\n      jump\t// out\n        /* \"#utility.yul\":4891:5623   */\n    tag_75:\n        /* \"#utility.yul\":5010:5013   */\n      0x00\n        /* \"#utility.yul\":5039:5093   */\n      tag_132\n        /* \"#utility.yul\":5087:5092   */\n      dup3\n        /* \"#utility.yul\":5039:5093   */\n      tag_69\n      jump\t// in\n    tag_132:\n        /* \"#utility.yul\":5109:5195   */\n      tag_133\n        /* \"#utility.yul\":5188:5194   */\n      dup2\n        /* \"#utility.yul\":5183:5186   */\n      dup6\n        /* \"#utility.yul\":5109:5195   */\n      tag_70\n      jump\t// in\n    tag_133:\n        /* \"#utility.yul\":5102:5195   */\n      swap4\n      pop\n        /* \"#utility.yul\":5219:5275   */\n      tag_134\n        /* \"#utility.yul\":5269:5274   */\n      dup4\n        /* \"#utility.yul\":5219:5275   */\n      tag_71\n      jump\t// in\n    tag_134:\n        /* \"#utility.yul\":5298:5305   */\n      dup1\n        /* \"#utility.yul\":5329:5330   */\n      0x00\n        /* \"#utility.yul\":5314:5598   */\n    tag_135:\n        /* \"#utility.yul\":5339:5345   */\n      dup4\n        /* \"#utility.yul\":5336:5337   */\n      dup2\n        /* \"#utility.yul\":5333:5346   */\n      lt\n        /* \"#utility.yul\":5314:5598   */\n      iszero\n      tag_137\n      jumpi\n        /* \"#utility.yul\":5415:5421   */\n      dup2\n        /* \"#utility.yul\":5409:5422   */\n      mload\n        /* \"#utility.yul\":5442:5505   */\n      tag_138\n        /* \"#utility.yul\":5501:5504   */\n      dup9\n        /* \"#utility.yul\":5486:5499   */\n      dup3\n        /* \"#utility.yul\":5442:5505   */\n      tag_73\n      jump\t// in\n    tag_138:\n        /* \"#utility.yul\":5435:5505   */\n      swap8\n      pop\n        /* \"#utility.yul\":5528:5588   */\n      tag_139\n        /* \"#utility.yul\":5581:5587   */\n      dup4\n        /* \"#utility.yul\":5528:5588   */\n      tag_74\n      jump\t// in\n    tag_139:\n        /* \"#utility.yul\":5518:5588   */\n      swap3\n      pop\n        /* \"#utility.yul\":5374:5598   */\n      pop\n        /* \"#utility.yul\":5361:5362   */\n      0x01\n        /* \"#utility.yul\":5358:5359   */\n      dup2\n        /* \"#utility.yul\":5354:5363   */\n      add\n        /* \"#utility.yul\":5349:5363   */\n      swap1\n      pop\n        /* \"#utility.yul\":5314:5598   */\n      jump(tag_135)\n    tag_137:\n        /* \"#utility.yul\":5318:5332   */\n      pop\n        /* \"#utility.yul\":5614:5617   */\n      dup6\n        /* \"#utility.yul\":5607:5617   */\n      swap4\n      pop\n        /* \"#utility.yul\":5015:5623   */\n      pop\n      pop\n      pop\n        /* \"#utility.yul\":4891:5623   */\n      swap3\n      swap2\n      pop\n      pop\n      jump\t// out\n        /* \"#utility.yul\":5629:6002   */\n    tag_9:\n        /* \"#utility.yul\":5772:5776   */\n      0x00\n        /* \"#utility.yul\":5810:5812   */\n      0x20\n        /* \"#utility.yul\":5799:5808   */\n      dup3\n        /* \"#utility.yul\":5795:5813   */\n      add\n        /* \"#utility.yul\":5787:5813   */\n      swap1\n      pop\n        /* \"#utility.yul\":5859:5868   */\n      dup2\n        /* \"#utility.yul\":5853:5857   */\n      dup2\n        /* \"#utility.yul\":5849:5869   */\n      sub\n        /* \"#utility.yul\":5845:5846   */\n      0x00\n        /* \"#utility.yul\":5834:5843   */\n      dup4\n        /* \"#utility.yul\":5830:5847   */\n      add\n        /* \"#utility.yul\":5823:5870   */\n      mstore\n        /* \"#utility.yul\":5887:5995   */\n      tag_141\n        /* \"#utility.yul\":5990:5994   */\n      dup2\n        /* \"#utility.yul\":5981:5987   */\n      dup5\n        /* \"#utility.yul\":5887:5995   */\n      tag_75\n      jump\t// in\n    tag_141:\n        /* \"#utility.yul\":5879:5995   */\n      swap1\n      pop\n        /* \"#utility.yul\":5629:6002   */\n      swap3\n      swap2\n      pop\n      pop\n      jump\t// out\n        /* \"#utility.yul\":6008:6188   */\n    tag_76:\n        /* \"#utility.yul\":6056:6133   */\n      0x4e487b7100000000000000000000000000000000000000000000000000000000\n        /* \"#utility.yul\":6053:6054   */\n      0x00\n        /* \"#utility.yul\":6046:6134   */\n      mstore\n        /* \"#utility.yul\":6153:6157   */\n      0x11\n        /* \"#utility.yul\":6150:6151   */\n      0x04\n        /* \"#utility.yul\":6143:6158   */\n      mstore\n        /* \"#utility.yul\":6177:6181   */\n      0x24\n        /* \"#utility.yul\":6174:6175   */\n      0x00\n        /* \"#utility.yul\":6167:6182   */\n      revert\n        /* \"#utility.yul\":6194:6385   */\n    tag_12:\n        /* \"#utility.yul\":6234:6237   */\n      0x00\n        /* \"#utility.yul\":6253:6273   */\n      tag_144\n        /* \"#utility.yul\":6271:6272   */\n      dup3\n        /* \"#utility.yul\":6253:6273   */\n      tag_64\n      jump\t// in\n    tag_144:\n        /* \"#utility.yul\":6248:6273   */\n      swap2\n      pop\n        /* \"#utility.yul\":6287:6307   */\n      tag_145\n        /* \"#utility.yul\":6305:6306   */\n      dup4\n        /* \"#utility.yul\":6287:6307   */\n      tag_64\n      jump\t// in\n    tag_145:\n        /* \"#utility.yul\":6282:6307   */\n      swap3\n      pop\n        /* \"#utility.yul\":6330:6331   */\n      dup3\n        /* \"#utility.yul\":6327:6328   */\n      dup3\n        /* \"#utility.yul\":6323:6332   */\n      add\n        /* \"#utility.yul\":6316:6332   */\n      swap1\n      pop\n        /* \"#utility.yul\":6351:6354   */\n      dup1\n        /* \"#utility.yul\":6348:6349   */\n      dup3\n        /* \"#utility.yul\":6345:6355   */\n      gt\n        /* \"#utility.yul\":6342:6378   */\n      iszero\n      tag_146\n      jumpi\n        /* \"#utility.yul\":6358:6376   */\n      tag_147\n      tag_76\n      jump\t// in\n    tag_147:\n        /* \"#utility.yul\":6342:6378   */\n    tag_146:\n        /* \"#utility.yul\":6194:6385   */\n      swap3\n      swap2\n      pop\n      pop\n      jump\t// out\n        /* \"#utility.yul\":6391:6571   */\n    tag_22:\n        /* \"#utility.yul\":6439:6516   */\n      0x4e487b7100000000000000000000000000000000000000000000000000000000\n        /* \"#utility.yul\":6436:6437   */\n      0x00\n        /* \"#utility.yul\":6429:6517   */\n      mstore\n        /* \"#utility.yul\":6536:6540   */\n      0x32\n        /* \"#utility.yul\":6533:6534   */\n      0x04\n        /* \"#utility.yul\":6526:6541   */\n      mstore\n        /* \"#utility.yul\":6560:6564   */\n      0x24\n        /* \"#utility.yul\":6557:6558   */\n      0x00\n        /* \"#utility.yul\":6550:6565   */\n      revert\n        /* \"#utility.yul\":6577:6810   */\n    tag_31:\n        /* \"#utility.yul\":6616:6619   */\n      0x00\n        /* \"#utility.yul\":6639:6663   */\n      tag_150\n        /* \"#utility.yul\":6657:6662   */\n      dup3\n        /* \"#utility.yul\":6639:6663   */\n      tag_64\n      jump\t// in\n    tag_150:\n        /* \"#utility.yul\":6630:6663   */\n      swap2\n      pop\n        /* \"#utility.yul\":6685:6751   */\n      0xffffffffffffffffffffffffffffffffffffffffffffffffffffffffffffffff\n        /* \"#utility.yul\":6678:6683   */\n      dup3\n        /* \"#utility.yul\":6675:6752   */\n      sub\n        /* \"#utility.yul\":6672:6775   */\n      tag_151\n      jumpi\n        /* \"#utility.yul\":6755:6773   */\n      tag_152\n      tag_76\n      jump\t// in\n    tag_152:\n        /* \"#utility.yul\":6672:6775   */\n    tag_151:\n        /* \"#utility.yul\":6802:6803   */\n      0x01\n        /* \"#utility.yul\":6795:6800   */\n      dup3\n        /* \"#utility.yul\":6791:6804   */\n      add\n        /* \"#utility.yul\":6784:6804   */\n      swap1\n      pop\n        /* \"#utility.yul\":6577:6810   */\n      swap2\n      swap1\n      pop\n      jump\t// out\n\n    auxdata: 0xa2646970667358221220a4a5df13c07a15030a1a0ab9e84f212e4e3753863ffd5ef4600a60bd32b6e33064736f6c634300081e0033\n}\n",
				"bytecode": {
					"linkReferences": {},
					"object": "6080604052348015600e575f5ffd5b506106858061001c5f395ff3fe608060405234801561000f575f5ffd5b5060043610610029575f3560e01c80634cf0cc0d1461002d575b5f5ffd5b6100476004803603810190610042919061042e565b61005d565b604051610054919061055b565b60405180910390f35b60605f8251845161006e91906105a8565b90505f8167ffffffffffffffff81111561008b5761008a6102bf565b5b6040519080825280602002602001820160405280156100b95781602001602082028036833780820191505090505b5090505f5f90505f5f90505f5f90505b8751831080156100d95750865182105b156101c2578682815181106100f1576100f06105db565b5b602002602001015188848151811061010c5761010b6105db565b5b6020026020010151116101665787838151811061012c5761012b6105db565b5b6020026020010151848281518110610147576101466105db565b5b602002602001018181525050828061015e90610608565b9350506101af565b868281518110610179576101786105db565b5b6020026020010151848281518110610194576101936105db565b5b60200260200101818152505081806101ab90610608565b9250505b80806101ba90610608565b9150506100c9565b5b8751831015610227578783815181106101df576101de6105db565b5b60200260200101518482815181106101fa576101f96105db565b5b602002602001018181525050828061021190610608565b935050808061021f90610608565b9150506101c3565b5b865182101561028c57868281518110610244576102436105db565b5b602002602001015184828151811061025f5761025e6105db565b5b602002602001018181525050818061027690610608565b925050808061028490610608565b915050610228565b839550505050505092915050565b5f604051905090565b5f5ffd5b5f5ffd5b5f5ffd5b5f601f19601f8301169050919050565b7f4e487b71000000000000000000000000000000000000000000000000000000005f52604160045260245ffd5b6102f5826102af565b810181811067ffffffffffffffff82111715610314576103136102bf565b5b80604052505050565b5f61032661029a565b905061033282826102ec565b919050565b5f67ffffffffffffffff821115610351576103506102bf565b5b602082029050602081019050919050565b5f5ffd5b5f819050919050565b61037881610366565b8114610382575f5ffd5b50565b5f813590506103938161036f565b92915050565b5f6103ab6103a684610337565b61031d565b905080838252602082019050602084028301858111156103ce576103cd610362565b5b835b818110156103f757806103e38882610385565b8452602084019350506020810190506103d0565b5050509392505050565b5f82601f830112610415576104146102ab565b5b8135610425848260208601610399565b91505092915050565b5f5f60408385031215610444576104436102a3565b5b5f83013567ffffffffffffffff811115610461576104606102a7565b5b61046d85828601610401565b925050602083013567ffffffffffffffff81111561048e5761048d6102a7565b5b61049a85828601610401565b9150509250929050565b5f81519050919050565b5f82825260208201905092915050565b5f819050602082019050919050565b6104d681610366565b82525050565b5f6104e783836104cd565b60208301905092915050565b5f602082019050919050565b5f610509826104a4565b61051381856104ae565b935061051e836104be565b805f5b8381101561054e57815161053588826104dc565b9750610540836104f3565b925050600181019050610521565b5085935050505092915050565b5f6020820190508181035f83015261057381846104ff565b905092915050565b7f4e487b71000000000000000000000000000000000000000000000000000000005f52601160045260245ffd5b5f6105b282610366565b91506105bd83610366565b92508282019050808211156105d5576105d461057b565b5b92915050565b7f4e487b71000000000000000000000000000000000000000000000000000000005f52603260045260245ffd5b5f61061282610366565b91507fffffffffffffffffffffffffffffffffffffffffffffffffffffffffffffffff82036106445761064361057b565b5b60018201905091905056fea2646970667358221220a4a5df13c07a15030a1a0ab9e84f212e4e3753863ffd5ef4600a60bd32b6e33064736f6c634300081e0033",
					"opcodes": "PUSH1 0x80 PUSH1 0x40 MSTORE CALLVALUE DUP1 ISZERO PUSH1 0xE JUMPI PUSH0 PUSH0 REVERT JUMPDEST POP PUSH2 0x685 DUP1 PUSH2 0x1C PUSH0 CODECOPY PUSH0 RETURN INVALID PUSH1 0x80 PUSH1 0x40 MSTORE CALLVALUE DUP1 ISZERO PUSH2 0xF JUMPI PUSH0 PUSH0 REVERT JUMPDEST POP PUSH1 0x4 CALLDATASIZE LT PUSH2 0x29 JUMPI PUSH0 CALLDATALOAD PUSH1 0xE0 SHR DUP1 PUSH4 0x4CF0CC0D EQ PUSH2 0x2D JUMPI JUMPDEST PUSH0 PUSH0 REVERT JUMPDEST PUSH2 0x47 PUSH1 0x4 DUP1 CALLDATASIZE SUB DUP2 ADD SWAP1 PUSH2 0x42 SWAP2 SWAP1 PUSH2 0x42E JUMP JUMPDEST PUSH2 0x5D JUMP JUMPDEST PUSH1 0x40 MLOAD PUSH2 0x54 SWAP2 SWAP1 PUSH2 0x55B JUMP JUMPDEST PUSH1 0x40 MLOAD DUP1 SWAP2 SUB SWAP1 RETURN JUMPDEST PUSH1 0x60 PUSH0 DUP3 MLOAD DUP5 MLOAD PUSH2 0x6E SWAP2 SWAP1 PUSH2 0x5A8 JUMP JUMPDEST SWAP1 POP PUSH0 DUP2 PUSH8 0xFFFFFFFFFFFFFFFF DUP2 GT ISZERO PUSH2 0x8B JUMPI PUSH2 0x8A PUSH2 0x2BF JUMP JUMPDEST JUMPDEST PUSH1 0x40 MLOAD SWAP1 DUP1 DUP3 MSTORE DUP1 PUSH1 0x20 MUL PUSH1 0x20 ADD DUP3 ADD PUSH1 0x40 MSTORE DUP1 ISZERO PUSH2 0xB9 JUMPI DUP2 PUSH1 0x20 ADD PUSH1 0x20 DUP3 MUL DUP1 CALLDATASIZE DUP4 CALLDATACOPY DUP1 DUP3 ADD SWAP2 POP POP SWAP1 POP JUMPDEST POP SWAP1 POP PUSH0 PUSH0 SWAP1 POP PUSH0 PUSH0 SWAP1 POP PUSH0 PUSH0 SWAP1 POP JUMPDEST DUP8 MLOAD DUP4 LT DUP1 ISZERO PUSH2 0xD9 JUMPI POP DUP7 MLOAD DUP3 LT JUMPDEST ISZERO PUSH2 0x1C2 JUMPI DUP7 DUP3 DUP2 MLOAD DUP2 LT PUSH2 0xF1 JUMPI PUSH2 0xF0 PUSH2 0x5DB JUMP JUMPDEST JUMPDEST PUSH1 0x20 MUL PUSH1 0x20 ADD ADD MLOAD DUP9 DUP5 DUP2 MLOAD DUP2 LT PUSH2 0x10C JUMPI PUSH2 0x10B PUSH2 0x5DB JUMP JUMPDEST JUMPDEST PUSH1 0x20 MUL PUSH1 0x20 ADD ADD MLOAD GT PUSH2 0x166 JUMPI DUP8 DUP4 DUP2 MLOAD DUP2 LT PUSH2 0x12C JUMPI PUSH2 0x12B PUSH2 0x5DB JUMP JUMPDEST JUMPDEST PUSH1 0x20 MUL PUSH1 0x20 ADD ADD MLOAD DUP5 DUP3 DUP2 MLOAD DUP2 LT PUSH2 0x147 JUMPI PUSH2 0x146 PUSH2 0x5DB JUMP JUMPDEST JUMPDEST PUSH1 0x20 MUL PUSH1 0x20 ADD ADD DUP2 DUP2 MSTORE POP POP DUP3 DUP1 PUSH2 0x15E SWAP1 PUSH2 0x608 JUMP JUMPDEST SWAP4 POP POP PUSH2 0x1AF JUMP JUMPDEST DUP7 DUP3 DUP2 MLOAD DUP2 LT PUSH2 0x179 JUMPI PUSH2 0x178 PUSH2 0x5DB JUMP JUMPDEST JUMPDEST PUSH1 0x20 MUL PUSH1 0x20 ADD ADD MLOAD DUP5 DUP3 DUP2 MLOAD DUP2 LT PUSH2 0x194 JUMPI PUSH2 0x193 PUSH2 0x5DB JUMP JUMPDEST JUMPDEST PUSH1 0x20 MUL PUSH1 0x20 ADD ADD DUP2 DUP2 MSTORE POP POP DUP2 DUP1 PUSH2 0x1AB SWAP1 PUSH2 0x608 JUMP JUMPDEST SWAP3 POP POP JUMPDEST DUP1 DUP1 PUSH2 0x1BA SWAP1 PUSH2 0x608 JUMP JUMPDEST SWAP2 POP POP PUSH2 0xC9 JUMP JUMPDEST JUMPDEST DUP8 MLOAD DUP4 LT ISZERO PUSH2 0x227 JUMPI DUP8 DUP4 DUP2 MLOAD DUP2 LT PUSH2 0x1DF JUMPI PUSH2 0x1DE PUSH2 0x5DB JUMP JUMPDEST JUMPDEST PUSH1 0x20 MUL PUSH1 0x20 ADD ADD MLOAD DUP5 DUP3 DUP2 MLOAD DUP2 LT PUSH2 0x1FA JUMPI PUSH2 0x1F9 PUSH2 0x5DB JUMP JUMPDEST JUMPDEST PUSH1 0x20 MUL PUSH1 0x20 ADD ADD DUP2 DUP2 MSTORE POP POP DUP3 DUP1 PUSH2 0x211 SWAP1 PUSH2 0x608 JUMP JUMPDEST SWAP4 POP POP DUP1 DUP1 PUSH2 0x21F SWAP1 PUSH2 0x608 JUMP JUMPDEST SWAP2 POP POP PUSH2 0x1C3 JUMP JUMPDEST JUMPDEST DUP7 MLOAD DUP3 LT ISZERO PUSH2 0x28C JUMPI DUP7 DUP3 DUP2 MLOAD DUP2 LT PUSH2 0x244 JUMPI PUSH2 0x243 PUSH2 0x5DB JUMP JUMPDEST JUMPDEST PUSH1 0x20 MUL PUSH1 0x20 ADD ADD MLOAD DUP5 DUP3 DUP2 MLOAD DUP2 LT PUSH2 0x25F JUMPI PUSH2 0x25E PUSH2 0x5DB JUMP JUMPDEST JUMPDEST PUSH1 0x20 MUL PUSH1 0x20 ADD ADD DUP2 DUP2 MSTORE POP POP DUP2 DUP1 PUSH2 0x276 SWAP1 PUSH2 0x608 JUMP JUMPDEST SWAP3 POP POP DUP1 DUP1 PUSH2 0x284 SWAP1 PUSH2 0x608 JUMP JUMPDEST SWAP2 POP POP PUSH2 0x228 JUMP JUMPDEST DUP4 SWAP6 POP POP POP POP POP POP SWAP3 SWAP2 POP POP JUMP JUMPDEST PUSH0 PUSH1 0x40 MLOAD SWAP1 POP SWAP1 JUMP JUMPDEST PUSH0 PUSH0 REVERT JUMPDEST PUSH0 PUSH0 REVERT JUMPDEST PUSH0 PUSH0 REVERT JUMPDEST PUSH0 PUSH1 0x1F NOT PUSH1 0x1F DUP4 ADD AND SWAP1 POP SWAP2 SWAP1 POP JUMP JUMPDEST PUSH32 0x4E487B7100000000000000000000000000000000000000000000000000000000 PUSH0 MSTORE PUSH1 0x41 PUSH1 0x4 MSTORE PUSH1 0x24 PUSH0 REVERT JUMPDEST PUSH2 0x2F5 DUP3 PUSH2 0x2AF JUMP JUMPDEST DUP2 ADD DUP2 DUP2 LT PUSH8 0xFFFFFFFFFFFFFFFF DUP3 GT OR ISZERO PUSH2 0x314 JUMPI PUSH2 0x313 PUSH2 0x2BF JUMP JUMPDEST JUMPDEST DUP1 PUSH1 0x40 MSTORE POP POP POP JUMP JUMPDEST PUSH0 PUSH2 0x326 PUSH2 0x29A JUMP JUMPDEST SWAP1 POP PUSH2 0x332 DUP3 DUP3 PUSH2 0x2EC JUMP JUMPDEST SWAP2 SWAP1 POP JUMP JUMPDEST PUSH0 PUSH8 0xFFFFFFFFFFFFFFFF DUP3 GT ISZERO PUSH2 0x351 JUMPI PUSH2 0x350 PUSH2 0x2BF JUMP JUMPDEST JUMPDEST PUSH1 0x20 DUP3 MUL SWAP1 POP PUSH1 0x20 DUP2 ADD SWAP1 POP SWAP2 SWAP1 POP JUMP JUMPDEST PUSH0 PUSH0 REVERT JUMPDEST PUSH0 DUP2 SWAP1 POP SWAP2 SWAP1 POP JUMP JUMPDEST PUSH2 0x378 DUP2 PUSH2 0x366 JUMP JUMPDEST DUP2 EQ PUSH2 0x382 JUMPI PUSH0 PUSH0 REVERT JUMPDEST POP JUMP JUMPDEST PUSH0 DUP2 CALLDATALOAD SWAP1 POP PUSH2 0x393 DUP2 PUSH2 0x36F JUMP JUMPDEST SWAP3 SWAP2 POP POP JUMP JUMPDEST PUSH0 PUSH2 0x3AB PUSH2 0x3A6 DUP5 PUSH2 0x337 JUMP JUMPDEST PUSH2 0x31D JUMP JUMPDEST SWAP1 POP DUP1 DUP4 DUP3 MSTORE PUSH1 0x20 DUP3 ADD SWAP1 POP PUSH1 0x20 DUP5 MUL DUP4 ADD DUP6 DUP2 GT ISZERO PUSH2 0x3CE JUMPI PUSH2 0x3CD PUSH2 0x362 JUMP JUMPDEST JUMPDEST DUP4 JUMPDEST DUP2 DUP2 LT ISZERO PUSH2 0x3F7 JUMPI DUP1 PUSH2 0x3E3 DUP9 DUP3 PUSH2 0x385 JUMP JUMPDEST DUP5 MSTORE PUSH1 0x20 DUP5 ADD SWAP4 POP POP PUSH1 0x20 DUP2 ADD SWAP1 POP PUSH2 0x3D0 JUMP JUMPDEST POP POP POP SWAP4 SWAP3 POP POP POP JUMP JUMPDEST PUSH0 DUP3 PUSH1 0x1F DUP4 ADD SLT PUSH2 0x415 JUMPI PUSH2 0x414 PUSH2 0x2AB JUMP JUMPDEST JUMPDEST DUP2 CALLDATALOAD PUSH2 0x425 DUP5 DUP3 PUSH1 0x20 DUP7 ADD PUSH2 0x399 JUMP JUMPDEST SWAP2 POP POP SWAP3 SWAP2 POP POP JUMP JUMPDEST PUSH0 PUSH0 PUSH1 0x40 DUP4 DUP6 SUB SLT ISZERO PUSH2 0x444 JUMPI PUSH2 0x443 PUSH2 0x2A3 JUMP JUMPDEST JUMPDEST PUSH0 DUP4 ADD CALLDATALOAD PUSH8 0xFFFFFFFFFFFFFFFF DUP2 GT ISZERO PUSH2 0x461 JUMPI PUSH2 0x460 PUSH2 0x2A7 JUMP JUMPDEST JUMPDEST PUSH2 0x46D DUP6 DUP3 DUP7 ADD PUSH2 0x401 JUMP JUMPDEST SWAP3 POP POP PUSH1 0x20 DUP4 ADD CALLDATALOAD PUSH8 0xFFFFFFFFFFFFFFFF DUP2 GT ISZERO PUSH2 0x48E JUMPI PUSH2 0x48D PUSH2 0x2A7 JUMP JUMPDEST JUMPDEST PUSH2 0x49A DUP6 DUP3 DUP7 ADD PUSH2 0x401 JUMP JUMPDEST SWAP2 POP POP SWAP3 POP SWAP3 SWAP1 POP JUMP JUMPDEST PUSH0 DUP2 MLOAD SWAP1 POP SWAP2 SWAP1 POP JUMP JUMPDEST PUSH0 DUP3 DUP3 MSTORE PUSH1 0x20 DUP3 ADD SWAP1 POP SWAP3 SWAP2 POP POP JUMP JUMPDEST PUSH0 DUP2 SWAP1 POP PUSH1 0x20 DUP3 ADD SWAP1 POP SWAP2 SWAP1 POP JUMP JUMPDEST PUSH2 0x4D6 DUP2 PUSH2 0x366 JUMP JUMPDEST DUP3 MSTORE POP POP JUMP JUMPDEST PUSH0 PUSH2 0x4E7 DUP4 DUP4 PUSH2 0x4CD JUMP JUMPDEST PUSH1 0x20 DUP4 ADD SWAP1 POP SWAP3 SWAP2 POP POP JUMP JUMPDEST PUSH0 PUSH1 0x20 DUP3 ADD SWAP1 POP SWAP2 SWAP1 POP JUMP JUMPDEST PUSH0 PUSH2 0x509 DUP3 PUSH2 0x4A4 JUMP JUMPDEST PUSH2 0x513 DUP2 DUP6 PUSH2 0x4AE JUMP JUMPDEST SWAP4 POP PUSH2 0x51E DUP4 PUSH2 0x4BE JUMP JUMPDEST DUP1 PUSH0 JUMPDEST DUP4 DUP2 LT ISZERO PUSH2 0x54E JUMPI DUP2 MLOAD PUSH2 0x535 DUP9 DUP3 PUSH2 0x4DC JUMP JUMPDEST SWAP8 POP PUSH2 0x540 DUP4 PUSH2 0x4F3 JUMP JUMPDEST SWAP3 POP POP PUSH1 0x1 DUP2 ADD SWAP1 POP PUSH2 0x521 JUMP JUMPDEST POP DUP6 SWAP4 POP POP POP POP SWAP3 SWAP2 POP POP JUMP JUMPDEST PUSH0 PUSH1 0x20 DUP3 ADD SWAP1 POP DUP2 DUP2 SUB PUSH0 DUP4 ADD MSTORE PUSH2 0x573 DUP2 DUP5 PUSH2 0x4FF JUMP JUMPDEST SWAP1 POP SWAP3 SWAP2 POP POP JUMP JUMPDEST PUSH32 0x4E487B7100000000000000000000000000000000000000000000000000000000 PUSH0 MSTORE PUSH1 0x11 PUSH1 0x4 MSTORE PUSH1 0x24 PUSH0 REVERT JUMPDEST PUSH0 PUSH2 0x5B2 DUP3 PUSH2 0x366 JUMP JUMPDEST SWAP2 POP PUSH2 0x5BD DUP4 PUSH2 0x366 JUMP JUMPDEST SWAP3 POP DUP3 DUP3 ADD SWAP1 POP DUP1 DUP3 GT ISZERO PUSH2 0x5D5 JUMPI PUSH2 0x5D4 PUSH2 0x57B JUMP JUMPDEST JUMPDEST SWAP3 SWAP2 POP POP JUMP JUMPDEST PUSH32 0x4E487B7100000000000000000000000000000000000000000000000000000000 PUSH0 MSTORE PUSH1 0x32 PUSH1 0x4 MSTORE PUSH1 0x24 PUSH0 REVERT JUMPDEST PUSH0 PUSH2 0x612 DUP3 PUSH2 0x366 JUMP JUMPDEST SWAP2 POP PUSH32 0xFFFFFFFFFFFFFFFFFFFFFFFFFFFFFFFFFFFFFFFFFFFFFFFFFFFFFFFFFFFFFFFF DUP3 SUB PUSH2 0x644 JUMPI PUSH2 0x643 PUSH2 0x57B JUMP JUMPDEST JUMPDEST PUSH1 0x1 DUP3 ADD SWAP1 POP SWAP2 SWAP1 POP JUMP INVALID LOG2 PUSH5 0x6970667358 0x22 SLT KECCAK256 LOG4 0xA5 0xDF SGT 0xC0 PUSH27 0x15030A1A0AB9E84F212E4E3753863FFD5EF4600A60BD32B6E33064 PUSH20 0x6F6C634300081E00330000000000000000000000 "
				},
				"gasEstimates": {
					"creation": {
						"codeDepositCost": "333800",
						"executionCost": "372",
						"totalCost": "334172"
					},
					"external": {
						"mergeSortedArrays(uint256[],uint256[])": "infinite"
					}
				},
				"methodIdentifiers": {
					"mergeSortedArrays(uint256[],uint256[])": "4cf0cc0d"
				}
			},
			"storageLayout": {
				"storage": [],
				"types": null
			},
			"userdoc": {
				"kind": "user",
				"methods": {},
				"version": 1
			}
		}
	}
}