{
	"OtherTopics.sol": {
		"RomanToInt": {
			"abi": [
				{
					"inputs": [],
					"stateMutability": "nonpayable",
					"type": "constructor"
				},
				{
					"inputs": [
						{
							"internalType": "string",
							"name": "_str",
							"type": "string"
						}
					],
					"name": "romanToInt",
					"outputs": [
						{
							"internalType": "uint256",
							"name": "",
							"type": "uint256"
						}
					],
					"stateMutability": "view",
					"type": "function"
				}
			],
			"devdoc": {
				"kind": "dev",
				"methods": {},
				"version": 1
			},
			"evm": {
				"assembly": "    /* \"OtherTopics.sol\":484:1936  contract RomanToInt {... */\n  mstore(0x40, 0x80)\n    /* \"OtherTopics.sol\":561:795  constructor() {... */\n  callvalue\n  dup1\n  iszero\n  tag_1\n  jumpi\n  revert(0x00, 0x00)\ntag_1:\n  pop\n    /* \"OtherTopics.sol\":603:604  1 */\n  0x01\n    /* \"OtherTopics.sol\":586:595  roman_map */\n  0x00\n    /* \"OtherTopics.sol\":586:600  roman_map[\"I\"] */\n  mload(0x40)\n  tag_4\n  swap1\n  tag_5\n  jump\t// in\ntag_4:\n  swap1\n  dup2\n  mstore\n  0x20\n  add\n  mload(0x40)\n  dup1\n  swap2\n  sub\n  swap1\n  keccak256\n    /* \"OtherTopics.sol\":586:604  roman_map[\"I\"] = 1 */\n  dup2\n  swap1\n  sstore\n  pop\n    /* \"OtherTopics.sol\":632:633  5 */\n  0x05\n    /* \"OtherTopics.sol\":615:624  roman_map */\n  0x00\n    /* \"OtherTopics.sol\":615:629  roman_map[\"V\"] */\n  mload(0x40)\n  tag_6\n  swap1\n  tag_7\n  jump\t// in\ntag_6:\n  swap1\n  dup2\n  mstore\n  0x20\n  add\n  mload(0x40)\n  dup1\n  swap2\n  sub\n  swap1\n  keccak256\n    /* \"OtherTopics.sol\":615:633  roman_map[\"V\"] = 5 */\n  dup2\n  swap1\n  sstore\n  pop\n    /* \"OtherTopics.sol\":661:663  10 */\n  0x0a\n    /* \"OtherTopics.sol\":644:653  roman_map */\n  0x00\n    /* \"OtherTopics.sol\":644:658  roman_map[\"X\"] */\n  mload(0x40)\n  tag_8\n  swap1\n  tag_9\n  jump\t// in\ntag_8:\n  swap1\n  dup2\n  mstore\n  0x20\n  add\n  mload(0x40)\n  dup1\n  swap2\n  sub\n  swap1\n  keccak256\n    /* \"OtherTopics.sol\":644:663  roman_map[\"X\"] = 10 */\n  dup2\n  swap1\n  sstore\n  pop\n    /* \"OtherTopics.sol\":691:693  50 */\n  0x32\n    /* \"OtherTopics.sol\":674:683  roman_map */\n  0x00\n    /* \"OtherTopics.sol\":674:688  roman_map[\"L\"] */\n  mload(0x40)\n  tag_10\n  swap1\n  tag_11\n  jump\t// in\ntag_10:\n  swap1\n  dup2\n  mstore\n  0x20\n  add\n  mload(0x40)\n  dup1\n  swap2\n  sub\n  swap1\n  keccak256\n    /* \"OtherTopics.sol\":674:693  roman_map[\"L\"] = 50 */\n  dup2\n  swap1\n  sstore\n  pop\n    /* \"OtherTopics.sol\":721:724  100 */\n  0x64\n    /* \"OtherTopics.sol\":704:713  roman_map */\n  0x00\n    /* \"OtherTopics.sol\":704:718  roman_map[\"C\"] */\n  mload(0x40)\n  tag_12\n  swap1\n  tag_13\n  jump\t// in\ntag_12:\n  swap1\n  dup2\n  mstore\n  0x20\n  add\n  mload(0x40)\n  dup1\n  swap2\n  sub\n  swap1\n  keccak256\n    /* \"OtherTopics.sol\":704:724  roman_map[\"C\"] = 100 */\n  dup2\n  swap1\n  sstore\n  pop\n    /* \"OtherTopics.sol\":752:755  500 */\n  0x01f4\n    /* \"OtherTopics.sol\":735:744  roman_map */\n  0x00\n    /* \"OtherTopics.sol\":735:749  roman_map[\"D\"] */\n  mload(0x40)\n  tag_14\n  swap1\n  tag_15\n  jump\t// in\ntag_14:\n  swap1\n  dup2\n  mstore\n  0x20\n  add\n  mload(0x40)\n  dup1\n  swap2\n  sub\n  swap1\n  keccak256\n    /* \"OtherTopics.sol\":735:755  roman_map[\"D\"] = 500 */\n  dup2\n  swap1\n  sstore\n  pop\n    /* \"OtherTopics.sol\":783:787  1000 */\n  0x03e8\n    /* \"OtherTopics.sol\":766:775  roman_map */\n  0x00\n    /* \"OtherTopics.sol\":766:780  roman_map[\"M\"] */\n  mload(0x40)\n  tag_16\n  swap1\n  tag_17\n  jump\t// in\ntag_16:\n  swap1\n  dup2\n  mstore\n  0x20\n  add\n  mload(0x40)\n  dup1\n  swap2\n  sub\n  swap1\n  keccak256\n    /* \"OtherTopics.sol\":766:787  roman_map[\"M\"] = 1000 */\n  dup2\n  swap1\n  sstore\n  pop\n    /* \"OtherTopics.sol\":484:1936  contract RomanToInt {... */\n  jump(tag_18)\n    /* \"#utility.yul\":7:155   */\ntag_19:\n    /* \"#utility.yul\":109:120   */\n  0x00\n    /* \"#utility.yul\":146:149   */\n  dup2\n    /* \"#utility.yul\":131:149   */\n  swap1\n  pop\n    /* \"#utility.yul\":7:155   */\n  swap3\n  swap2\n  pop\n  pop\n  jump\t// out\n    /* \"#utility.yul\":161:312   */\ntag_20:\n    /* \"#utility.yul\":301:304   */\n  0x4900000000000000000000000000000000000000000000000000000000000000\n    /* \"#utility.yul\":297:298   */\n  0x00\n    /* \"#utility.yul\":289:295   */\n  dup3\n    /* \"#utility.yul\":285:299   */\n  add\n    /* \"#utility.yul\":278:305   */\n  mstore\n    /* \"#utility.yul\":161:312   */\n  pop\n  jump\t// out\n    /* \"#utility.yul\":318:718   */\ntag_21:\n    /* \"#utility.yul\":478:481   */\n  0x00\n    /* \"#utility.yul\":499:583   */\n  tag_38\n    /* \"#utility.yul\":581:582   */\n  0x01\n    /* \"#utility.yul\":576:579   */\n  dup4\n    /* \"#utility.yul\":499:583   */\n  tag_19\n  jump\t// in\ntag_38:\n    /* \"#utility.yul\":492:583   */\n  swap2\n  pop\n    /* \"#utility.yul\":592:685   */\n  tag_39\n    /* \"#utility.yul\":681:684   */\n  dup3\n    /* \"#utility.yul\":592:685   */\n  tag_20\n  jump\t// in\ntag_39:\n    /* \"#utility.yul\":710:711   */\n  0x01\n    /* \"#utility.yul\":705:708   */\n  dup3\n    /* \"#utility.yul\":701:712   */\n  add\n    /* \"#utility.yul\":694:712   */\n  swap1\n  pop\n    /* \"#utility.yul\":318:718   */\n  swap2\n  swap1\n  pop\n  jump\t// out\n    /* \"#utility.yul\":724:1105   */\ntag_5:\n    /* \"#utility.yul\":909:912   */\n  0x00\n    /* \"#utility.yul\":931:1079   */\n  tag_41\n    /* \"#utility.yul\":1075:1078   */\n  dup3\n    /* \"#utility.yul\":931:1079   */\n  tag_21\n  jump\t// in\ntag_41:\n    /* \"#utility.yul\":924:1079   */\n  swap2\n  pop\n    /* \"#utility.yul\":1096:1099   */\n  dup2\n    /* \"#utility.yul\":1089:1099   */\n  swap1\n  pop\n    /* \"#utility.yul\":724:1105   */\n  swap2\n  swap1\n  pop\n  jump\t// out\n    /* \"#utility.yul\":1111:1262   */\ntag_22:\n    /* \"#utility.yul\":1251:1254   */\n  0x5600000000000000000000000000000000000000000000000000000000000000\n    /* \"#utility.yul\":1247:1248   */\n  0x00\n    /* \"#utility.yul\":1239:1245   */\n  dup3\n    /* \"#utility.yul\":1235:1249   */\n  add\n    /* \"#utility.yul\":1228:1255   */\n  mstore\n    /* \"#utility.yul\":1111:1262   */\n  pop\n  jump\t// out\n    /* \"#utility.yul\":1268:1668   */\ntag_23:\n    /* \"#utility.yul\":1428:1431   */\n  0x00\n    /* \"#utility.yul\":1449:1533   */\n  tag_44\n    /* \"#utility.yul\":1531:1532   */\n  0x01\n    /* \"#utility.yul\":1526:1529   */\n  dup4\n    /* \"#utility.yul\":1449:1533   */\n  tag_19\n  jump\t// in\ntag_44:\n    /* \"#utility.yul\":1442:1533   */\n  swap2\n  pop\n    /* \"#utility.yul\":1542:1635   */\n  tag_45\n    /* \"#utility.yul\":1631:1634   */\n  dup3\n    /* \"#utility.yul\":1542:1635   */\n  tag_22\n  jump\t// in\ntag_45:\n    /* \"#utility.yul\":1660:1661   */\n  0x01\n    /* \"#utility.yul\":1655:1658   */\n  dup3\n    /* \"#utility.yul\":1651:1662   */\n  add\n    /* \"#utility.yul\":1644:1662   */\n  swap1\n  pop\n    /* \"#utility.yul\":1268:1668   */\n  swap2\n  swap1\n  pop\n  jump\t// out\n    /* \"#utility.yul\":1674:2055   */\ntag_7:\n    /* \"#utility.yul\":1859:1862   */\n  0x00\n    /* \"#utility.yul\":1881:2029   */\n  tag_47\n    /* \"#utility.yul\":2025:2028   */\n  dup3\n    /* \"#utility.yul\":1881:2029   */\n  tag_23\n  jump\t// in\ntag_47:\n    /* \"#utility.yul\":1874:2029   */\n  swap2\n  pop\n    /* \"#utility.yul\":2046:2049   */\n  dup2\n    /* \"#utility.yul\":2039:2049   */\n  swap1\n  pop\n    /* \"#utility.yul\":1674:2055   */\n  swap2\n  swap1\n  pop\n  jump\t// out\n    /* \"#utility.yul\":2061:2212   */\ntag_24:\n    /* \"#utility.yul\":2201:2204   */\n  0x5800000000000000000000000000000000000000000000000000000000000000\n    /* \"#utility.yul\":2197:2198   */\n  0x00\n    /* \"#utility.yul\":2189:2195   */\n  dup3\n    /* \"#utility.yul\":2185:2199   */\n  add\n    /* \"#utility.yul\":2178:2205   */\n  mstore\n    /* \"#utility.yul\":2061:2212   */\n  pop\n  jump\t// out\n    /* \"#utility.yul\":2218:2618   */\ntag_25:\n    /* \"#utility.yul\":2378:2381   */\n  0x00\n    /* \"#utility.yul\":2399:2483   */\n  tag_50\n    /* \"#utility.yul\":2481:2482   */\n  0x01\n    /* \"#utility.yul\":2476:2479   */\n  dup4\n    /* \"#utility.yul\":2399:2483   */\n  tag_19\n  jump\t// in\ntag_50:\n    /* \"#utility.yul\":2392:2483   */\n  swap2\n  pop\n    /* \"#utility.yul\":2492:2585   */\n  tag_51\n    /* \"#utility.yul\":2581:2584   */\n  dup3\n    /* \"#utility.yul\":2492:2585   */\n  tag_24\n  jump\t// in\ntag_51:\n    /* \"#utility.yul\":2610:2611   */\n  0x01\n    /* \"#utility.yul\":2605:2608   */\n  dup3\n    /* \"#utility.yul\":2601:2612   */\n  add\n    /* \"#utility.yul\":2594:2612   */\n  swap1\n  pop\n    /* \"#utility.yul\":2218:2618   */\n  swap2\n  swap1\n  pop\n  jump\t// out\n    /* \"#utility.yul\":2624:3005   */\ntag_9:\n    /* \"#utility.yul\":2809:2812   */\n  0x00\n    /* \"#utility.yul\":2831:2979   */\n  tag_53\n    /* \"#utility.yul\":2975:2978   */\n  dup3\n    /* \"#utility.yul\":2831:2979   */\n  tag_25\n  jump\t// in\ntag_53:\n    /* \"#utility.yul\":2824:2979   */\n  swap2\n  pop\n    /* \"#utility.yul\":2996:2999   */\n  dup2\n    /* \"#utility.yul\":2989:2999   */\n  swap1\n  pop\n    /* \"#utility.yul\":2624:3005   */\n  swap2\n  swap1\n  pop\n  jump\t// out\n    /* \"#utility.yul\":3011:3162   */\ntag_26:\n    /* \"#utility.yul\":3151:3154   */\n  0x4c00000000000000000000000000000000000000000000000000000000000000\n    /* \"#utility.yul\":3147:3148   */\n  0x00\n    /* \"#utility.yul\":3139:3145   */\n  dup3\n    /* \"#utility.yul\":3135:3149   */\n  add\n    /* \"#utility.yul\":3128:3155   */\n  mstore\n    /* \"#utility.yul\":3011:3162   */\n  pop\n  jump\t// out\n    /* \"#utility.yul\":3168:3568   */\ntag_27:\n    /* \"#utility.yul\":3328:3331   */\n  0x00\n    /* \"#utility.yul\":3349:3433   */\n  tag_56\n    /* \"#utility.yul\":3431:3432   */\n  0x01\n    /* \"#utility.yul\":3426:3429   */\n  dup4\n    /* \"#utility.yul\":3349:3433   */\n  tag_19\n  jump\t// in\ntag_56:\n    /* \"#utility.yul\":3342:3433   */\n  swap2\n  pop\n    /* \"#utility.yul\":3442:3535   */\n  tag_57\n    /* \"#utility.yul\":3531:3534   */\n  dup3\n    /* \"#utility.yul\":3442:3535   */\n  tag_26\n  jump\t// in\ntag_57:\n    /* \"#utility.yul\":3560:3561   */\n  0x01\n    /* \"#utility.yul\":3555:3558   */\n  dup3\n    /* \"#utility.yul\":3551:3562   */\n  add\n    /* \"#utility.yul\":3544:3562   */\n  swap1\n  pop\n    /* \"#utility.yul\":3168:3568   */\n  swap2\n  swap1\n  pop\n  jump\t// out\n    /* \"#utility.yul\":3574:3955   */\ntag_11:\n    /* \"#utility.yul\":3759:3762   */\n  0x00\n    /* \"#utility.yul\":3781:3929   */\n  tag_59\n    /* \"#utility.yul\":3925:3928   */\n  dup3\n    /* \"#utility.yul\":3781:3929   */\n  tag_27\n  jump\t// in\ntag_59:\n    /* \"#utility.yul\":3774:3929   */\n  swap2\n  pop\n    /* \"#utility.yul\":3946:3949   */\n  dup2\n    /* \"#utility.yul\":3939:3949   */\n  swap1\n  pop\n    /* \"#utility.yul\":3574:3955   */\n  swap2\n  swap1\n  pop\n  jump\t// out\n    /* \"#utility.yul\":3961:4112   */\ntag_28:\n    /* \"#utility.yul\":4101:4104   */\n  0x4300000000000000000000000000000000000000000000000000000000000000\n    /* \"#utility.yul\":4097:4098   */\n  0x00\n    /* \"#utility.yul\":4089:4095   */\n  dup3\n    /* \"#utility.yul\":4085:4099   */\n  add\n    /* \"#utility.yul\":4078:4105   */\n  mstore\n    /* \"#utility.yul\":3961:4112   */\n  pop\n  jump\t// out\n    /* \"#utility.yul\":4118:4518   */\ntag_29:\n    /* \"#utility.yul\":4278:4281   */\n  0x00\n    /* \"#utility.yul\":4299:4383   */\n  tag_62\n    /* \"#utility.yul\":4381:4382   */\n  0x01\n    /* \"#utility.yul\":4376:4379   */\n  dup4\n    /* \"#utility.yul\":4299:4383   */\n  tag_19\n  jump\t// in\ntag_62:\n    /* \"#utility.yul\":4292:4383   */\n  swap2\n  pop\n    /* \"#utility.yul\":4392:4485   */\n  tag_63\n    /* \"#utility.yul\":4481:4484   */\n  dup3\n    /* \"#utility.yul\":4392:4485   */\n  tag_28\n  jump\t// in\ntag_63:\n    /* \"#utility.yul\":4510:4511   */\n  0x01\n    /* \"#utility.yul\":4505:4508   */\n  dup3\n    /* \"#utility.yul\":4501:4512   */\n  add\n    /* \"#utility.yul\":4494:4512   */\n  swap1\n  pop\n    /* \"#utility.yul\":4118:4518   */\n  swap2\n  swap1\n  pop\n  jump\t// out\n    /* \"#utility.yul\":4524:4905   */\ntag_13:\n    /* \"#utility.yul\":4709:4712   */\n  0x00\n    /* \"#utility.yul\":4731:4879   */\n  tag_65\n    /* \"#utility.yul\":4875:4878   */\n  dup3\n    /* \"#utility.yul\":4731:4879   */\n  tag_29\n  jump\t// in\ntag_65:\n    /* \"#utility.yul\":4724:4879   */\n  swap2\n  pop\n    /* \"#utility.yul\":4896:4899   */\n  dup2\n    /* \"#utility.yul\":4889:4899   */\n  swap1\n  pop\n    /* \"#utility.yul\":4524:4905   */\n  swap2\n  swap1\n  pop\n  jump\t// out\n    /* \"#utility.yul\":4911:5062   */\ntag_30:\n    /* \"#utility.yul\":5051:5054   */\n  0x4400000000000000000000000000000000000000000000000000000000000000\n    /* \"#utility.yul\":5047:5048   */\n  0x00\n    /* \"#utility.yul\":5039:5045   */\n  dup3\n    /* \"#utility.yul\":5035:5049   */\n  add\n    /* \"#utility.yul\":5028:5055   */\n  mstore\n    /* \"#utility.yul\":4911:5062   */\n  pop\n  jump\t// out\n    /* \"#utility.yul\":5068:5468   */\ntag_31:\n    /* \"#utility.yul\":5228:5231   */\n  0x00\n    /* \"#utility.yul\":5249:5333   */\n  tag_68\n    /* \"#utility.yul\":5331:5332   */\n  0x01\n    /* \"#utility.yul\":5326:5329   */\n  dup4\n    /* \"#utility.yul\":5249:5333   */\n  tag_19\n  jump\t// in\ntag_68:\n    /* \"#utility.yul\":5242:5333   */\n  swap2\n  pop\n    /* \"#utility.yul\":5342:5435   */\n  tag_69\n    /* \"#utility.yul\":5431:5434   */\n  dup3\n    /* \"#utility.yul\":5342:5435   */\n  tag_30\n  jump\t// in\ntag_69:\n    /* \"#utility.yul\":5460:5461   */\n  0x01\n    /* \"#utility.yul\":5455:5458   */\n  dup3\n    /* \"#utility.yul\":5451:5462   */\n  add\n    /* \"#utility.yul\":5444:5462   */\n  swap1\n  pop\n    /* \"#utility.yul\":5068:5468   */\n  swap2\n  swap1\n  pop\n  jump\t// out\n    /* \"#utility.yul\":5474:5855   */\ntag_15:\n    /* \"#utility.yul\":5659:5662   */\n  0x00\n    /* \"#utility.yul\":5681:5829   */\n  tag_71\n    /* \"#utility.yul\":5825:5828   */\n  dup3\n    /* \"#utility.yul\":5681:5829   */\n  tag_31\n  jump\t// in\ntag_71:\n    /* \"#utility.yul\":5674:5829   */\n  swap2\n  pop\n    /* \"#utility.yul\":5846:5849   */\n  dup2\n    /* \"#utility.yul\":5839:5849   */\n  swap1\n  pop\n    /* \"#utility.yul\":5474:5855   */\n  swap2\n  swap1\n  pop\n  jump\t// out\n    /* \"#utility.yul\":5861:6012   */\ntag_32:\n    /* \"#utility.yul\":6001:6004   */\n  0x4d00000000000000000000000000000000000000000000000000000000000000\n    /* \"#utility.yul\":5997:5998   */\n  0x00\n    /* \"#utility.yul\":5989:5995   */\n  dup3\n    /* \"#utility.yul\":5985:5999   */\n  add\n    /* \"#utility.yul\":5978:6005   */\n  mstore\n    /* \"#utility.yul\":5861:6012   */\n  pop\n  jump\t// out\n    /* \"#utility.yul\":6018:6418   */\ntag_33:\n    /* \"#utility.yul\":6178:6181   */\n  0x00\n    /* \"#utility.yul\":6199:6283   */\n  tag_74\n    /* \"#utility.yul\":6281:6282   */\n  0x01\n    /* \"#utility.yul\":6276:6279   */\n  dup4\n    /* \"#utility.yul\":6199:6283   */\n  tag_19\n  jump\t// in\ntag_74:\n    /* \"#utility.yul\":6192:6283   */\n  swap2\n  pop\n    /* \"#utility.yul\":6292:6385   */\n  tag_75\n    /* \"#utility.yul\":6381:6384   */\n  dup3\n    /* \"#utility.yul\":6292:6385   */\n  tag_32\n  jump\t// in\ntag_75:\n    /* \"#utility.yul\":6410:6411   */\n  0x01\n    /* \"#utility.yul\":6405:6408   */\n  dup3\n    /* \"#utility.yul\":6401:6412   */\n  add\n    /* \"#utility.yul\":6394:6412   */\n  swap1\n  pop\n    /* \"#utility.yul\":6018:6418   */\n  swap2\n  swap1\n  pop\n  jump\t// out\n    /* \"#utility.yul\":6424:6805   */\ntag_17:\n    /* \"#utility.yul\":6609:6612   */\n  0x00\n    /* \"#utility.yul\":6631:6779   */\n  tag_77\n    /* \"#utility.yul\":6775:6778   */\n  dup3\n    /* \"#utility.yul\":6631:6779   */\n  tag_33\n  jump\t// in\ntag_77:\n    /* \"#utility.yul\":6624:6779   */\n  swap2\n  pop\n    /* \"#utility.yul\":6796:6799   */\n  dup2\n    /* \"#utility.yul\":6789:6799   */\n  swap1\n  pop\n    /* \"#utility.yul\":6424:6805   */\n  swap2\n  swap1\n  pop\n  jump\t// out\n    /* \"OtherTopics.sol\":484:1936  contract RomanToInt {... */\ntag_18:\n  dataSize(sub_0)\n  dup1\n  dataOffset(sub_0)\n  0x00\n  codecopy\n  0x00\n  return\nstop\n\nsub_0: assembly {\n        /* \"OtherTopics.sol\":484:1936  contract RomanToInt {... */\n      mstore(0x40, 0x80)\n      callvalue\n      dup1\n      iszero\n      tag_1\n      jumpi\n      revert(0x00, 0x00)\n    tag_1:\n      pop\n      jumpi(tag_2, lt(calldatasize, 0x04))\n      shr(0xe0, calldataload(0x00))\n      dup1\n      0xcb159dfe\n      eq\n      tag_3\n      jumpi\n    tag_2:\n      revert(0x00, 0x00)\n        /* \"OtherTopics.sol\":1250:1933  function romanToInt(string memory _str) public view returns (uint) {... */\n    tag_3:\n      tag_4\n      0x04\n      dup1\n      calldatasize\n      sub\n      dup2\n      add\n      swap1\n      tag_5\n      swap2\n      swap1\n      tag_6\n      jump\t// in\n    tag_5:\n      tag_7\n      jump\t// in\n    tag_4:\n      mload(0x40)\n      tag_8\n      swap2\n      swap1\n      tag_9\n      jump\t// in\n    tag_8:\n      mload(0x40)\n      dup1\n      swap2\n      sub\n      swap1\n      return\n    tag_7:\n        /* \"OtherTopics.sol\":1311:1315  uint */\n      0x00\n        /* \"OtherTopics.sol\":1328:1349  bytes memory strBytes */\n      0x00\n        /* \"OtherTopics.sol\":1358:1362  _str */\n      dup3\n        /* \"OtherTopics.sol\":1328:1363  bytes memory strBytes = bytes(_str) */\n      swap1\n      pop\n        /* \"OtherTopics.sol\":1374:1384  uint total */\n      0x00\n        /* \"OtherTopics.sol\":1387:1388  0 */\n      0x00\n        /* \"OtherTopics.sol\":1374:1388  uint total = 0 */\n      swap1\n      pop\n        /* \"OtherTopics.sol\":1399:1405  uint i */\n      0x00\n        /* \"OtherTopics.sol\":1408:1409  0 */\n      0x00\n        /* \"OtherTopics.sol\":1399:1409  uint i = 0 */\n      swap1\n      pop\n        /* \"OtherTopics.sol\":1422:1901  while (i < strBytes.length) {... */\n    tag_11:\n        /* \"OtherTopics.sol\":1433:1441  strBytes */\n      dup3\n        /* \"OtherTopics.sol\":1433:1448  strBytes.length */\n      mload\n        /* \"OtherTopics.sol\":1429:1430  i */\n      dup2\n        /* \"OtherTopics.sol\":1429:1448  i < strBytes.length */\n      lt\n        /* \"OtherTopics.sol\":1422:1901  while (i < strBytes.length) {... */\n      iszero\n      tag_12\n      jumpi\n        /* \"OtherTopics.sol\":1465:1477  uint current */\n      0x00\n        /* \"OtherTopics.sol\":1480:1504  charToValue(strBytes[i]) */\n      tag_13\n        /* \"OtherTopics.sol\":1492:1500  strBytes */\n      dup5\n        /* \"OtherTopics.sol\":1501:1502  i */\n      dup4\n        /* \"OtherTopics.sol\":1492:1503  strBytes[i] */\n      dup2\n      mload\n      dup2\n      lt\n      tag_14\n      jumpi\n      tag_15\n      tag_16\n      jump\t// in\n    tag_15:\n    tag_14:\n      0x20\n      add\n      add\n      mload\n      0xf8\n      shr\n      0xf8\n      shl\n        /* \"OtherTopics.sol\":1480:1491  charToValue */\n      tag_17\n        /* \"OtherTopics.sol\":1480:1504  charToValue(strBytes[i]) */\n      jump\t// in\n    tag_13:\n        /* \"OtherTopics.sol\":1465:1504  uint current = charToValue(strBytes[i]) */\n      swap1\n      pop\n        /* \"OtherTopics.sol\":1519:1528  uint next */\n      0x00\n        /* \"OtherTopics.sol\":1531:1532  0 */\n      0x00\n        /* \"OtherTopics.sol\":1519:1532  uint next = 0 */\n      swap1\n      pop\n        /* \"OtherTopics.sol\":1561:1569  strBytes */\n      dup5\n        /* \"OtherTopics.sol\":1561:1576  strBytes.length */\n      mload\n        /* \"OtherTopics.sol\":1557:1558  1 */\n      0x01\n        /* \"OtherTopics.sol\":1553:1554  i */\n      dup5\n        /* \"OtherTopics.sol\":1553:1558  i + 1 */\n      tag_18\n      swap2\n      swap1\n      tag_19\n      jump\t// in\n    tag_18:\n        /* \"OtherTopics.sol\":1553:1576  i + 1 < strBytes.length */\n      lt\n        /* \"OtherTopics.sol\":1549:1648  if (i + 1 < strBytes.length) {... */\n      iszero\n      tag_20\n      jumpi\n        /* \"OtherTopics.sol\":1604:1632  charToValue(strBytes[i + 1]) */\n      tag_21\n        /* \"OtherTopics.sol\":1616:1624  strBytes */\n      dup6\n        /* \"OtherTopics.sol\":1629:1630  1 */\n      0x01\n        /* \"OtherTopics.sol\":1625:1626  i */\n      dup6\n        /* \"OtherTopics.sol\":1625:1630  i + 1 */\n      tag_22\n      swap2\n      swap1\n      tag_19\n      jump\t// in\n    tag_22:\n        /* \"OtherTopics.sol\":1616:1631  strBytes[i + 1] */\n      dup2\n      mload\n      dup2\n      lt\n      tag_23\n      jumpi\n      tag_24\n      tag_16\n      jump\t// in\n    tag_24:\n    tag_23:\n      0x20\n      add\n      add\n      mload\n      0xf8\n      shr\n      0xf8\n      shl\n        /* \"OtherTopics.sol\":1604:1615  charToValue */\n      tag_17\n        /* \"OtherTopics.sol\":1604:1632  charToValue(strBytes[i + 1]) */\n      jump\t// in\n    tag_21:\n        /* \"OtherTopics.sol\":1597:1632  next = charToValue(strBytes[i + 1]) */\n      swap1\n      pop\n        /* \"OtherTopics.sol\":1549:1648  if (i + 1 < strBytes.length) {... */\n    tag_20:\n        /* \"OtherTopics.sol\":1675:1682  current */\n      dup2\n        /* \"OtherTopics.sol\":1668:1672  next */\n      dup2\n        /* \"OtherTopics.sol\":1668:1682  next > current */\n      gt\n        /* \"OtherTopics.sol\":1664:1890  if (next > current) {... */\n      iszero\n      tag_25\n      jumpi\n        /* \"OtherTopics.sol\":1759:1766  current */\n      dup2\n        /* \"OtherTopics.sol\":1752:1756  next */\n      dup2\n        /* \"OtherTopics.sol\":1752:1766  next - current */\n      tag_26\n      swap2\n      swap1\n      tag_27\n      jump\t// in\n    tag_26:\n        /* \"OtherTopics.sol\":1742:1767  total += (next - current) */\n      dup5\n      tag_28\n      swap2\n      swap1\n      tag_19\n      jump\t// in\n    tag_28:\n      swap4\n      pop\n        /* \"OtherTopics.sol\":1791:1792  2 */\n      0x02\n        /* \"OtherTopics.sol\":1786:1792  i += 2 */\n      dup4\n      tag_29\n      swap2\n      swap1\n      tag_19\n      jump\t// in\n    tag_29:\n      swap3\n      pop\n        /* \"OtherTopics.sol\":1664:1890  if (next > current) {... */\n      jump(tag_30)\n    tag_25:\n        /* \"OtherTopics.sol\":1842:1849  current */\n      dup2\n        /* \"OtherTopics.sol\":1833:1849  total += current */\n      dup5\n      tag_31\n      swap2\n      swap1\n      tag_19\n      jump\t// in\n    tag_31:\n      swap4\n      pop\n        /* \"OtherTopics.sol\":1873:1874  1 */\n      0x01\n        /* \"OtherTopics.sol\":1868:1874  i += 1 */\n      dup4\n      tag_32\n      swap2\n      swap1\n      tag_19\n      jump\t// in\n    tag_32:\n      swap3\n      pop\n        /* \"OtherTopics.sol\":1664:1890  if (next > current) {... */\n    tag_30:\n        /* \"OtherTopics.sol\":1450:1901  {... */\n      pop\n      pop\n        /* \"OtherTopics.sol\":1422:1901  while (i < strBytes.length) {... */\n      jump(tag_11)\n    tag_12:\n        /* \"OtherTopics.sol\":1920:1925  total */\n      dup2\n        /* \"OtherTopics.sol\":1913:1925  return total */\n      swap4\n      pop\n      pop\n      pop\n      pop\n        /* \"OtherTopics.sol\":1250:1933  function romanToInt(string memory _str) public view returns (uint) {... */\n      swap2\n      swap1\n      pop\n      jump\t// out\n        /* \"OtherTopics.sol\":803:1242  function charToValue(bytes1 c) internal view returns (uint) {... */\n    tag_17:\n        /* \"OtherTopics.sol\":857:861  uint */\n      0x00\n        /* \"OtherTopics.sol\":878:886  c == \"I\" */\n      0x4900000000000000000000000000000000000000000000000000000000000000\n        /* \"OtherTopics.sol\":878:879  c */\n      dup3\n        /* \"OtherTopics.sol\":878:886  c == \"I\" */\n      not(0xffffffffffffffffffffffffffffffffffffffffffffffffffffffffffffff)\n      and\n      sub\n        /* \"OtherTopics.sol\":874:909  if (c == \"I\") return roman_map[\"I\"] */\n      tag_34\n      jumpi\n        /* \"OtherTopics.sol\":895:904  roman_map */\n      0x00\n        /* \"OtherTopics.sol\":895:909  roman_map[\"I\"] */\n      mload(0x40)\n      tag_35\n      swap1\n      tag_36\n      jump\t// in\n    tag_35:\n      swap1\n      dup2\n      mstore\n      0x20\n      add\n      mload(0x40)\n      dup1\n      swap2\n      sub\n      swap1\n      keccak256\n      sload\n        /* \"OtherTopics.sol\":888:909  return roman_map[\"I\"] */\n      swap1\n      pop\n      jump(tag_33)\n        /* \"OtherTopics.sol\":874:909  if (c == \"I\") return roman_map[\"I\"] */\n    tag_34:\n        /* \"OtherTopics.sol\":924:932  c == \"V\" */\n      0x5600000000000000000000000000000000000000000000000000000000000000\n        /* \"OtherTopics.sol\":924:925  c */\n      dup3\n        /* \"OtherTopics.sol\":924:932  c == \"V\" */\n      not(0xffffffffffffffffffffffffffffffffffffffffffffffffffffffffffffff)\n      and\n      sub\n        /* \"OtherTopics.sol\":920:955  if (c == \"V\") return roman_map[\"V\"] */\n      tag_37\n      jumpi\n        /* \"OtherTopics.sol\":941:950  roman_map */\n      0x00\n        /* \"OtherTopics.sol\":941:955  roman_map[\"V\"] */\n      mload(0x40)\n      tag_38\n      swap1\n      tag_39\n      jump\t// in\n    tag_38:\n      swap1\n      dup2\n      mstore\n      0x20\n      add\n      mload(0x40)\n      dup1\n      swap2\n      sub\n      swap1\n      keccak256\n      sload\n        /* \"OtherTopics.sol\":934:955  return roman_map[\"V\"] */\n      swap1\n      pop\n      jump(tag_33)\n        /* \"OtherTopics.sol\":920:955  if (c == \"V\") return roman_map[\"V\"] */\n    tag_37:\n        /* \"OtherTopics.sol\":970:978  c == \"X\" */\n      0x5800000000000000000000000000000000000000000000000000000000000000\n        /* \"OtherTopics.sol\":970:971  c */\n      dup3\n        /* \"OtherTopics.sol\":970:978  c == \"X\" */\n      not(0xffffffffffffffffffffffffffffffffffffffffffffffffffffffffffffff)\n      and\n      sub\n        /* \"OtherTopics.sol\":966:1001  if (c == \"X\") return roman_map[\"X\"] */\n      tag_40\n      jumpi\n        /* \"OtherTopics.sol\":987:996  roman_map */\n      0x00\n        /* \"OtherTopics.sol\":987:1001  roman_map[\"X\"] */\n      mload(0x40)\n      tag_41\n      swap1\n      tag_42\n      jump\t// in\n    tag_41:\n      swap1\n      dup2\n      mstore\n      0x20\n      add\n      mload(0x40)\n      dup1\n      swap2\n      sub\n      swap1\n      keccak256\n      sload\n        /* \"OtherTopics.sol\":980:1001  return roman_map[\"X\"] */\n      swap1\n      pop\n      jump(tag_33)\n        /* \"OtherTopics.sol\":966:1001  if (c == \"X\") return roman_map[\"X\"] */\n    tag_40:\n        /* \"OtherTopics.sol\":1016:1024  c == \"L\" */\n      0x4c00000000000000000000000000000000000000000000000000000000000000\n        /* \"OtherTopics.sol\":1016:1017  c */\n      dup3\n        /* \"OtherTopics.sol\":1016:1024  c == \"L\" */\n      not(0xffffffffffffffffffffffffffffffffffffffffffffffffffffffffffffff)\n      and\n      sub\n        /* \"OtherTopics.sol\":1012:1047  if (c == \"L\") return roman_map[\"L\"] */\n      tag_43\n      jumpi\n        /* \"OtherTopics.sol\":1033:1042  roman_map */\n      0x00\n        /* \"OtherTopics.sol\":1033:1047  roman_map[\"L\"] */\n      mload(0x40)\n      tag_44\n      swap1\n      tag_45\n      jump\t// in\n    tag_44:\n      swap1\n      dup2\n      mstore\n      0x20\n      add\n      mload(0x40)\n      dup1\n      swap2\n      sub\n      swap1\n      keccak256\n      sload\n        /* \"OtherTopics.sol\":1026:1047  return roman_map[\"L\"] */\n      swap1\n      pop\n      jump(tag_33)\n        /* \"OtherTopics.sol\":1012:1047  if (c == \"L\") return roman_map[\"L\"] */\n    tag_43:\n        /* \"OtherTopics.sol\":1062:1070  c == \"C\" */\n      0x4300000000000000000000000000000000000000000000000000000000000000\n        /* \"OtherTopics.sol\":1062:1063  c */\n      dup3\n        /* \"OtherTopics.sol\":1062:1070  c == \"C\" */\n      not(0xffffffffffffffffffffffffffffffffffffffffffffffffffffffffffffff)\n      and\n      sub\n        /* \"OtherTopics.sol\":1058:1093  if (c == \"C\") return roman_map[\"C\"] */\n      tag_46\n      jumpi\n        /* \"OtherTopics.sol\":1079:1088  roman_map */\n      0x00\n        /* \"OtherTopics.sol\":1079:1093  roman_map[\"C\"] */\n      mload(0x40)\n      tag_47\n      swap1\n      tag_48\n      jump\t// in\n    tag_47:\n      swap1\n      dup2\n      mstore\n      0x20\n      add\n      mload(0x40)\n      dup1\n      swap2\n      sub\n      swap1\n      keccak256\n      sload\n        /* \"OtherTopics.sol\":1072:1093  return roman_map[\"C\"] */\n      swap1\n      pop\n      jump(tag_33)\n        /* \"OtherTopics.sol\":1058:1093  if (c == \"C\") return roman_map[\"C\"] */\n    tag_46:\n        /* \"OtherTopics.sol\":1108:1116  c == \"D\" */\n      0x4400000000000000000000000000000000000000000000000000000000000000\n        /* \"OtherTopics.sol\":1108:1109  c */\n      dup3\n        /* \"OtherTopics.sol\":1108:1116  c == \"D\" */\n      not(0xffffffffffffffffffffffffffffffffffffffffffffffffffffffffffffff)\n      and\n      sub\n        /* \"OtherTopics.sol\":1104:1139  if (c == \"D\") return roman_map[\"D\"] */\n      tag_49\n      jumpi\n        /* \"OtherTopics.sol\":1125:1134  roman_map */\n      0x00\n        /* \"OtherTopics.sol\":1125:1139  roman_map[\"D\"] */\n      mload(0x40)\n      tag_50\n      swap1\n      tag_51\n      jump\t// in\n    tag_50:\n      swap1\n      dup2\n      mstore\n      0x20\n      add\n      mload(0x40)\n      dup1\n      swap2\n      sub\n      swap1\n      keccak256\n      sload\n        /* \"OtherTopics.sol\":1118:1139  return roman_map[\"D\"] */\n      swap1\n      pop\n      jump(tag_33)\n        /* \"OtherTopics.sol\":1104:1139  if (c == \"D\") return roman_map[\"D\"] */\n    tag_49:\n        /* \"OtherTopics.sol\":1154:1162  c == \"M\" */\n      0x4d00000000000000000000000000000000000000000000000000000000000000\n        /* \"OtherTopics.sol\":1154:1155  c */\n      dup3\n        /* \"OtherTopics.sol\":1154:1162  c == \"M\" */\n      not(0xffffffffffffffffffffffffffffffffffffffffffffffffffffffffffffff)\n      and\n      sub\n        /* \"OtherTopics.sol\":1150:1185  if (c == \"M\") return roman_map[\"M\"] */\n      tag_52\n      jumpi\n        /* \"OtherTopics.sol\":1171:1180  roman_map */\n      0x00\n        /* \"OtherTopics.sol\":1171:1185  roman_map[\"M\"] */\n      mload(0x40)\n      tag_53\n      swap1\n      tag_54\n      jump\t// in\n    tag_53:\n      swap1\n      dup2\n      mstore\n      0x20\n      add\n      mload(0x40)\n      dup1\n      swap2\n      sub\n      swap1\n      keccak256\n      sload\n        /* \"OtherTopics.sol\":1164:1185  return roman_map[\"M\"] */\n      swap1\n      pop\n      jump(tag_33)\n        /* \"OtherTopics.sol\":1150:1185  if (c == \"M\") return roman_map[\"M\"] */\n    tag_52:\n        /* \"OtherTopics.sol\":1196:1234  revert(unicode\"无效的罗马数字\") */\n      mload(0x40)\n      0x08c379a000000000000000000000000000000000000000000000000000000000\n      dup2\n      mstore\n      0x04\n      add\n      tag_55\n      swap1\n      tag_56\n      jump\t// in\n    tag_55:\n      mload(0x40)\n      dup1\n      swap2\n      sub\n      swap1\n      revert\n        /* \"OtherTopics.sol\":803:1242  function charToValue(bytes1 c) internal view returns (uint) {... */\n    tag_33:\n      swap2\n      swap1\n      pop\n      jump\t// out\n        /* \"#utility.yul\":7:82   */\n    tag_57:\n        /* \"#utility.yul\":40:46   */\n      0x00\n        /* \"#utility.yul\":73:75   */\n      0x40\n        /* \"#utility.yul\":67:76   */\n      mload\n        /* \"#utility.yul\":57:76   */\n      swap1\n      pop\n        /* \"#utility.yul\":7:82   */\n      swap1\n      jump\t// out\n        /* \"#utility.yul\":88:205   */\n    tag_58:\n        /* \"#utility.yul\":197:198   */\n      0x00\n        /* \"#utility.yul\":194:195   */\n      0x00\n        /* \"#utility.yul\":187:199   */\n      revert\n        /* \"#utility.yul\":211:328   */\n    tag_59:\n        /* \"#utility.yul\":320:321   */\n      0x00\n        /* \"#utility.yul\":317:318   */\n      0x00\n        /* \"#utility.yul\":310:322   */\n      revert\n        /* \"#utility.yul\":334:451   */\n    tag_60:\n        /* \"#utility.yul\":443:444   */\n      0x00\n        /* \"#utility.yul\":440:441   */\n      0x00\n        /* \"#utility.yul\":433:445   */\n      revert\n        /* \"#utility.yul\":457:574   */\n    tag_61:\n        /* \"#utility.yul\":566:567   */\n      0x00\n        /* \"#utility.yul\":563:564   */\n      0x00\n        /* \"#utility.yul\":556:568   */\n      revert\n        /* \"#utility.yul\":580:682   */\n    tag_62:\n        /* \"#utility.yul\":621:627   */\n      0x00\n        /* \"#utility.yul\":672:674   */\n      0x1f\n        /* \"#utility.yul\":668:675   */\n      not\n        /* \"#utility.yul\":663:665   */\n      0x1f\n        /* \"#utility.yul\":656:661   */\n      dup4\n        /* \"#utility.yul\":652:666   */\n      add\n        /* \"#utility.yul\":648:676   */\n      and\n        /* \"#utility.yul\":638:676   */\n      swap1\n      pop\n        /* \"#utility.yul\":580:682   */\n      swap2\n      swap1\n      pop\n      jump\t// out\n        /* \"#utility.yul\":688:868   */\n    tag_63:\n        /* \"#utility.yul\":736:813   */\n      0x4e487b7100000000000000000000000000000000000000000000000000000000\n        /* \"#utility.yul\":733:734   */\n      0x00\n        /* \"#utility.yul\":726:814   */\n      mstore\n        /* \"#utility.yul\":833:837   */\n      0x41\n        /* \"#utility.yul\":830:831   */\n      0x04\n        /* \"#utility.yul\":823:838   */\n      mstore\n        /* \"#utility.yul\":857:861   */\n      0x24\n        /* \"#utility.yul\":854:855   */\n      0x00\n        /* \"#utility.yul\":847:862   */\n      revert\n        /* \"#utility.yul\":874:1155   */\n    tag_64:\n        /* \"#utility.yul\":957:984   */\n      tag_100\n        /* \"#utility.yul\":979:983   */\n      dup3\n        /* \"#utility.yul\":957:984   */\n      tag_62\n      jump\t// in\n    tag_100:\n        /* \"#utility.yul\":949:955   */\n      dup2\n        /* \"#utility.yul\":945:985   */\n      add\n        /* \"#utility.yul\":1087:1093   */\n      dup2\n        /* \"#utility.yul\":1075:1085   */\n      dup2\n        /* \"#utility.yul\":1072:1094   */\n      lt\n        /* \"#utility.yul\":1051:1069   */\n      0xffffffffffffffff\n        /* \"#utility.yul\":1039:1049   */\n      dup3\n        /* \"#utility.yul\":1036:1070   */\n      gt\n        /* \"#utility.yul\":1033:1095   */\n      or\n        /* \"#utility.yul\":1030:1118   */\n      iszero\n      tag_101\n      jumpi\n        /* \"#utility.yul\":1098:1116   */\n      tag_102\n      tag_63\n      jump\t// in\n    tag_102:\n        /* \"#utility.yul\":1030:1118   */\n    tag_101:\n        /* \"#utility.yul\":1138:1148   */\n      dup1\n        /* \"#utility.yul\":1134:1136   */\n      0x40\n        /* \"#utility.yul\":1127:1149   */\n      mstore\n        /* \"#utility.yul\":917:1155   */\n      pop\n        /* \"#utility.yul\":874:1155   */\n      pop\n      pop\n      jump\t// out\n        /* \"#utility.yul\":1161:1290   */\n    tag_65:\n        /* \"#utility.yul\":1195:1201   */\n      0x00\n        /* \"#utility.yul\":1222:1242   */\n      tag_104\n      tag_57\n      jump\t// in\n    tag_104:\n        /* \"#utility.yul\":1212:1242   */\n      swap1\n      pop\n        /* \"#utility.yul\":1251:1284   */\n      tag_105\n        /* \"#utility.yul\":1279:1283   */\n      dup3\n        /* \"#utility.yul\":1271:1277   */\n      dup3\n        /* \"#utility.yul\":1251:1284   */\n      tag_64\n      jump\t// in\n    tag_105:\n        /* \"#utility.yul\":1161:1290   */\n      swap2\n      swap1\n      pop\n      jump\t// out\n        /* \"#utility.yul\":1296:1604   */\n    tag_66:\n        /* \"#utility.yul\":1358:1362   */\n      0x00\n        /* \"#utility.yul\":1448:1466   */\n      0xffffffffffffffff\n        /* \"#utility.yul\":1440:1446   */\n      dup3\n        /* \"#utility.yul\":1437:1467   */\n      gt\n        /* \"#utility.yul\":1434:1490   */\n      iszero\n      tag_107\n      jumpi\n        /* \"#utility.yul\":1470:1488   */\n      tag_108\n      tag_63\n      jump\t// in\n    tag_108:\n        /* \"#utility.yul\":1434:1490   */\n    tag_107:\n        /* \"#utility.yul\":1508:1537   */\n      tag_109\n        /* \"#utility.yul\":1530:1536   */\n      dup3\n        /* \"#utility.yul\":1508:1537   */\n      tag_62\n      jump\t// in\n    tag_109:\n        /* \"#utility.yul\":1500:1537   */\n      swap1\n      pop\n        /* \"#utility.yul\":1592:1596   */\n      0x20\n        /* \"#utility.yul\":1586:1590   */\n      dup2\n        /* \"#utility.yul\":1582:1597   */\n      add\n        /* \"#utility.yul\":1574:1597   */\n      swap1\n      pop\n        /* \"#utility.yul\":1296:1604   */\n      swap2\n      swap1\n      pop\n      jump\t// out\n        /* \"#utility.yul\":1610:1758   */\n    tag_67:\n        /* \"#utility.yul\":1708:1714   */\n      dup3\n        /* \"#utility.yul\":1703:1706   */\n      dup2\n        /* \"#utility.yul\":1698:1701   */\n      dup4\n        /* \"#utility.yul\":1685:1715   */\n      calldatacopy\n        /* \"#utility.yul\":1749:1750   */\n      0x00\n        /* \"#utility.yul\":1740:1746   */\n      dup4\n        /* \"#utility.yul\":1735:1738   */\n      dup4\n        /* \"#utility.yul\":1731:1747   */\n      add\n        /* \"#utility.yul\":1724:1751   */\n      mstore\n        /* \"#utility.yul\":1610:1758   */\n      pop\n      pop\n      pop\n      jump\t// out\n        /* \"#utility.yul\":1764:2189   */\n    tag_68:\n        /* \"#utility.yul\":1842:1847   */\n      0x00\n        /* \"#utility.yul\":1867:1933   */\n      tag_112\n        /* \"#utility.yul\":1883:1932   */\n      tag_113\n        /* \"#utility.yul\":1925:1931   */\n      dup5\n        /* \"#utility.yul\":1883:1932   */\n      tag_66\n      jump\t// in\n    tag_113:\n        /* \"#utility.yul\":1867:1933   */\n      tag_65\n      jump\t// in\n    tag_112:\n        /* \"#utility.yul\":1858:1933   */\n      swap1\n      pop\n        /* \"#utility.yul\":1956:1962   */\n      dup3\n        /* \"#utility.yul\":1949:1954   */\n      dup2\n        /* \"#utility.yul\":1942:1963   */\n      mstore\n        /* \"#utility.yul\":1994:1998   */\n      0x20\n        /* \"#utility.yul\":1987:1992   */\n      dup2\n        /* \"#utility.yul\":1983:1999   */\n      add\n        /* \"#utility.yul\":2032:2035   */\n      dup5\n        /* \"#utility.yul\":2023:2029   */\n      dup5\n        /* \"#utility.yul\":2018:2021   */\n      dup5\n        /* \"#utility.yul\":2014:2030   */\n      add\n        /* \"#utility.yul\":2011:2036   */\n      gt\n        /* \"#utility.yul\":2008:2120   */\n      iszero\n      tag_114\n      jumpi\n        /* \"#utility.yul\":2039:2118   */\n      tag_115\n      tag_61\n      jump\t// in\n    tag_115:\n        /* \"#utility.yul\":2008:2120   */\n    tag_114:\n        /* \"#utility.yul\":2129:2183   */\n      tag_116\n        /* \"#utility.yul\":2176:2182   */\n      dup5\n        /* \"#utility.yul\":2171:2174   */\n      dup3\n        /* \"#utility.yul\":2166:2169   */\n      dup6\n        /* \"#utility.yul\":2129:2183   */\n      tag_67\n      jump\t// in\n    tag_116:\n        /* \"#utility.yul\":1848:2189   */\n      pop\n        /* \"#utility.yul\":1764:2189   */\n      swap4\n      swap3\n      pop\n      pop\n      pop\n      jump\t// out\n        /* \"#utility.yul\":2209:2549   */\n    tag_69:\n        /* \"#utility.yul\":2265:2270   */\n      0x00\n        /* \"#utility.yul\":2314:2317   */\n      dup3\n        /* \"#utility.yul\":2307:2311   */\n      0x1f\n        /* \"#utility.yul\":2299:2305   */\n      dup4\n        /* \"#utility.yul\":2295:2312   */\n      add\n        /* \"#utility.yul\":2291:2318   */\n      slt\n        /* \"#utility.yul\":2281:2403   */\n      tag_118\n      jumpi\n        /* \"#utility.yul\":2322:2401   */\n      tag_119\n      tag_60\n      jump\t// in\n    tag_119:\n        /* \"#utility.yul\":2281:2403   */\n    tag_118:\n        /* \"#utility.yul\":2439:2445   */\n      dup2\n        /* \"#utility.yul\":2426:2446   */\n      calldataload\n        /* \"#utility.yul\":2464:2543   */\n      tag_120\n        /* \"#utility.yul\":2539:2542   */\n      dup5\n        /* \"#utility.yul\":2531:2537   */\n      dup3\n        /* \"#utility.yul\":2524:2528   */\n      0x20\n        /* \"#utility.yul\":2516:2522   */\n      dup7\n        /* \"#utility.yul\":2512:2529   */\n      add\n        /* \"#utility.yul\":2464:2543   */\n      tag_68\n      jump\t// in\n    tag_120:\n        /* \"#utility.yul\":2455:2543   */\n      swap2\n      pop\n        /* \"#utility.yul\":2271:2549   */\n      pop\n        /* \"#utility.yul\":2209:2549   */\n      swap3\n      swap2\n      pop\n      pop\n      jump\t// out\n        /* \"#utility.yul\":2555:3064   */\n    tag_6:\n        /* \"#utility.yul\":2624:2630   */\n      0x00\n        /* \"#utility.yul\":2673:2675   */\n      0x20\n        /* \"#utility.yul\":2661:2670   */\n      dup3\n        /* \"#utility.yul\":2652:2659   */\n      dup5\n        /* \"#utility.yul\":2648:2671   */\n      sub\n        /* \"#utility.yul\":2644:2676   */\n      slt\n        /* \"#utility.yul\":2641:2760   */\n      iszero\n      tag_122\n      jumpi\n        /* \"#utility.yul\":2679:2758   */\n      tag_123\n      tag_58\n      jump\t// in\n    tag_123:\n        /* \"#utility.yul\":2641:2760   */\n    tag_122:\n        /* \"#utility.yul\":2827:2828   */\n      0x00\n        /* \"#utility.yul\":2816:2825   */\n      dup3\n        /* \"#utility.yul\":2812:2829   */\n      add\n        /* \"#utility.yul\":2799:2830   */\n      calldataload\n        /* \"#utility.yul\":2857:2875   */\n      0xffffffffffffffff\n        /* \"#utility.yul\":2849:2855   */\n      dup2\n        /* \"#utility.yul\":2846:2876   */\n      gt\n        /* \"#utility.yul\":2843:2960   */\n      iszero\n      tag_124\n      jumpi\n        /* \"#utility.yul\":2879:2958   */\n      tag_125\n      tag_59\n      jump\t// in\n    tag_125:\n        /* \"#utility.yul\":2843:2960   */\n    tag_124:\n        /* \"#utility.yul\":2984:3047   */\n      tag_126\n        /* \"#utility.yul\":3039:3046   */\n      dup5\n        /* \"#utility.yul\":3030:3036   */\n      dup3\n        /* \"#utility.yul\":3019:3028   */\n      dup6\n        /* \"#utility.yul\":3015:3037   */\n      add\n        /* \"#utility.yul\":2984:3047   */\n      tag_69\n      jump\t// in\n    tag_126:\n        /* \"#utility.yul\":2974:3047   */\n      swap2\n      pop\n        /* \"#utility.yul\":2770:3057   */\n      pop\n        /* \"#utility.yul\":2555:3064   */\n      swap3\n      swap2\n      pop\n      pop\n      jump\t// out\n        /* \"#utility.yul\":3070:3147   */\n    tag_70:\n        /* \"#utility.yul\":3107:3114   */\n      0x00\n        /* \"#utility.yul\":3136:3141   */\n      dup2\n        /* \"#utility.yul\":3125:3141   */\n      swap1\n      pop\n        /* \"#utility.yul\":3070:3147   */\n      swap2\n      swap1\n      pop\n      jump\t// out\n        /* \"#utility.yul\":3153:3271   */\n    tag_71:\n        /* \"#utility.yul\":3240:3264   */\n      tag_129\n        /* \"#utility.yul\":3258:3263   */\n      dup2\n        /* \"#utility.yul\":3240:3264   */\n      tag_70\n      jump\t// in\n    tag_129:\n        /* \"#utility.yul\":3235:3238   */\n      dup3\n        /* \"#utility.yul\":3228:3265   */\n      mstore\n        /* \"#utility.yul\":3153:3271   */\n      pop\n      pop\n      jump\t// out\n        /* \"#utility.yul\":3277:3499   */\n    tag_9:\n        /* \"#utility.yul\":3370:3374   */\n      0x00\n        /* \"#utility.yul\":3408:3410   */\n      0x20\n        /* \"#utility.yul\":3397:3406   */\n      dup3\n        /* \"#utility.yul\":3393:3411   */\n      add\n        /* \"#utility.yul\":3385:3411   */\n      swap1\n      pop\n        /* \"#utility.yul\":3421:3492   */\n      tag_131\n        /* \"#utility.yul\":3489:3490   */\n      0x00\n        /* \"#utility.yul\":3478:3487   */\n      dup4\n        /* \"#utility.yul\":3474:3491   */\n      add\n        /* \"#utility.yul\":3465:3471   */\n      dup5\n        /* \"#utility.yul\":3421:3492   */\n      tag_71\n      jump\t// in\n    tag_131:\n        /* \"#utility.yul\":3277:3499   */\n      swap3\n      swap2\n      pop\n      pop\n      jump\t// out\n        /* \"#utility.yul\":3505:3685   */\n    tag_16:\n        /* \"#utility.yul\":3553:3630   */\n      0x4e487b7100000000000000000000000000000000000000000000000000000000\n        /* \"#utility.yul\":3550:3551   */\n      0x00\n        /* \"#utility.yul\":3543:3631   */\n      mstore\n        /* \"#utility.yul\":3650:3654   */\n      0x32\n        /* \"#utility.yul\":3647:3648   */\n      0x04\n        /* \"#utility.yul\":3640:3655   */\n      mstore\n        /* \"#utility.yul\":3674:3678   */\n      0x24\n        /* \"#utility.yul\":3671:3672   */\n      0x00\n        /* \"#utility.yul\":3664:3679   */\n      revert\n        /* \"#utility.yul\":3691:3871   */\n    tag_72:\n        /* \"#utility.yul\":3739:3816   */\n      0x4e487b7100000000000000000000000000000000000000000000000000000000\n        /* \"#utility.yul\":3736:3737   */\n      0x00\n        /* \"#utility.yul\":3729:3817   */\n      mstore\n        /* \"#utility.yul\":3836:3840   */\n      0x11\n        /* \"#utility.yul\":3833:3834   */\n      0x04\n        /* \"#utility.yul\":3826:3841   */\n      mstore\n        /* \"#utility.yul\":3860:3864   */\n      0x24\n        /* \"#utility.yul\":3857:3858   */\n      0x00\n        /* \"#utility.yul\":3850:3865   */\n      revert\n        /* \"#utility.yul\":3877:4068   */\n    tag_19:\n        /* \"#utility.yul\":3917:3920   */\n      0x00\n        /* \"#utility.yul\":3936:3956   */\n      tag_135\n        /* \"#utility.yul\":3954:3955   */\n      dup3\n        /* \"#utility.yul\":3936:3956   */\n      tag_70\n      jump\t// in\n    tag_135:\n        /* \"#utility.yul\":3931:3956   */\n      swap2\n      pop\n        /* \"#utility.yul\":3970:3990   */\n      tag_136\n        /* \"#utility.yul\":3988:3989   */\n      dup4\n        /* \"#utility.yul\":3970:3990   */\n      tag_70\n      jump\t// in\n    tag_136:\n        /* \"#utility.yul\":3965:3990   */\n      swap3\n      pop\n        /* \"#utility.yul\":4013:4014   */\n      dup3\n        /* \"#utility.yul\":4010:4011   */\n      dup3\n        /* \"#utility.yul\":4006:4015   */\n      add\n        /* \"#utility.yul\":3999:4015   */\n      swap1\n      pop\n        /* \"#utility.yul\":4034:4037   */\n      dup1\n        /* \"#utility.yul\":4031:4032   */\n      dup3\n        /* \"#utility.yul\":4028:4038   */\n      gt\n        /* \"#utility.yul\":4025:4061   */\n      iszero\n      tag_137\n      jumpi\n        /* \"#utility.yul\":4041:4059   */\n      tag_138\n      tag_72\n      jump\t// in\n    tag_138:\n        /* \"#utility.yul\":4025:4061   */\n    tag_137:\n        /* \"#utility.yul\":3877:4068   */\n      swap3\n      swap2\n      pop\n      pop\n      jump\t// out\n        /* \"#utility.yul\":4074:4268   */\n    tag_27:\n        /* \"#utility.yul\":4114:4118   */\n      0x00\n        /* \"#utility.yul\":4134:4154   */\n      tag_140\n        /* \"#utility.yul\":4152:4153   */\n      dup3\n        /* \"#utility.yul\":4134:4154   */\n      tag_70\n      jump\t// in\n    tag_140:\n        /* \"#utility.yul\":4129:4154   */\n      swap2\n      pop\n        /* \"#utility.yul\":4168:4188   */\n      tag_141\n        /* \"#utility.yul\":4186:4187   */\n      dup4\n        /* \"#utility.yul\":4168:4188   */\n      tag_70\n      jump\t// in\n    tag_141:\n        /* \"#utility.yul\":4163:4188   */\n      swap3\n      pop\n        /* \"#utility.yul\":4212:4213   */\n      dup3\n        /* \"#utility.yul\":4209:4210   */\n      dup3\n        /* \"#utility.yul\":4205:4214   */\n      sub\n        /* \"#utility.yul\":4197:4214   */\n      swap1\n      pop\n        /* \"#utility.yul\":4236:4237   */\n      dup2\n        /* \"#utility.yul\":4230:4234   */\n      dup2\n        /* \"#utility.yul\":4227:4238   */\n      gt\n        /* \"#utility.yul\":4224:4261   */\n      iszero\n      tag_142\n      jumpi\n        /* \"#utility.yul\":4241:4259   */\n      tag_143\n      tag_72\n      jump\t// in\n    tag_143:\n        /* \"#utility.yul\":4224:4261   */\n    tag_142:\n        /* \"#utility.yul\":4074:4268   */\n      swap3\n      swap2\n      pop\n      pop\n      jump\t// out\n        /* \"#utility.yul\":4274:4422   */\n    tag_73:\n        /* \"#utility.yul\":4376:4387   */\n      0x00\n        /* \"#utility.yul\":4413:4416   */\n      dup2\n        /* \"#utility.yul\":4398:4416   */\n      swap1\n      pop\n        /* \"#utility.yul\":4274:4422   */\n      swap3\n      swap2\n      pop\n      pop\n      jump\t// out\n        /* \"#utility.yul\":4428:4579   */\n    tag_74:\n        /* \"#utility.yul\":4568:4571   */\n      0x4900000000000000000000000000000000000000000000000000000000000000\n        /* \"#utility.yul\":4564:4565   */\n      0x00\n        /* \"#utility.yul\":4556:4562   */\n      dup3\n        /* \"#utility.yul\":4552:4566   */\n      add\n        /* \"#utility.yul\":4545:4572   */\n      mstore\n        /* \"#utility.yul\":4428:4579   */\n      pop\n      jump\t// out\n        /* \"#utility.yul\":4585:4985   */\n    tag_75:\n        /* \"#utility.yul\":4745:4748   */\n      0x00\n        /* \"#utility.yul\":4766:4850   */\n      tag_147\n        /* \"#utility.yul\":4848:4849   */\n      0x01\n        /* \"#utility.yul\":4843:4846   */\n      dup4\n        /* \"#utility.yul\":4766:4850   */\n      tag_73\n      jump\t// in\n    tag_147:\n        /* \"#utility.yul\":4759:4850   */\n      swap2\n      pop\n        /* \"#utility.yul\":4859:4952   */\n      tag_148\n        /* \"#utility.yul\":4948:4951   */\n      dup3\n        /* \"#utility.yul\":4859:4952   */\n      tag_74\n      jump\t// in\n    tag_148:\n        /* \"#utility.yul\":4977:4978   */\n      0x01\n        /* \"#utility.yul\":4972:4975   */\n      dup3\n        /* \"#utility.yul\":4968:4979   */\n      add\n        /* \"#utility.yul\":4961:4979   */\n      swap1\n      pop\n        /* \"#utility.yul\":4585:4985   */\n      swap2\n      swap1\n      pop\n      jump\t// out\n        /* \"#utility.yul\":4991:5372   */\n    tag_36:\n        /* \"#utility.yul\":5176:5179   */\n      0x00\n        /* \"#utility.yul\":5198:5346   */\n      tag_150\n        /* \"#utility.yul\":5342:5345   */\n      dup3\n        /* \"#utility.yul\":5198:5346   */\n      tag_75\n      jump\t// in\n    tag_150:\n        /* \"#utility.yul\":5191:5346   */\n      swap2\n      pop\n        /* \"#utility.yul\":5363:5366   */\n      dup2\n        /* \"#utility.yul\":5356:5366   */\n      swap1\n      pop\n        /* \"#utility.yul\":4991:5372   */\n      swap2\n      swap1\n      pop\n      jump\t// out\n        /* \"#utility.yul\":5378:5529   */\n    tag_76:\n        /* \"#utility.yul\":5518:5521   */\n      0x5600000000000000000000000000000000000000000000000000000000000000\n        /* \"#utility.yul\":5514:5515   */\n      0x00\n        /* \"#utility.yul\":5506:5512   */\n      dup3\n        /* \"#utility.yul\":5502:5516   */\n      add\n        /* \"#utility.yul\":5495:5522   */\n      mstore\n        /* \"#utility.yul\":5378:5529   */\n      pop\n      jump\t// out\n        /* \"#utility.yul\":5535:5935   */\n    tag_77:\n        /* \"#utility.yul\":5695:5698   */\n      0x00\n        /* \"#utility.yul\":5716:5800   */\n      tag_153\n        /* \"#utility.yul\":5798:5799   */\n      0x01\n        /* \"#utility.yul\":5793:5796   */\n      dup4\n        /* \"#utility.yul\":5716:5800   */\n      tag_73\n      jump\t// in\n    tag_153:\n        /* \"#utility.yul\":5709:5800   */\n      swap2\n      pop\n        /* \"#utility.yul\":5809:5902   */\n      tag_154\n        /* \"#utility.yul\":5898:5901   */\n      dup3\n        /* \"#utility.yul\":5809:5902   */\n      tag_76\n      jump\t// in\n    tag_154:\n        /* \"#utility.yul\":5927:5928   */\n      0x01\n        /* \"#utility.yul\":5922:5925   */\n      dup3\n        /* \"#utility.yul\":5918:5929   */\n      add\n        /* \"#utility.yul\":5911:5929   */\n      swap1\n      pop\n        /* \"#utility.yul\":5535:5935   */\n      swap2\n      swap1\n      pop\n      jump\t// out\n        /* \"#utility.yul\":5941:6322   */\n    tag_39:\n        /* \"#utility.yul\":6126:6129   */\n      0x00\n        /* \"#utility.yul\":6148:6296   */\n      tag_156\n        /* \"#utility.yul\":6292:6295   */\n      dup3\n        /* \"#utility.yul\":6148:6296   */\n      tag_77\n      jump\t// in\n    tag_156:\n        /* \"#utility.yul\":6141:6296   */\n      swap2\n      pop\n        /* \"#utility.yul\":6313:6316   */\n      dup2\n        /* \"#utility.yul\":6306:6316   */\n      swap1\n      pop\n        /* \"#utility.yul\":5941:6322   */\n      swap2\n      swap1\n      pop\n      jump\t// out\n        /* \"#utility.yul\":6328:6479   */\n    tag_78:\n        /* \"#utility.yul\":6468:6471   */\n      0x5800000000000000000000000000000000000000000000000000000000000000\n        /* \"#utility.yul\":6464:6465   */\n      0x00\n        /* \"#utility.yul\":6456:6462   */\n      dup3\n        /* \"#utility.yul\":6452:6466   */\n      add\n        /* \"#utility.yul\":6445:6472   */\n      mstore\n        /* \"#utility.yul\":6328:6479   */\n      pop\n      jump\t// out\n        /* \"#utility.yul\":6485:6885   */\n    tag_79:\n        /* \"#utility.yul\":6645:6648   */\n      0x00\n        /* \"#utility.yul\":6666:6750   */\n      tag_159\n        /* \"#utility.yul\":6748:6749   */\n      0x01\n        /* \"#utility.yul\":6743:6746   */\n      dup4\n        /* \"#utility.yul\":6666:6750   */\n      tag_73\n      jump\t// in\n    tag_159:\n        /* \"#utility.yul\":6659:6750   */\n      swap2\n      pop\n        /* \"#utility.yul\":6759:6852   */\n      tag_160\n        /* \"#utility.yul\":6848:6851   */\n      dup3\n        /* \"#utility.yul\":6759:6852   */\n      tag_78\n      jump\t// in\n    tag_160:\n        /* \"#utility.yul\":6877:6878   */\n      0x01\n        /* \"#utility.yul\":6872:6875   */\n      dup3\n        /* \"#utility.yul\":6868:6879   */\n      add\n        /* \"#utility.yul\":6861:6879   */\n      swap1\n      pop\n        /* \"#utility.yul\":6485:6885   */\n      swap2\n      swap1\n      pop\n      jump\t// out\n        /* \"#utility.yul\":6891:7272   */\n    tag_42:\n        /* \"#utility.yul\":7076:7079   */\n      0x00\n        /* \"#utility.yul\":7098:7246   */\n      tag_162\n        /* \"#utility.yul\":7242:7245   */\n      dup3\n        /* \"#utility.yul\":7098:7246   */\n      tag_79\n      jump\t// in\n    tag_162:\n        /* \"#utility.yul\":7091:7246   */\n      swap2\n      pop\n        /* \"#utility.yul\":7263:7266   */\n      dup2\n        /* \"#utility.yul\":7256:7266   */\n      swap1\n      pop\n        /* \"#utility.yul\":6891:7272   */\n      swap2\n      swap1\n      pop\n      jump\t// out\n        /* \"#utility.yul\":7278:7429   */\n    tag_80:\n        /* \"#utility.yul\":7418:7421   */\n      0x4c00000000000000000000000000000000000000000000000000000000000000\n        /* \"#utility.yul\":7414:7415   */\n      0x00\n        /* \"#utility.yul\":7406:7412   */\n      dup3\n        /* \"#utility.yul\":7402:7416   */\n      add\n        /* \"#utility.yul\":7395:7422   */\n      mstore\n        /* \"#utility.yul\":7278:7429   */\n      pop\n      jump\t// out\n        /* \"#utility.yul\":7435:7835   */\n    tag_81:\n        /* \"#utility.yul\":7595:7598   */\n      0x00\n        /* \"#utility.yul\":7616:7700   */\n      tag_165\n        /* \"#utility.yul\":7698:7699   */\n      0x01\n        /* \"#utility.yul\":7693:7696   */\n      dup4\n        /* \"#utility.yul\":7616:7700   */\n      tag_73\n      jump\t// in\n    tag_165:\n        /* \"#utility.yul\":7609:7700   */\n      swap2\n      pop\n        /* \"#utility.yul\":7709:7802   */\n      tag_166\n        /* \"#utility.yul\":7798:7801   */\n      dup3\n        /* \"#utility.yul\":7709:7802   */\n      tag_80\n      jump\t// in\n    tag_166:\n        /* \"#utility.yul\":7827:7828   */\n      0x01\n        /* \"#utility.yul\":7822:7825   */\n      dup3\n        /* \"#utility.yul\":7818:7829   */\n      add\n        /* \"#utility.yul\":7811:7829   */\n      swap1\n      pop\n        /* \"#utility.yul\":7435:7835   */\n      swap2\n      swap1\n      pop\n      jump\t// out\n        /* \"#utility.yul\":7841:8222   */\n    tag_45:\n        /* \"#utility.yul\":8026:8029   */\n      0x00\n        /* \"#utility.yul\":8048:8196   */\n      tag_168\n        /* \"#utility.yul\":8192:8195   */\n      dup3\n        /* \"#utility.yul\":8048:8196   */\n      tag_81\n      jump\t// in\n    tag_168:\n        /* \"#utility.yul\":8041:8196   */\n      swap2\n      pop\n        /* \"#utility.yul\":8213:8216   */\n      dup2\n        /* \"#utility.yul\":8206:8216   */\n      swap1\n      pop\n        /* \"#utility.yul\":7841:8222   */\n      swap2\n      swap1\n      pop\n      jump\t// out\n        /* \"#utility.yul\":8228:8379   */\n    tag_82:\n        /* \"#utility.yul\":8368:8371   */\n      0x4300000000000000000000000000000000000000000000000000000000000000\n        /* \"#utility.yul\":8364:8365   */\n      0x00\n        /* \"#utility.yul\":8356:8362   */\n      dup3\n        /* \"#utility.yul\":8352:8366   */\n      add\n        /* \"#utility.yul\":8345:8372   */\n      mstore\n        /* \"#utility.yul\":8228:8379   */\n      pop\n      jump\t// out\n        /* \"#utility.yul\":8385:8785   */\n    tag_83:\n        /* \"#utility.yul\":8545:8548   */\n      0x00\n        /* \"#utility.yul\":8566:8650   */\n      tag_171\n        /* \"#utility.yul\":8648:8649   */\n      0x01\n        /* \"#utility.yul\":8643:8646   */\n      dup4\n        /* \"#utility.yul\":8566:8650   */\n      tag_73\n      jump\t// in\n    tag_171:\n        /* \"#utility.yul\":8559:8650   */\n      swap2\n      pop\n        /* \"#utility.yul\":8659:8752   */\n      tag_172\n        /* \"#utility.yul\":8748:8751   */\n      dup3\n        /* \"#utility.yul\":8659:8752   */\n      tag_82\n      jump\t// in\n    tag_172:\n        /* \"#utility.yul\":8777:8778   */\n      0x01\n        /* \"#utility.yul\":8772:8775   */\n      dup3\n        /* \"#utility.yul\":8768:8779   */\n      add\n        /* \"#utility.yul\":8761:8779   */\n      swap1\n      pop\n        /* \"#utility.yul\":8385:8785   */\n      swap2\n      swap1\n      pop\n      jump\t// out\n        /* \"#utility.yul\":8791:9172   */\n    tag_48:\n        /* \"#utility.yul\":8976:8979   */\n      0x00\n        /* \"#utility.yul\":8998:9146   */\n      tag_174\n        /* \"#utility.yul\":9142:9145   */\n      dup3\n        /* \"#utility.yul\":8998:9146   */\n      tag_83\n      jump\t// in\n    tag_174:\n        /* \"#utility.yul\":8991:9146   */\n      swap2\n      pop\n        /* \"#utility.yul\":9163:9166   */\n      dup2\n        /* \"#utility.yul\":9156:9166   */\n      swap1\n      pop\n        /* \"#utility.yul\":8791:9172   */\n      swap2\n      swap1\n      pop\n      jump\t// out\n        /* \"#utility.yul\":9178:9329   */\n    tag_84:\n        /* \"#utility.yul\":9318:9321   */\n      0x4400000000000000000000000000000000000000000000000000000000000000\n        /* \"#utility.yul\":9314:9315   */\n      0x00\n        /* \"#utility.yul\":9306:9312   */\n      dup3\n        /* \"#utility.yul\":9302:9316   */\n      add\n        /* \"#utility.yul\":9295:9322   */\n      mstore\n        /* \"#utility.yul\":9178:9329   */\n      pop\n      jump\t// out\n        /* \"#utility.yul\":9335:9735   */\n    tag_85:\n        /* \"#utility.yul\":9495:9498   */\n      0x00\n        /* \"#utility.yul\":9516:9600   */\n      tag_177\n        /* \"#utility.yul\":9598:9599   */\n      0x01\n        /* \"#utility.yul\":9593:9596   */\n      dup4\n        /* \"#utility.yul\":9516:9600   */\n      tag_73\n      jump\t// in\n    tag_177:\n        /* \"#utility.yul\":9509:9600   */\n      swap2\n      pop\n        /* \"#utility.yul\":9609:9702   */\n      tag_178\n        /* \"#utility.yul\":9698:9701   */\n      dup3\n        /* \"#utility.yul\":9609:9702   */\n      tag_84\n      jump\t// in\n    tag_178:\n        /* \"#utility.yul\":9727:9728   */\n      0x01\n        /* \"#utility.yul\":9722:9725   */\n      dup3\n        /* \"#utility.yul\":9718:9729   */\n      add\n        /* \"#utility.yul\":9711:9729   */\n      swap1\n      pop\n        /* \"#utility.yul\":9335:9735   */\n      swap2\n      swap1\n      pop\n      jump\t// out\n        /* \"#utility.yul\":9741:10122   */\n    tag_51:\n        /* \"#utility.yul\":9926:9929   */\n      0x00\n        /* \"#utility.yul\":9948:10096   */\n      tag_180\n        /* \"#utility.yul\":10092:10095   */\n      dup3\n        /* \"#utility.yul\":9948:10096   */\n      tag_85\n      jump\t// in\n    tag_180:\n        /* \"#utility.yul\":9941:10096   */\n      swap2\n      pop\n        /* \"#utility.yul\":10113:10116   */\n      dup2\n        /* \"#utility.yul\":10106:10116   */\n      swap1\n      pop\n        /* \"#utility.yul\":9741:10122   */\n      swap2\n      swap1\n      pop\n      jump\t// out\n        /* \"#utility.yul\":10128:10279   */\n    tag_86:\n        /* \"#utility.yul\":10268:10271   */\n      0x4d00000000000000000000000000000000000000000000000000000000000000\n        /* \"#utility.yul\":10264:10265   */\n      0x00\n        /* \"#utility.yul\":10256:10262   */\n      dup3\n        /* \"#utility.yul\":10252:10266   */\n      add\n        /* \"#utility.yul\":10245:10272   */\n      mstore\n        /* \"#utility.yul\":10128:10279   */\n      pop\n      jump\t// out\n        /* \"#utility.yul\":10285:10685   */\n    tag_87:\n        /* \"#utility.yul\":10445:10448   */\n      0x00\n        /* \"#utility.yul\":10466:10550   */\n      tag_183\n        /* \"#utility.yul\":10548:10549   */\n      0x01\n        /* \"#utility.yul\":10543:10546   */\n      dup4\n        /* \"#utility.yul\":10466:10550   */\n      tag_73\n      jump\t// in\n    tag_183:\n        /* \"#utility.yul\":10459:10550   */\n      swap2\n      pop\n        /* \"#utility.yul\":10559:10652   */\n      tag_184\n        /* \"#utility.yul\":10648:10651   */\n      dup3\n        /* \"#utility.yul\":10559:10652   */\n      tag_86\n      jump\t// in\n    tag_184:\n        /* \"#utility.yul\":10677:10678   */\n      0x01\n        /* \"#utility.yul\":10672:10675   */\n      dup3\n        /* \"#utility.yul\":10668:10679   */\n      add\n        /* \"#utility.yul\":10661:10679   */\n      swap1\n      pop\n        /* \"#utility.yul\":10285:10685   */\n      swap2\n      swap1\n      pop\n      jump\t// out\n        /* \"#utility.yul\":10691:11072   */\n    tag_54:\n        /* \"#utility.yul\":10876:10879   */\n      0x00\n        /* \"#utility.yul\":10898:11046   */\n      tag_186\n        /* \"#utility.yul\":11042:11045   */\n      dup3\n        /* \"#utility.yul\":10898:11046   */\n      tag_87\n      jump\t// in\n    tag_186:\n        /* \"#utility.yul\":10891:11046   */\n      swap2\n      pop\n        /* \"#utility.yul\":11063:11066   */\n      dup2\n        /* \"#utility.yul\":11056:11066   */\n      swap1\n      pop\n        /* \"#utility.yul\":10691:11072   */\n      swap2\n      swap1\n      pop\n      jump\t// out\n        /* \"#utility.yul\":11078:11247   */\n    tag_88:\n        /* \"#utility.yul\":11162:11173   */\n      0x00\n        /* \"#utility.yul\":11196:11202   */\n      dup3\n        /* \"#utility.yul\":11191:11194   */\n      dup3\n        /* \"#utility.yul\":11184:11203   */\n      mstore\n        /* \"#utility.yul\":11236:11240   */\n      0x20\n        /* \"#utility.yul\":11231:11234   */\n      dup3\n        /* \"#utility.yul\":11227:11241   */\n      add\n        /* \"#utility.yul\":11212:11241   */\n      swap1\n      pop\n        /* \"#utility.yul\":11078:11247   */\n      swap3\n      swap2\n      pop\n      pop\n      jump\t// out\n        /* \"#utility.yul\":11253:11467   */\n    tag_89:\n        /* \"#utility.yul\":11393:11459   */\n      0xe697a0e69588e79a84e7bd97e9a9ace695b0e5ad970000000000000000000000\n        /* \"#utility.yul\":11389:11390   */\n      0x00\n        /* \"#utility.yul\":11381:11387   */\n      dup3\n        /* \"#utility.yul\":11377:11391   */\n      add\n        /* \"#utility.yul\":11370:11460   */\n      mstore\n        /* \"#utility.yul\":11253:11467   */\n      pop\n      jump\t// out\n        /* \"#utility.yul\":11473:11839   */\n    tag_90:\n        /* \"#utility.yul\":11615:11618   */\n      0x00\n        /* \"#utility.yul\":11636:11703   */\n      tag_190\n        /* \"#utility.yul\":11700:11702   */\n      0x15\n        /* \"#utility.yul\":11695:11698   */\n      dup4\n        /* \"#utility.yul\":11636:11703   */\n      tag_88\n      jump\t// in\n    tag_190:\n        /* \"#utility.yul\":11629:11703   */\n      swap2\n      pop\n        /* \"#utility.yul\":11712:11805   */\n      tag_191\n        /* \"#utility.yul\":11801:11804   */\n      dup3\n        /* \"#utility.yul\":11712:11805   */\n      tag_89\n      jump\t// in\n    tag_191:\n        /* \"#utility.yul\":11830:11832   */\n      0x20\n        /* \"#utility.yul\":11825:11828   */\n      dup3\n        /* \"#utility.yul\":11821:11833   */\n      add\n        /* \"#utility.yul\":11814:11833   */\n      swap1\n      pop\n        /* \"#utility.yul\":11473:11839   */\n      swap2\n      swap1\n      pop\n      jump\t// out\n        /* \"#utility.yul\":11845:12264   */\n    tag_56:\n        /* \"#utility.yul\":12011:12015   */\n      0x00\n        /* \"#utility.yul\":12049:12051   */\n      0x20\n        /* \"#utility.yul\":12038:12047   */\n      dup3\n        /* \"#utility.yul\":12034:12052   */\n      add\n        /* \"#utility.yul\":12026:12052   */\n      swap1\n      pop\n        /* \"#utility.yul\":12098:12107   */\n      dup2\n        /* \"#utility.yul\":12092:12096   */\n      dup2\n        /* \"#utility.yul\":12088:12108   */\n      sub\n        /* \"#utility.yul\":12084:12085   */\n      0x00\n        /* \"#utility.yul\":12073:12082   */\n      dup4\n        /* \"#utility.yul\":12069:12086   */\n      add\n        /* \"#utility.yul\":12062:12109   */\n      mstore\n        /* \"#utility.yul\":12126:12257   */\n      tag_193\n        /* \"#utility.yul\":12252:12256   */\n      dup2\n        /* \"#utility.yul\":12126:12257   */\n      tag_90\n      jump\t// in\n    tag_193:\n        /* \"#utility.yul\":12118:12257   */\n      swap1\n      pop\n        /* \"#utility.yul\":11845:12264   */\n      swap2\n      swap1\n      pop\n      jump\t// out\n\n    auxdata: 0xa264697066735822122069f6165698c799f9ea6576673e2162160b0648661b0dee71ae745e06c70e3c8d64736f6c634300081e0033\n}\n",
				"bytecode": {
					"linkReferences": {},
					"object": "608060405234801561000f575f5ffd5b5060015f60405161001f90610152565b90815260200160405180910390208190555060055f604051610040906101b0565b908152602001604051809103902081905550600a5f6040516100619061020e565b90815260200160405180910390208190555060325f6040516100829061026c565b90815260200160405180910390208190555060645f6040516100a3906102ca565b9081526020016040518091039020819055506101f45f6040516100c590610328565b9081526020016040518091039020819055506103e85f6040516100e790610386565b90815260200160405180910390208190555061039a565b5f81905092915050565b7f49000000000000000000000000000000000000000000000000000000000000005f82015250565b5f61013c6001836100fe565b915061014782610108565b600182019050919050565b5f61015c82610130565b9150819050919050565b7f56000000000000000000000000000000000000000000000000000000000000005f82015250565b5f61019a6001836100fe565b91506101a582610166565b600182019050919050565b5f6101ba8261018e565b9150819050919050565b7f58000000000000000000000000000000000000000000000000000000000000005f82015250565b5f6101f86001836100fe565b9150610203826101c4565b600182019050919050565b5f610218826101ec565b9150819050919050565b7f4c000000000000000000000000000000000000000000000000000000000000005f82015250565b5f6102566001836100fe565b915061026182610222565b600182019050919050565b5f6102768261024a565b9150819050919050565b7f43000000000000000000000000000000000000000000000000000000000000005f82015250565b5f6102b46001836100fe565b91506102bf82610280565b600182019050919050565b5f6102d4826102a8565b9150819050919050565b7f44000000000000000000000000000000000000000000000000000000000000005f82015250565b5f6103126001836100fe565b915061031d826102de565b600182019050919050565b5f61033282610306565b9150819050919050565b7f4d000000000000000000000000000000000000000000000000000000000000005f82015250565b5f6103706001836100fe565b915061037b8261033c565b600182019050919050565b5f61039082610364565b9150819050919050565b610a54806103a75f395ff3fe608060405234801561000f575f5ffd5b5060043610610029575f3560e01c8063cb159dfe1461002d575b5f5ffd5b610047600480360381019061004291906105d2565b61005d565b6040516100549190610631565b60405180910390f35b5f5f8290505f5f90505f5f90505b8251811015610145575f61009b84838151811061008b5761008a61064a565b5b602001015160f81c60f81b610150565b90505f5f905084516001846100b091906106a4565b10156100eb576100e8856001856100c791906106a4565b815181106100d8576100d761064a565b5b602001015160f81c60f81b610150565b90505b818111156101205781816100ff91906106d7565b8461010a91906106a4565b935060028361011991906106a4565b925061013e565b818461012c91906106a4565b935060018361013b91906106a4565b92505b505061006b565b819350505050919050565b5f7f4900000000000000000000000000000000000000000000000000000000000000827effffffffffffffffffffffffffffffffffffffffffffffffffffffffffffff1916036101bd575f6040516101a79061075e565b9081526020016040518091039020549050610480565b7f5600000000000000000000000000000000000000000000000000000000000000827effffffffffffffffffffffffffffffffffffffffffffffffffffffffffffff191603610229575f604051610213906107bc565b9081526020016040518091039020549050610480565b7f5800000000000000000000000000000000000000000000000000000000000000827effffffffffffffffffffffffffffffffffffffffffffffffffffffffffffff191603610295575f60405161027f9061081a565b9081526020016040518091039020549050610480565b7f4c00000000000000000000000000000000000000000000000000000000000000827effffffffffffffffffffffffffffffffffffffffffffffffffffffffffffff191603610301575f6040516102eb90610878565b9081526020016040518091039020549050610480565b7f4300000000000000000000000000000000000000000000000000000000000000827effffffffffffffffffffffffffffffffffffffffffffffffffffffffffffff19160361036d575f604051610357906108d6565b9081526020016040518091039020549050610480565b7f4400000000000000000000000000000000000000000000000000000000000000827effffffffffffffffffffffffffffffffffffffffffffffffffffffffffffff1916036103d9575f6040516103c390610934565b9081526020016040518091039020549050610480565b7f4d00000000000000000000000000000000000000000000000000000000000000827effffffffffffffffffffffffffffffffffffffffffffffffffffffffffffff191603610445575f60405161042f90610992565b9081526020016040518091039020549050610480565b6040517f08c379a000000000000000000000000000000000000000000000000000000000815260040161047790610a00565b60405180910390fd5b919050565b5f604051905090565b5f5ffd5b5f5ffd5b5f5ffd5b5f5ffd5b5f601f19601f8301169050919050565b7f4e487b71000000000000000000000000000000000000000000000000000000005f52604160045260245ffd5b6104e48261049e565b810181811067ffffffffffffffff82111715610503576105026104ae565b5b80604052505050565b5f610515610485565b905061052182826104db565b919050565b5f67ffffffffffffffff8211156105405761053f6104ae565b5b6105498261049e565b9050602081019050919050565b828183375f83830152505050565b5f61057661057184610526565b61050c565b9050828152602081018484840111156105925761059161049a565b5b61059d848285610556565b509392505050565b5f82601f8301126105b9576105b8610496565b5b81356105c9848260208601610564565b91505092915050565b5f602082840312156105e7576105e661048e565b5b5f82013567ffffffffffffffff81111561060457610603610492565b5b610610848285016105a5565b91505092915050565b5f819050919050565b61062b81610619565b82525050565b5f6020820190506106445f830184610622565b92915050565b7f4e487b71000000000000000000000000000000000000000000000000000000005f52603260045260245ffd5b7f4e487b71000000000000000000000000000000000000000000000000000000005f52601160045260245ffd5b5f6106ae82610619565b91506106b983610619565b92508282019050808211156106d1576106d0610677565b5b92915050565b5f6106e182610619565b91506106ec83610619565b925082820390508181111561070457610703610677565b5b92915050565b5f81905092915050565b7f49000000000000000000000000000000000000000000000000000000000000005f82015250565b5f61074860018361070a565b915061075382610714565b600182019050919050565b5f6107688261073c565b9150819050919050565b7f56000000000000000000000000000000000000000000000000000000000000005f82015250565b5f6107a660018361070a565b91506107b182610772565b600182019050919050565b5f6107c68261079a565b9150819050919050565b7f58000000000000000000000000000000000000000000000000000000000000005f82015250565b5f61080460018361070a565b915061080f826107d0565b600182019050919050565b5f610824826107f8565b9150819050919050565b7f4c000000000000000000000000000000000000000000000000000000000000005f82015250565b5f61086260018361070a565b915061086d8261082e565b600182019050919050565b5f61088282610856565b9150819050919050565b7f43000000000000000000000000000000000000000000000000000000000000005f82015250565b5f6108c060018361070a565b91506108cb8261088c565b600182019050919050565b5f6108e0826108b4565b9150819050919050565b7f44000000000000000000000000000000000000000000000000000000000000005f82015250565b5f61091e60018361070a565b9150610929826108ea565b600182019050919050565b5f61093e82610912565b9150819050919050565b7f4d000000000000000000000000000000000000000000000000000000000000005f82015250565b5f61097c60018361070a565b915061098782610948565b600182019050919050565b5f61099c82610970565b9150819050919050565b5f82825260208201905092915050565b7fe697a0e69588e79a84e7bd97e9a9ace695b0e5ad9700000000000000000000005f82015250565b5f6109ea6015836109a6565b91506109f5826109b6565b602082019050919050565b5f6020820190508181035f830152610a17816109de565b905091905056fea264697066735822122069f6165698c799f9ea6576673e2162160b0648661b0dee71ae745e06c70e3c8d64736f6c634300081e0033",
					"opcodes": "PUSH1 0x80 PUSH1 0x40 MSTORE CALLVALUE DUP1 ISZERO PUSH2 0xF JUMPI PUSH0 PUSH0 REVERT JUMPDEST POP PUSH1 0x1 PUSH0 PUSH1 0x40 MLOAD PUSH2 0x1F SWAP1 PUSH2 0x152 JUMP JUMPDEST SWAP1 DUP2 MSTORE PUSH1 0x20 ADD PUSH1 0x40 MLOAD DUP1 SWAP2 SUB SWAP1 KECCAK256 DUP2 SWAP1 SSTORE POP PUSH1 0x5 PUSH0 PUSH1 0x40 MLOAD PUSH2 0x40 SWAP1 PUSH2 0x1B0 JUMP JUMPDEST SWAP1 DUP2 MSTORE PUSH1 0x20 ADD PUSH1 0x40 MLOAD DUP1 SWAP2 SUB SWAP1 KECCAK256 DUP2 SWAP1 SSTORE POP PUSH1 0xA PUSH0 PUSH1 0x40 MLOAD PUSH2 0x61 SWAP1 PUSH2 0x20E JUMP JUMPDEST SWAP1 DUP2 MSTORE PUSH1 0x20 ADD PUSH1 0x40 MLOAD DUP1 SWAP2 SUB SWAP1 KECCAK256 DUP2 SWAP1 SSTORE POP PUSH1 0x32 PUSH0 PUSH1 0x40 MLOAD PUSH2 0x82 SWAP1 PUSH2 0x26C JUMP JUMPDEST SWAP1 DUP2 MSTORE PUSH1 0x20 ADD PUSH1 0x40 MLOAD DUP1 SWAP2 SUB SWAP1 KECCAK256 DUP2 SWAP1 SSTORE POP PUSH1 0x64 PUSH0 PUSH1 0x40 MLOAD PUSH2 0xA3 SWAP1 PUSH2 0x2CA JUMP JUMPDEST SWAP1 DUP2 MSTORE PUSH1 0x20 ADD PUSH1 0x40 MLOAD DUP1 SWAP2 SUB SWAP1 KECCAK256 DUP2 SWAP1 SSTORE POP PUSH2 0x1F4 PUSH0 PUSH1 0x40 MLOAD PUSH2 0xC5 SWAP1 PUSH2 0x328 JUMP JUMPDEST SWAP1 DUP2 MSTORE PUSH1 0x20 ADD PUSH1 0x40 MLOAD DUP1 SWAP2 SUB SWAP1 KECCAK256 DUP2 SWAP1 SSTORE POP PUSH2 0x3E8 PUSH0 PUSH1 0x40 MLOAD PUSH2 0xE7 SWAP1 PUSH2 0x386 JUMP JUMPDEST SWAP1 DUP2 MSTORE PUSH1 0x20 ADD PUSH1 0x40 MLOAD DUP1 SWAP2 SUB SWAP1 KECCAK256 DUP2 SWAP1 SSTORE POP PUSH2 0x39A JUMP JUMPDEST PUSH0 DUP2 SWAP1 POP SWAP3 SWAP2 POP POP JUMP JUMPDEST PUSH32 0x4900000000000000000000000000000000000000000000000000000000000000 PUSH0 DUP3 ADD MSTORE POP JUMP JUMPDEST PUSH0 PUSH2 0x13C PUSH1 0x1 DUP4 PUSH2 0xFE JUMP JUMPDEST SWAP2 POP PUSH2 0x147 DUP3 PUSH2 0x108 JUMP JUMPDEST PUSH1 0x1 DUP3 ADD SWAP1 POP SWAP2 SWAP1 POP JUMP JUMPDEST PUSH0 PUSH2 0x15C DUP3 PUSH2 0x130 JUMP JUMPDEST SWAP2 POP DUP2 SWAP1 POP SWAP2 SWAP1 POP JUMP JUMPDEST PUSH32 0x5600000000000000000000000000000000000000000000000000000000000000 PUSH0 DUP3 ADD MSTORE POP JUMP JUMPDEST PUSH0 PUSH2 0x19A PUSH1 0x1 DUP4 PUSH2 0xFE JUMP JUMPDEST SWAP2 POP PUSH2 0x1A5 DUP3 PUSH2 0x166 JUMP JUMPDEST PUSH1 0x1 DUP3 ADD SWAP1 POP SWAP2 SWAP1 POP JUMP JUMPDEST PUSH0 PUSH2 0x1BA DUP3 PUSH2 0x18E JUMP JUMPDEST SWAP2 POP DUP2 SWAP1 POP SWAP2 SWAP1 POP JUMP JUMPDEST PUSH32 0x5800000000000000000000000000000000000000000000000000000000000000 PUSH0 DUP3 ADD MSTORE POP JUMP JUMPDEST PUSH0 PUSH2 0x1F8 PUSH1 0x1 DUP4 PUSH2 0xFE JUMP JUMPDEST SWAP2 POP PUSH2 0x203 DUP3 PUSH2 0x1C4 JUMP JUMPDEST PUSH1 0x1 DUP3 ADD SWAP1 POP SWAP2 SWAP1 POP JUMP JUMPDEST PUSH0 PUSH2 0x218 DUP3 PUSH2 0x1EC JUMP JUMPDEST SWAP2 POP DUP2 SWAP1 POP SWAP2 SWAP1 POP JUMP JUMPDEST PUSH32 0x4C00000000000000000000000000000000000000000000000000000000000000 PUSH0 DUP3 ADD MSTORE POP JUMP JUMPDEST PUSH0 PUSH2 0x256 PUSH1 0x1 DUP4 PUSH2 0xFE JUMP JUMPDEST SWAP2 POP PUSH2 0x261 DUP3 PUSH2 0x222 JUMP JUMPDEST PUSH1 0x1 DUP3 ADD SWAP1 POP SWAP2 SWAP1 POP JUMP JUMPDEST PUSH0 PUSH2 0x276 DUP3 PUSH2 0x24A JUMP JUMPDEST SWAP2 POP DUP2 SWAP1 POP SWAP2 SWAP1 POP JUMP JUMPDEST PUSH32 0x4300000000000000000000000000000000000000000000000000000000000000 PUSH0 DUP3 ADD MSTORE POP JUMP JUMPDEST PUSH0 PUSH2 0x2B4 PUSH1 0x1 DUP4 PUSH2 0xFE JUMP JUMPDEST SWAP2 POP PUSH2 0x2BF DUP3 PUSH2 0x280 JUMP JUMPDEST PUSH1 0x1 DUP3 ADD SWAP1 POP SWAP2 SWAP1 POP JUMP JUMPDEST PUSH0 PUSH2 0x2D4 DUP3 PUSH2 0x2A8 JUMP JUMPDEST SWAP2 POP DUP2 SWAP1 POP SWAP2 SWAP1 POP JUMP JUMPDEST PUSH32 0x4400000000000000000000000000000000000000000000000000000000000000 PUSH0 DUP3 ADD MSTORE POP JUMP JUMPDEST PUSH0 PUSH2 0x312 PUSH1 0x1 DUP4 PUSH2 0xFE JUMP JUMPDEST SWAP2 POP PUSH2 0x31D DUP3 PUSH2 0x2DE JUMP JUMPDEST PUSH1 0x1 DUP3 ADD SWAP1 POP SWAP2 SWAP1 POP JUMP JUMPDEST PUSH0 PUSH2 0x332 DUP3 PUSH2 0x306 JUMP JUMPDEST SWAP2 POP DUP2 SWAP1 POP SWAP2 SWAP1 POP JUMP JUMPDEST PUSH32 0x4D00000000000000000000000000000000000000000000000000000000000000 PUSH0 DUP3 ADD MSTORE POP JUMP JUMPDEST PUSH0 PUSH2 0x370 PUSH1 0x1 DUP4 PUSH2 0xFE JUMP JUMPDEST SWAP2 POP PUSH2 0x37B DUP3 PUSH2 0x33C JUMP JUMPDEST PUSH1 0x1 DUP3 ADD SWAP1 POP SWAP2 SWAP1 POP JUMP JUMPDEST PUSH0 PUSH2 0x390 DUP3 PUSH2 0x364 JUMP JUMPDEST SWAP2 POP DUP2 SWAP1 POP SWAP2 SWAP1 POP JUMP JUMPDEST PUSH2 0xA54 DUP1 PUSH2 0x3A7 PUSH0 CODECOPY PUSH0 RETURN INVALID PUSH1 0x80 PUSH1 0x40 MSTORE CALLVALUE DUP1 ISZERO PUSH2 0xF JUMPI PUSH0 PUSH0 REVERT JUMPDEST POP PUSH1 0x4 CALLDATASIZE LT PUSH2 0x29 JUMPI PUSH0 CALLDATALOAD PUSH1 0xE0 SHR DUP1 PUSH4 0xCB159DFE EQ PUSH2 0x2D JUMPI JUMPDEST PUSH0 PUSH0 REVERT JUMPDEST PUSH2 0x47 PUSH1 0x4 DUP1 CALLDATASIZE SUB DUP2 ADD SWAP1 PUSH2 0x42 SWAP2 SWAP1 PUSH2 0x5D2 JUMP JUMPDEST PUSH2 0x5D JUMP JUMPDEST PUSH1 0x40 MLOAD PUSH2 0x54 SWAP2 SWAP1 PUSH2 0x631 JUMP JUMPDEST PUSH1 0x40 MLOAD DUP1 SWAP2 SUB SWAP1 RETURN JUMPDEST PUSH0 PUSH0 DUP3 SWAP1 POP PUSH0 PUSH0 SWAP1 POP PUSH0 PUSH0 SWAP1 POP JUMPDEST DUP3 MLOAD DUP2 LT ISZERO PUSH2 0x145 JUMPI PUSH0 PUSH2 0x9B DUP5 DUP4 DUP2 MLOAD DUP2 LT PUSH2 0x8B JUMPI PUSH2 0x8A PUSH2 0x64A JUMP JUMPDEST JUMPDEST PUSH1 0x20 ADD ADD MLOAD PUSH1 0xF8 SHR PUSH1 0xF8 SHL PUSH2 0x150 JUMP JUMPDEST SWAP1 POP PUSH0 PUSH0 SWAP1 POP DUP5 MLOAD PUSH1 0x1 DUP5 PUSH2 0xB0 SWAP2 SWAP1 PUSH2 0x6A4 JUMP JUMPDEST LT ISZERO PUSH2 0xEB JUMPI PUSH2 0xE8 DUP6 PUSH1 0x1 DUP6 PUSH2 0xC7 SWAP2 SWAP1 PUSH2 0x6A4 JUMP JUMPDEST DUP2 MLOAD DUP2 LT PUSH2 0xD8 JUMPI PUSH2 0xD7 PUSH2 0x64A JUMP JUMPDEST JUMPDEST PUSH1 0x20 ADD ADD MLOAD PUSH1 0xF8 SHR PUSH1 0xF8 SHL PUSH2 0x150 JUMP JUMPDEST SWAP1 POP JUMPDEST DUP2 DUP2 GT ISZERO PUSH2 0x120 JUMPI DUP2 DUP2 PUSH2 0xFF SWAP2 SWAP1 PUSH2 0x6D7 JUMP JUMPDEST DUP5 PUSH2 0x10A SWAP2 SWAP1 PUSH2 0x6A4 JUMP JUMPDEST SWAP4 POP PUSH1 0x2 DUP4 PUSH2 0x119 SWAP2 SWAP1 PUSH2 0x6A4 JUMP JUMPDEST SWAP3 POP PUSH2 0x13E JUMP JUMPDEST DUP2 DUP5 PUSH2 0x12C SWAP2 SWAP1 PUSH2 0x6A4 JUMP JUMPDEST SWAP4 POP PUSH1 0x1 DUP4 PUSH2 0x13B SWAP2 SWAP1 PUSH2 0x6A4 JUMP JUMPDEST SWAP3 POP JUMPDEST POP POP PUSH2 0x6B JUMP JUMPDEST DUP2 SWAP4 POP POP POP POP SWAP2 SWAP1 POP JUMP JUMPDEST PUSH0 PUSH32 0x4900000000000000000000000000000000000000000000000000000000000000 DUP3 PUSH31 0xFFFFFFFFFFFFFFFFFFFFFFFFFFFFFFFFFFFFFFFFFFFFFFFFFFFFFFFFFFFFFF NOT AND SUB PUSH2 0x1BD JUMPI PUSH0 PUSH1 0x40 MLOAD PUSH2 0x1A7 SWAP1 PUSH2 0x75E JUMP JUMPDEST SWAP1 DUP2 MSTORE PUSH1 0x20 ADD PUSH1 0x40 MLOAD DUP1 SWAP2 SUB SWAP1 KECCAK256 SLOAD SWAP1 POP PUSH2 0x480 JUMP JUMPDEST PUSH32 0x5600000000000000000000000000000000000000000000000000000000000000 DUP3 PUSH31 0xFFFFFFFFFFFFFFFFFFFFFFFFFFFFFFFFFFFFFFFFFFFFFFFFFFFFFFFFFFFFFF NOT AND SUB PUSH2 0x229 JUMPI PUSH0 PUSH1 0x40 MLOAD PUSH2 0x213 SWAP1 PUSH2 0x7BC JUMP JUMPDEST SWAP1 DUP2 MSTORE PUSH1 0x20 ADD PUSH1 0x40 MLOAD DUP1 SWAP2 SUB SWAP1 KECCAK256 SLOAD SWAP1 POP PUSH2 0x480 JUMP JUMPDEST PUSH32 0x5800000000000000000000000000000000000000000000000000000000000000 DUP3 PUSH31 0xFFFFFFFFFFFFFFFFFFFFFFFFFFFFFFFFFFFFFFFFFFFFFFFFFFFFFFFFFFFFFF NOT AND SUB PUSH2 0x295 JUMPI PUSH0 PUSH1 0x40 MLOAD PUSH2 0x27F SWAP1 PUSH2 0x81A JUMP JUMPDEST SWAP1 DUP2 MSTORE PUSH1 0x20 ADD PUSH1 0x40 MLOAD DUP1 SWAP2 SUB SWAP1 KECCAK256 SLOAD SWAP1 POP PUSH2 0x480 JUMP JUMPDEST PUSH32 0x4C00000000000000000000000000000000000000000000000000000000000000 DUP3 PUSH31 0xFFFFFFFFFFFFFFFFFFFFFFFFFFFFFFFFFFFFFFFFFFFFFFFFFFFFFFFFFFFFFF NOT AND SUB PUSH2 0x301 JUMPI PUSH0 PUSH1 0x40 MLOAD PUSH2 0x2EB SWAP1 PUSH2 0x878 JUMP JUMPDEST SWAP1 DUP2 MSTORE PUSH1 0x20 ADD PUSH1 0x40 MLOAD DUP1 SWAP2 SUB SWAP1 KECCAK256 SLOAD SWAP1 POP PUSH2 0x480 JUMP JUMPDEST PUSH32 0x4300000000000000000000000000000000000000000000000000000000000000 DUP3 PUSH31 0xFFFFFFFFFFFFFFFFFFFFFFFFFFFFFFFFFFFFFFFFFFFFFFFFFFFFFFFFFFFFFF NOT AND SUB PUSH2 0x36D JUMPI PUSH0 PUSH1 0x40 MLOAD PUSH2 0x357 SWAP1 PUSH2 0x8D6 JUMP JUMPDEST SWAP1 DUP2 MSTORE PUSH1 0x20 ADD PUSH1 0x40 MLOAD DUP1 SWAP2 SUB SWAP1 KECCAK256 SLOAD SWAP1 POP PUSH2 0x480 JUMP JUMPDEST PUSH32 0x4400000000000000000000000000000000000000000000000000000000000000 DUP3 PUSH31 0xFFFFFFFFFFFFFFFFFFFFFFFFFFFFFFFFFFFFFFFFFFFFFFFFFFFFFFFFFFFFFF NOT AND SUB PUSH2 0x3D9 JUMPI PUSH0 PUSH1 0x40 MLOAD PUSH2 0x3C3 SWAP1 PUSH2 0x934 JUMP JUMPDEST SWAP1 DUP2 MSTORE PUSH1 0x20 ADD PUSH1 0x40 MLOAD DUP1 SWAP2 SUB SWAP1 KECCAK256 SLOAD SWAP1 POP PUSH2 0x480 JUMP JUMPDEST PUSH32 0x4D00000000000000000000000000000000000000000000000000000000000000 DUP3 PUSH31 0xFFFFFFFFFFFFFFFFFFFFFFFFFFFFFFFFFFFFFFFFFFFFFFFFFFFFFFFFFFFFFF NOT AND SUB PUSH2 0x445 JUMPI PUSH0 PUSH1 0x40 MLOAD PUSH2 0x42F SWAP1 PUSH2 0x992 JUMP JUMPDEST SWAP1 DUP2 MSTORE PUSH1 0x20 ADD PUSH1 0x40 MLOAD DUP1 SWAP2 SUB SWAP1 KECCAK256 SLOAD SWAP1 POP PUSH2 0x480 JUMP JUMPDEST PUSH1 0x40 MLOAD PUSH32 0x8C379A000000000000000000000000000000000000000000000000000000000 DUP2 MSTORE PUSH1 0x4 ADD PUSH2 0x477 SWAP1 PUSH2 0xA00 JUMP JUMPDEST PUSH1 0x40 MLOAD DUP1 SWAP2 SUB SWAP1 REVERT JUMPDEST SWAP2 SWAP1 POP JUMP JUMPDEST PUSH0 PUSH1 0x40 MLOAD SWAP1 POP SWAP1 JUMP JUMPDEST PUSH0 PUSH0 REVERT JUMPDEST PUSH0 PUSH0 REVERT JUMPDEST PUSH0 PUSH0 REVERT JUMPDEST PUSH0 PUSH0 REVERT JUMPDEST PUSH0 PUSH1 0x1F NOT PUSH1 0x1F DUP4 ADD AND SWAP1 POP SWAP2 SWAP1 POP JUMP JUMPDEST PUSH32 0x4E487B7100000000000000000000000000000000000000000000000000000000 PUSH0 MSTORE PUSH1 0x41 PUSH1 0x4 MSTORE PUSH1 0x24 PUSH0 REVERT JUMPDEST PUSH2 0x4E4 DUP3 PUSH2 0x49E JUMP JUMPDEST DUP2 ADD DUP2 DUP2 LT PUSH8 0xFFFFFFFFFFFFFFFF DUP3 GT OR ISZERO PUSH2 0x503 JUMPI PUSH2 0x502 PUSH2 0x4AE JUMP JUMPDEST JUMPDEST DUP1 PUSH1 0x40 MSTORE POP POP POP JUMP JUMPDEST PUSH0 PUSH2 0x515 PUSH2 0x485 JUMP JUMPDEST SWAP1 POP PUSH2 0x521 DUP3 DUP3 PUSH2 0x4DB JUMP JUMPDEST SWAP2 SWAP1 POP JUMP JUMPDEST PUSH0 PUSH8 0xFFFFFFFFFFFFFFFF DUP3 GT ISZERO PUSH2 0x540 JUMPI PUSH2 0x53F PUSH2 0x4AE JUMP JUMPDEST JUMPDEST PUSH2 0x549 DUP3 PUSH2 0x49E JUMP JUMPDEST SWAP1 POP PUSH1 0x20 DUP2 ADD SWAP1 POP SWAP2 SWAP1 POP JUMP JUMPDEST DUP3 DUP2 DUP4 CALLDATACOPY PUSH0 DUP4 DUP4 ADD MSTORE POP POP POP JUMP JUMPDEST PUSH0 PUSH2 0x576 PUSH2 0x571 DUP5 PUSH2 0x526 JUMP JUMPDEST PUSH2 0x50C JUMP JUMPDEST SWAP1 POP DUP3 DUP2 MSTORE PUSH1 0x20 DUP2 ADD DUP5 DUP5 DUP5 ADD GT ISZERO PUSH2 0x592 JUMPI PUSH2 0x591 PUSH2 0x49A JUMP JUMPDEST JUMPDEST PUSH2 0x59D DUP5 DUP3 DUP6 PUSH2 0x556 JUMP JUMPDEST POP SWAP4 SWAP3 POP POP POP JUMP JUMPDEST PUSH0 DUP3 PUSH1 0x1F DUP4 ADD SLT PUSH2 0x5B9 JUMPI PUSH2 0x5B8 PUSH2 0x496 JUMP JUMPDEST JUMPDEST DUP2 CALLDATALOAD PUSH2 0x5C9 DUP5 DUP3 PUSH1 0x20 DUP7 ADD PUSH2 0x564 JUMP JUMPDEST SWAP2 POP POP SWAP3 SWAP2 POP POP JUMP JUMPDEST PUSH0 PUSH1 0x20 DUP3 DUP5 SUB SLT ISZERO PUSH2 0x5E7 JUMPI PUSH2 0x5E6 PUSH2 0x48E JUMP JUMPDEST JUMPDEST PUSH0 DUP3 ADD CALLDATALOAD PUSH8 0xFFFFFFFFFFFFFFFF DUP2 GT ISZERO PUSH2 0x604 JUMPI PUSH2 0x603 PUSH2 0x492 JUMP JUMPDEST JUMPDEST PUSH2 0x610 DUP5 DUP3 DUP6 ADD PUSH2 0x5A5 JUMP JUMPDEST SWAP2 POP POP SWAP3 SWAP2 POP POP JUMP JUMPDEST PUSH0 DUP2 SWAP1 POP SWAP2 SWAP1 POP JUMP JUMPDEST PUSH2 0x62B DUP2 PUSH2 0x619 JUMP JUMPDEST DUP3 MSTORE POP POP JUMP JUMPDEST PUSH0 PUSH1 0x20 DUP3 ADD SWAP1 POP PUSH2 0x644 PUSH0 DUP4 ADD DUP5 PUSH2 0x622 JUMP JUMPDEST SWAP3 SWAP2 POP POP JUMP JUMPDEST PUSH32 0x4E487B7100000000000000000000000000000000000000000000000000000000 PUSH0 MSTORE PUSH1 0x32 PUSH1 0x4 MSTORE PUSH1 0x24 PUSH0 REVERT JUMPDEST PUSH32 0x4E487B7100000000000000000000000000000000000000000000000000000000 PUSH0 MSTORE PUSH1 0x11 PUSH1 0x4 MSTORE PUSH1 0x24 PUSH0 REVERT JUMPDEST PUSH0 PUSH2 0x6AE DUP3 PUSH2 0x619 JUMP JUMPDEST SWAP2 POP PUSH2 0x6B9 DUP4 PUSH2 0x619 JUMP JUMPDEST SWAP3 POP DUP3 DUP3 ADD SWAP1 POP DUP1 DUP3 GT ISZERO PUSH2 0x6D1 JUMPI PUSH2 0x6D0 PUSH2 0x677 JUMP JUMPDEST JUMPDEST SWAP3 SWAP2 POP POP JUMP JUMPDEST PUSH0 PUSH2 0x6E1 DUP3 PUSH2 0x619 JUMP JUMPDEST SWAP2 POP PUSH2 0x6EC DUP4 PUSH2 0x619 JUMP JUMPDEST SWAP3 POP DUP3 DUP3 SUB SWAP1 POP DUP2 DUP2 GT ISZERO PUSH2 0x704 JUMPI PUSH2 0x703 PUSH2 0x677 JUMP JUMPDEST JUMPDEST SWAP3 SWAP2 POP POP JUMP JUMPDEST PUSH0 DUP2 SWAP1 POP SWAP3 SWAP2 POP POP JUMP JUMPDEST PUSH32 0x4900000000000000000000000000000000000000000000000000000000000000 PUSH0 DUP3 ADD MSTORE POP JUMP JUMPDEST PUSH0 PUSH2 0x748 PUSH1 0x1 DUP4 PUSH2 0x70A JUMP JUMPDEST SWAP2 POP PUSH2 0x753 DUP3 PUSH2 0x714 JUMP JUMPDEST PUSH1 0x1 DUP3 ADD SWAP1 POP SWAP2 SWAP1 POP JUMP JUMPDEST PUSH0 PUSH2 0x768 DUP3 PUSH2 0x73C JUMP JUMPDEST SWAP2 POP DUP2 SWAP1 POP SWAP2 SWAP1 POP JUMP JUMPDEST PUSH32 0x5600000000000000000000000000000000000000000000000000000000000000 PUSH0 DUP3 ADD MSTORE POP JUMP JUMPDEST PUSH0 PUSH2 0x7A6 PUSH1 0x1 DUP4 PUSH2 0x70A JUMP JUMPDEST SWAP2 POP PUSH2 0x7B1 DUP3 PUSH2 0x772 JUMP JUMPDEST PUSH1 0x1 DUP3 ADD SWAP1 POP SWAP2 SWAP1 POP JUMP JUMPDEST PUSH0 PUSH2 0x7C6 DUP3 PUSH2 0x79A JUMP JUMPDEST SWAP2 POP DUP2 SWAP1 POP SWAP2 SWAP1 POP JUMP JUMPDEST PUSH32 0x5800000000000000000000000000000000000000000000000000000000000000 PUSH0 DUP3 ADD MSTORE POP JUMP JUMPDEST PUSH0 PUSH2 0x804 PUSH1 0x1 DUP4 PUSH2 0x70A JUMP JUMPDEST SWAP2 POP PUSH2 0x80F DUP3 PUSH2 0x7D0 JUMP JUMPDEST PUSH1 0x1 DUP3 ADD SWAP1 POP SWAP2 SWAP1 POP JUMP JUMPDEST PUSH0 PUSH2 0x824 DUP3 PUSH2 0x7F8 JUMP JUMPDEST SWAP2 POP DUP2 SWAP1 POP SWAP2 SWAP1 POP JUMP JUMPDEST PUSH32 0x4C00000000000000000000000000000000000000000000000000000000000000 PUSH0 DUP3 ADD MSTORE POP JUMP JUMPDEST PUSH0 PUSH2 0x862 PUSH1 0x1 DUP4 PUSH2 0x70A JUMP JUMPDEST SWAP2 POP PUSH2 0x86D DUP3 PUSH2 0x82E JUMP JUMPDEST PUSH1 0x1 DUP3 ADD SWAP1 POP SWAP2 SWAP1 POP JUMP JUMPDEST PUSH0 PUSH2 0x882 DUP3 PUSH2 0x856 JUMP JUMPDEST SWAP2 POP DUP2 SWAP1 POP SWAP2 SWAP1 POP JUMP JUMPDEST PUSH32 0x4300000000000000000000000000000000000000000000000000000000000000 PUSH0 DUP3 ADD MSTORE POP JUMP JUMPDEST PUSH0 PUSH2 0x8C0 PUSH1 0x1 DUP4 PUSH2 0x70A JUMP JUMPDEST SWAP2 POP PUSH2 0x8CB DUP3 PUSH2 0x88C JUMP JUMPDEST PUSH1 0x1 DUP3 ADD SWAP1 POP SWAP2 SWAP1 POP JUMP JUMPDEST PUSH0 PUSH2 0x8E0 DUP3 PUSH2 0x8B4 JUMP JUMPDEST SWAP2 POP DUP2 SWAP1 POP SWAP2 SWAP1 POP JUMP JUMPDEST PUSH32 0x4400000000000000000000000000000000000000000000000000000000000000 PUSH0 DUP3 ADD MSTORE POP JUMP JUMPDEST PUSH0 PUSH2 0x91E PUSH1 0x1 DUP4 PUSH2 0x70A JUMP JUMPDEST SWAP2 POP PUSH2 0x929 DUP3 PUSH2 0x8EA JUMP JUMPDEST PUSH1 0x1 DUP3 ADD SWAP1 POP SWAP2 SWAP1 POP JUMP JUMPDEST PUSH0 PUSH2 0x93E DUP3 PUSH2 0x912 JUMP JUMPDEST SWAP2 POP DUP2 SWAP1 POP SWAP2 SWAP1 POP JUMP JUMPDEST PUSH32 0x4D00000000000000000000000000000000000000000000000000000000000000 PUSH0 DUP3 ADD MSTORE POP JUMP JUMPDEST PUSH0 PUSH2 0x97C PUSH1 0x1 DUP4 PUSH2 0x70A JUMP JUMPDEST SWAP2 POP PUSH2 0x987 DUP3 PUSH2 0x948 JUMP JUMPDEST PUSH1 0x1 DUP3 ADD SWAP1 POP SWAP2 SWAP1 POP JUMP JUMPDEST PUSH0 PUSH2 0x99C DUP3 PUSH2 0x970 JUMP JUMPDEST SWAP2 POP DUP2 SWAP1 POP SWAP2 SWAP1 POP JUMP JUMPDEST PUSH0 DUP3 DUP3 MSTORE PUSH1 0x20 DUP3 ADD SWAP1 POP SWAP3 SWAP2 POP POP JUMP JUMPDEST PUSH32 0xE697A0E69588E79A84E7BD97E9A9ACE695B0E5AD970000000000000000000000 PUSH0 DUP3 ADD MSTORE POP JUMP JUMPDEST PUSH0 PUSH2 0x9EA PUSH1 0x15 DUP4 PUSH2 0x9A6 JUMP JUMPDEST SWAP2 POP PUSH2 0x9F5 DUP3 PUSH2 0x9B6 JUMP JUMPDEST PUSH1 0x20 DUP3 ADD SWAP1 POP SWAP2 SWAP1 POP JUMP JUMPDEST PUSH0 PUSH1 0x20 DUP3 ADD SWAP1 POP DUP2 DUP2 SUB PUSH0 DUP4 ADD MSTORE PUSH2 0xA17 DUP2 PUSH2 0x9DE JUMP JUMPDEST SWAP1 POP SWAP2 SWAP1 POP JUMP INVALID LOG2 PUSH5 0x6970667358 0x22 SLT KECCAK256 PUSH10 0xF6165698C799F9EA6576 PUSH8 0x3E2162160B064866 SHL 0xD RETURNCONTRACT 0x71 0xAE PUSH21 0x5E06C70E3C8D64736F6C634300081E003300000000 "
				},
				"gasEstimates": {
					"creation": {
						"codeDepositCost": "528800",
						"executionCost": "infinite",
						"totalCost": "infinite"
					},
					"external": {
						"romanToInt(string)": "infinite"
					},
					"internal": {
						"charToValue(bytes1)": "infinite"
					}
				},
				"methodIdentifiers": {
					"romanToInt(string)": "cb159dfe"
				}
			},
			"storageLayout": {
				"storage": [
					{
						"astId": 60,
						"contract": "OtherTopics.sol:RomanToInt",
						"label": "roman_map",
						"offset": 0,
						"slot": "0",
						"type": "t_mapping(t_string_memory_ptr,t_uint256)"
					}
				],
				"types": {
					"t_mapping(t_string_memory_ptr,t_uint256)": {
						"encoding": "mapping",
						"key": "t_string_memory_ptr",
						"label": "mapping(string => uint256)",
						"numberOfBytes": "32",
						"value": "t_uint256"
					},
					"t_string_memory_ptr": {
						"encoding": "bytes",
						"label": "string",
						"numberOfBytes": "32"
					},
					"t_uint256": {
						"encoding": "inplace",
						"label": "uint256",
						"numberOfBytes": "32"
					}
				}
			},
			"userdoc": {
				"kind": "user",
				"methods": {},
				"version": 1
			}
		}
	}
}