{
	"OtherTopics.sol": {
		"IntToRoman": {
			"abi": [
				{
					"inputs": [],
					"stateMutability": "nonpayable",
					"type": "constructor"
				},
				{
					"inputs": [
						{
							"internalType": "uint256",
							"name": "_number",
							"type": "uint256"
						}
					],
					"name": "intToRoman",
					"outputs": [
						{
							"internalType": "string",
							"name": "",
							"type": "string"
						}
					],
					"stateMutability": "view",
					"type": "function"
				}
			],
			"devdoc": {
				"kind": "dev",
				"methods": {},
				"version": 1
			},
			"evm": {
				"assembly": "    /* \"OtherTopics.sol\":1940:3088  contract IntToRoman {... */\n  mstore(0x40, 0x80)\n    /* \"OtherTopics.sol\":2017:2437  constructor() {... */\n  callvalue\n  dup1\n  iszero\n  tag_1\n  jumpi\n  revert(0x00, 0x00)\ntag_1:\n  pop\n    /* \"OtherTopics.sol\":2042:2060  roman_map[1] = \"I\" */\n  mload(0x40)\n  dup1\n  0x40\n  add\n  0x40\n  mstore\n  dup1\n  0x01\n  dup2\n  mstore\n  0x20\n  add\n  0x4900000000000000000000000000000000000000000000000000000000000000\n  dup2\n  mstore\n  pop\n    /* \"OtherTopics.sol\":2042:2051  roman_map */\n  0x00\n    /* \"OtherTopics.sol\":2042:2054  roman_map[1] */\n  0x00\n    /* \"OtherTopics.sol\":2052:2053  1 */\n  0x01\n    /* \"OtherTopics.sol\":2042:2054  roman_map[1] */\n  dup2\n  mstore\n  0x20\n  add\n  swap1\n  dup2\n  mstore\n  0x20\n  add\n  0x00\n  keccak256\n    /* \"OtherTopics.sol\":2042:2060  roman_map[1] = \"I\" */\n  swap1\n  dup2\n  tag_4\n  swap2\n  swap1\n  tag_5\n  jump\t// in\ntag_4:\n  pop\n    /* \"OtherTopics.sol\":2071:2090  roman_map[4] = \"IV\" */\n  mload(0x40)\n  dup1\n  0x40\n  add\n  0x40\n  mstore\n  dup1\n  0x02\n  dup2\n  mstore\n  0x20\n  add\n  0x4956000000000000000000000000000000000000000000000000000000000000\n  dup2\n  mstore\n  pop\n    /* \"OtherTopics.sol\":2071:2080  roman_map */\n  0x00\n    /* \"OtherTopics.sol\":2071:2083  roman_map[4] */\n  0x00\n    /* \"OtherTopics.sol\":2081:2082  4 */\n  0x04\n    /* \"OtherTopics.sol\":2071:2083  roman_map[4] */\n  dup2\n  mstore\n  0x20\n  add\n  swap1\n  dup2\n  mstore\n  0x20\n  add\n  0x00\n  keccak256\n    /* \"OtherTopics.sol\":2071:2090  roman_map[4] = \"IV\" */\n  swap1\n  dup2\n  tag_6\n  swap2\n  swap1\n  tag_5\n  jump\t// in\ntag_6:\n  pop\n    /* \"OtherTopics.sol\":2101:2119  roman_map[5] = \"V\" */\n  mload(0x40)\n  dup1\n  0x40\n  add\n  0x40\n  mstore\n  dup1\n  0x01\n  dup2\n  mstore\n  0x20\n  add\n  0x5600000000000000000000000000000000000000000000000000000000000000\n  dup2\n  mstore\n  pop\n    /* \"OtherTopics.sol\":2101:2110  roman_map */\n  0x00\n    /* \"OtherTopics.sol\":2101:2113  roman_map[5] */\n  0x00\n    /* \"OtherTopics.sol\":2111:2112  5 */\n  0x05\n    /* \"OtherTopics.sol\":2101:2113  roman_map[5] */\n  dup2\n  mstore\n  0x20\n  add\n  swap1\n  dup2\n  mstore\n  0x20\n  add\n  0x00\n  keccak256\n    /* \"OtherTopics.sol\":2101:2119  roman_map[5] = \"V\" */\n  swap1\n  dup2\n  tag_7\n  swap2\n  swap1\n  tag_5\n  jump\t// in\ntag_7:\n  pop\n    /* \"OtherTopics.sol\":2130:2149  roman_map[9] = \"IX\" */\n  mload(0x40)\n  dup1\n  0x40\n  add\n  0x40\n  mstore\n  dup1\n  0x02\n  dup2\n  mstore\n  0x20\n  add\n  0x4958000000000000000000000000000000000000000000000000000000000000\n  dup2\n  mstore\n  pop\n    /* \"OtherTopics.sol\":2130:2139  roman_map */\n  0x00\n    /* \"OtherTopics.sol\":2130:2142  roman_map[9] */\n  0x00\n    /* \"OtherTopics.sol\":2140:2141  9 */\n  0x09\n    /* \"OtherTopics.sol\":2130:2142  roman_map[9] */\n  dup2\n  mstore\n  0x20\n  add\n  swap1\n  dup2\n  mstore\n  0x20\n  add\n  0x00\n  keccak256\n    /* \"OtherTopics.sol\":2130:2149  roman_map[9] = \"IX\" */\n  swap1\n  dup2\n  tag_8\n  swap2\n  swap1\n  tag_5\n  jump\t// in\ntag_8:\n  pop\n    /* \"OtherTopics.sol\":2160:2179  roman_map[10] = \"X\" */\n  mload(0x40)\n  dup1\n  0x40\n  add\n  0x40\n  mstore\n  dup1\n  0x01\n  dup2\n  mstore\n  0x20\n  add\n  0x5800000000000000000000000000000000000000000000000000000000000000\n  dup2\n  mstore\n  pop\n    /* \"OtherTopics.sol\":2160:2169  roman_map */\n  0x00\n    /* \"OtherTopics.sol\":2160:2173  roman_map[10] */\n  0x00\n    /* \"OtherTopics.sol\":2170:2172  10 */\n  0x0a\n    /* \"OtherTopics.sol\":2160:2173  roman_map[10] */\n  dup2\n  mstore\n  0x20\n  add\n  swap1\n  dup2\n  mstore\n  0x20\n  add\n  0x00\n  keccak256\n    /* \"OtherTopics.sol\":2160:2179  roman_map[10] = \"X\" */\n  swap1\n  dup2\n  tag_9\n  swap2\n  swap1\n  tag_5\n  jump\t// in\ntag_9:\n  pop\n    /* \"OtherTopics.sol\":2190:2210  roman_map[40] = \"XL\" */\n  mload(0x40)\n  dup1\n  0x40\n  add\n  0x40\n  mstore\n  dup1\n  0x02\n  dup2\n  mstore\n  0x20\n  add\n  0x584c000000000000000000000000000000000000000000000000000000000000\n  dup2\n  mstore\n  pop\n    /* \"OtherTopics.sol\":2190:2199  roman_map */\n  0x00\n    /* \"OtherTopics.sol\":2190:2203  roman_map[40] */\n  0x00\n    /* \"OtherTopics.sol\":2200:2202  40 */\n  0x28\n    /* \"OtherTopics.sol\":2190:2203  roman_map[40] */\n  dup2\n  mstore\n  0x20\n  add\n  swap1\n  dup2\n  mstore\n  0x20\n  add\n  0x00\n  keccak256\n    /* \"OtherTopics.sol\":2190:2210  roman_map[40] = \"XL\" */\n  swap1\n  dup2\n  tag_10\n  swap2\n  swap1\n  tag_5\n  jump\t// in\ntag_10:\n  pop\n    /* \"OtherTopics.sol\":2221:2240  roman_map[50] = \"L\" */\n  mload(0x40)\n  dup1\n  0x40\n  add\n  0x40\n  mstore\n  dup1\n  0x01\n  dup2\n  mstore\n  0x20\n  add\n  0x4c00000000000000000000000000000000000000000000000000000000000000\n  dup2\n  mstore\n  pop\n    /* \"OtherTopics.sol\":2221:2230  roman_map */\n  0x00\n    /* \"OtherTopics.sol\":2221:2234  roman_map[50] */\n  0x00\n    /* \"OtherTopics.sol\":2231:2233  50 */\n  0x32\n    /* \"OtherTopics.sol\":2221:2234  roman_map[50] */\n  dup2\n  mstore\n  0x20\n  add\n  swap1\n  dup2\n  mstore\n  0x20\n  add\n  0x00\n  keccak256\n    /* \"OtherTopics.sol\":2221:2240  roman_map[50] = \"L\" */\n  swap1\n  dup2\n  tag_11\n  swap2\n  swap1\n  tag_5\n  jump\t// in\ntag_11:\n  pop\n    /* \"OtherTopics.sol\":2251:2271  roman_map[90] = \"XC\" */\n  mload(0x40)\n  dup1\n  0x40\n  add\n  0x40\n  mstore\n  dup1\n  0x02\n  dup2\n  mstore\n  0x20\n  add\n  0x5843000000000000000000000000000000000000000000000000000000000000\n  dup2\n  mstore\n  pop\n    /* \"OtherTopics.sol\":2251:2260  roman_map */\n  0x00\n    /* \"OtherTopics.sol\":2251:2264  roman_map[90] */\n  0x00\n    /* \"OtherTopics.sol\":2261:2263  90 */\n  0x5a\n    /* \"OtherTopics.sol\":2251:2264  roman_map[90] */\n  dup2\n  mstore\n  0x20\n  add\n  swap1\n  dup2\n  mstore\n  0x20\n  add\n  0x00\n  keccak256\n    /* \"OtherTopics.sol\":2251:2271  roman_map[90] = \"XC\" */\n  swap1\n  dup2\n  tag_12\n  swap2\n  swap1\n  tag_5\n  jump\t// in\ntag_12:\n  pop\n    /* \"OtherTopics.sol\":2282:2302  roman_map[100] = \"C\" */\n  mload(0x40)\n  dup1\n  0x40\n  add\n  0x40\n  mstore\n  dup1\n  0x01\n  dup2\n  mstore\n  0x20\n  add\n  0x4300000000000000000000000000000000000000000000000000000000000000\n  dup2\n  mstore\n  pop\n    /* \"OtherTopics.sol\":2282:2291  roman_map */\n  0x00\n    /* \"OtherTopics.sol\":2282:2296  roman_map[100] */\n  0x00\n    /* \"OtherTopics.sol\":2292:2295  100 */\n  0x64\n    /* \"OtherTopics.sol\":2282:2296  roman_map[100] */\n  dup2\n  mstore\n  0x20\n  add\n  swap1\n  dup2\n  mstore\n  0x20\n  add\n  0x00\n  keccak256\n    /* \"OtherTopics.sol\":2282:2302  roman_map[100] = \"C\" */\n  swap1\n  dup2\n  tag_13\n  swap2\n  swap1\n  tag_5\n  jump\t// in\ntag_13:\n  pop\n    /* \"OtherTopics.sol\":2313:2334  roman_map[400] = \"CD\" */\n  mload(0x40)\n  dup1\n  0x40\n  add\n  0x40\n  mstore\n  dup1\n  0x02\n  dup2\n  mstore\n  0x20\n  add\n  0x4344000000000000000000000000000000000000000000000000000000000000\n  dup2\n  mstore\n  pop\n    /* \"OtherTopics.sol\":2313:2322  roman_map */\n  0x00\n    /* \"OtherTopics.sol\":2313:2327  roman_map[400] */\n  0x00\n    /* \"OtherTopics.sol\":2323:2326  400 */\n  0x0190\n    /* \"OtherTopics.sol\":2313:2327  roman_map[400] */\n  dup2\n  mstore\n  0x20\n  add\n  swap1\n  dup2\n  mstore\n  0x20\n  add\n  0x00\n  keccak256\n    /* \"OtherTopics.sol\":2313:2334  roman_map[400] = \"CD\" */\n  swap1\n  dup2\n  tag_14\n  swap2\n  swap1\n  tag_5\n  jump\t// in\ntag_14:\n  pop\n    /* \"OtherTopics.sol\":2345:2365  roman_map[500] = \"D\" */\n  mload(0x40)\n  dup1\n  0x40\n  add\n  0x40\n  mstore\n  dup1\n  0x01\n  dup2\n  mstore\n  0x20\n  add\n  0x4400000000000000000000000000000000000000000000000000000000000000\n  dup2\n  mstore\n  pop\n    /* \"OtherTopics.sol\":2345:2354  roman_map */\n  0x00\n    /* \"OtherTopics.sol\":2345:2359  roman_map[500] */\n  0x00\n    /* \"OtherTopics.sol\":2355:2358  500 */\n  0x01f4\n    /* \"OtherTopics.sol\":2345:2359  roman_map[500] */\n  dup2\n  mstore\n  0x20\n  add\n  swap1\n  dup2\n  mstore\n  0x20\n  add\n  0x00\n  keccak256\n    /* \"OtherTopics.sol\":2345:2365  roman_map[500] = \"D\" */\n  swap1\n  dup2\n  tag_15\n  swap2\n  swap1\n  tag_5\n  jump\t// in\ntag_15:\n  pop\n    /* \"OtherTopics.sol\":2376:2397  roman_map[900] = \"CM\" */\n  mload(0x40)\n  dup1\n  0x40\n  add\n  0x40\n  mstore\n  dup1\n  0x02\n  dup2\n  mstore\n  0x20\n  add\n  0x434d000000000000000000000000000000000000000000000000000000000000\n  dup2\n  mstore\n  pop\n    /* \"OtherTopics.sol\":2376:2385  roman_map */\n  0x00\n    /* \"OtherTopics.sol\":2376:2390  roman_map[900] */\n  0x00\n    /* \"OtherTopics.sol\":2386:2389  900 */\n  0x0384\n    /* \"OtherTopics.sol\":2376:2390  roman_map[900] */\n  dup2\n  mstore\n  0x20\n  add\n  swap1\n  dup2\n  mstore\n  0x20\n  add\n  0x00\n  keccak256\n    /* \"OtherTopics.sol\":2376:2397  roman_map[900] = \"CM\" */\n  swap1\n  dup2\n  tag_16\n  swap2\n  swap1\n  tag_5\n  jump\t// in\ntag_16:\n  pop\n    /* \"OtherTopics.sol\":2408:2429  roman_map[1000] = \"M\" */\n  mload(0x40)\n  dup1\n  0x40\n  add\n  0x40\n  mstore\n  dup1\n  0x01\n  dup2\n  mstore\n  0x20\n  add\n  0x4d00000000000000000000000000000000000000000000000000000000000000\n  dup2\n  mstore\n  pop\n    /* \"OtherTopics.sol\":2408:2417  roman_map */\n  0x00\n    /* \"OtherTopics.sol\":2408:2423  roman_map[1000] */\n  0x00\n    /* \"OtherTopics.sol\":2418:2422  1000 */\n  0x03e8\n    /* \"OtherTopics.sol\":2408:2423  roman_map[1000] */\n  dup2\n  mstore\n  0x20\n  add\n  swap1\n  dup2\n  mstore\n  0x20\n  add\n  0x00\n  keccak256\n    /* \"OtherTopics.sol\":2408:2429  roman_map[1000] = \"M\" */\n  swap1\n  dup2\n  tag_17\n  swap2\n  swap1\n  tag_5\n  jump\t// in\ntag_17:\n  pop\n    /* \"OtherTopics.sol\":1940:3088  contract IntToRoman {... */\n  jump(tag_18)\n    /* \"#utility.yul\":7:106   */\ntag_19:\n    /* \"#utility.yul\":59:65   */\n  0x00\n    /* \"#utility.yul\":93:98   */\n  dup2\n    /* \"#utility.yul\":87:99   */\n  mload\n    /* \"#utility.yul\":77:99   */\n  swap1\n  pop\n    /* \"#utility.yul\":7:106   */\n  swap2\n  swap1\n  pop\n  jump\t// out\n    /* \"#utility.yul\":112:292   */\ntag_20:\n    /* \"#utility.yul\":160:237   */\n  0x4e487b7100000000000000000000000000000000000000000000000000000000\n    /* \"#utility.yul\":157:158   */\n  0x00\n    /* \"#utility.yul\":150:238   */\n  mstore\n    /* \"#utility.yul\":257:261   */\n  0x41\n    /* \"#utility.yul\":254:255   */\n  0x04\n    /* \"#utility.yul\":247:262   */\n  mstore\n    /* \"#utility.yul\":281:285   */\n  0x24\n    /* \"#utility.yul\":278:279   */\n  0x00\n    /* \"#utility.yul\":271:286   */\n  revert\n    /* \"#utility.yul\":298:478   */\ntag_21:\n    /* \"#utility.yul\":346:423   */\n  0x4e487b7100000000000000000000000000000000000000000000000000000000\n    /* \"#utility.yul\":343:344   */\n  0x00\n    /* \"#utility.yul\":336:424   */\n  mstore\n    /* \"#utility.yul\":443:447   */\n  0x22\n    /* \"#utility.yul\":440:441   */\n  0x04\n    /* \"#utility.yul\":433:448   */\n  mstore\n    /* \"#utility.yul\":467:471   */\n  0x24\n    /* \"#utility.yul\":464:465   */\n  0x00\n    /* \"#utility.yul\":457:472   */\n  revert\n    /* \"#utility.yul\":484:804   */\ntag_22:\n    /* \"#utility.yul\":528:534   */\n  0x00\n    /* \"#utility.yul\":565:566   */\n  0x02\n    /* \"#utility.yul\":559:563   */\n  dup3\n    /* \"#utility.yul\":555:567   */\n  div\n    /* \"#utility.yul\":545:567   */\n  swap1\n  pop\n    /* \"#utility.yul\":612:613   */\n  0x01\n    /* \"#utility.yul\":606:610   */\n  dup3\n    /* \"#utility.yul\":602:614   */\n  and\n    /* \"#utility.yul\":633:651   */\n  dup1\n    /* \"#utility.yul\":623:704   */\n  tag_44\n  jumpi\n    /* \"#utility.yul\":689:693   */\n  0x7f\n    /* \"#utility.yul\":681:687   */\n  dup3\n    /* \"#utility.yul\":677:694   */\n  and\n    /* \"#utility.yul\":667:694   */\n  swap2\n  pop\n    /* \"#utility.yul\":623:704   */\ntag_44:\n    /* \"#utility.yul\":751:753   */\n  0x20\n    /* \"#utility.yul\":743:749   */\n  dup3\n    /* \"#utility.yul\":740:754   */\n  lt\n    /* \"#utility.yul\":720:738   */\n  dup2\n    /* \"#utility.yul\":717:755   */\n  sub\n    /* \"#utility.yul\":714:798   */\n  tag_45\n  jumpi\n    /* \"#utility.yul\":770:788   */\n  tag_46\n  tag_21\n  jump\t// in\ntag_46:\n    /* \"#utility.yul\":714:798   */\ntag_45:\n    /* \"#utility.yul\":535:804   */\n  pop\n    /* \"#utility.yul\":484:804   */\n  swap2\n  swap1\n  pop\n  jump\t// out\n    /* \"#utility.yul\":810:951   */\ntag_23:\n    /* \"#utility.yul\":859:863   */\n  0x00\n    /* \"#utility.yul\":882:885   */\n  dup2\n    /* \"#utility.yul\":874:885   */\n  swap1\n  pop\n    /* \"#utility.yul\":905:908   */\n  dup2\n    /* \"#utility.yul\":902:903   */\n  0x00\n    /* \"#utility.yul\":895:909   */\n  mstore\n    /* \"#utility.yul\":939:943   */\n  0x20\n    /* \"#utility.yul\":936:937   */\n  0x00\n    /* \"#utility.yul\":926:944   */\n  keccak256\n    /* \"#utility.yul\":918:944   */\n  swap1\n  pop\n    /* \"#utility.yul\":810:951   */\n  swap2\n  swap1\n  pop\n  jump\t// out\n    /* \"#utility.yul\":957:1050   */\ntag_24:\n    /* \"#utility.yul\":994:1000   */\n  0x00\n    /* \"#utility.yul\":1041:1043   */\n  0x20\n    /* \"#utility.yul\":1036:1038   */\n  0x1f\n    /* \"#utility.yul\":1029:1034   */\n  dup4\n    /* \"#utility.yul\":1025:1039   */\n  add\n    /* \"#utility.yul\":1021:1044   */\n  div\n    /* \"#utility.yul\":1011:1044   */\n  swap1\n  pop\n    /* \"#utility.yul\":957:1050   */\n  swap2\n  swap1\n  pop\n  jump\t// out\n    /* \"#utility.yul\":1056:1163   */\ntag_25:\n    /* \"#utility.yul\":1100:1108   */\n  0x00\n    /* \"#utility.yul\":1150:1155   */\n  dup3\n    /* \"#utility.yul\":1144:1148   */\n  dup3\n    /* \"#utility.yul\":1140:1156   */\n  shl\n    /* \"#utility.yul\":1119:1156   */\n  swap1\n  pop\n    /* \"#utility.yul\":1056:1163   */\n  swap3\n  swap2\n  pop\n  pop\n  jump\t// out\n    /* \"#utility.yul\":1169:1562   */\ntag_26:\n    /* \"#utility.yul\":1238:1244   */\n  0x00\n    /* \"#utility.yul\":1288:1289   */\n  0x08\n    /* \"#utility.yul\":1276:1286   */\n  dup4\n    /* \"#utility.yul\":1272:1290   */\n  mul\n    /* \"#utility.yul\":1311:1408   */\n  tag_51\n    /* \"#utility.yul\":1341:1407   */\n  0xffffffffffffffffffffffffffffffffffffffffffffffffffffffffffffffff\n    /* \"#utility.yul\":1330:1339   */\n  dup3\n    /* \"#utility.yul\":1311:1408   */\n  tag_25\n  jump\t// in\ntag_51:\n    /* \"#utility.yul\":1429:1468   */\n  tag_52\n    /* \"#utility.yul\":1459:1467   */\n  dup7\n    /* \"#utility.yul\":1448:1457   */\n  dup4\n    /* \"#utility.yul\":1429:1468   */\n  tag_25\n  jump\t// in\ntag_52:\n    /* \"#utility.yul\":1417:1468   */\n  swap6\n  pop\n    /* \"#utility.yul\":1501:1505   */\n  dup1\n    /* \"#utility.yul\":1497:1506   */\n  not\n    /* \"#utility.yul\":1490:1495   */\n  dup5\n    /* \"#utility.yul\":1486:1507   */\n  and\n    /* \"#utility.yul\":1477:1507   */\n  swap4\n  pop\n    /* \"#utility.yul\":1550:1554   */\n  dup1\n    /* \"#utility.yul\":1540:1548   */\n  dup7\n    /* \"#utility.yul\":1536:1555   */\n  and\n    /* \"#utility.yul\":1529:1534   */\n  dup5\n    /* \"#utility.yul\":1526:1556   */\n  or\n    /* \"#utility.yul\":1516:1556   */\n  swap3\n  pop\n    /* \"#utility.yul\":1245:1562   */\n  pop\n  pop\n    /* \"#utility.yul\":1169:1562   */\n  swap4\n  swap3\n  pop\n  pop\n  pop\n  jump\t// out\n    /* \"#utility.yul\":1568:1645   */\ntag_27:\n    /* \"#utility.yul\":1605:1612   */\n  0x00\n    /* \"#utility.yul\":1634:1639   */\n  dup2\n    /* \"#utility.yul\":1623:1639   */\n  swap1\n  pop\n    /* \"#utility.yul\":1568:1645   */\n  swap2\n  swap1\n  pop\n  jump\t// out\n    /* \"#utility.yul\":1651:1711   */\ntag_28:\n    /* \"#utility.yul\":1679:1682   */\n  0x00\n    /* \"#utility.yul\":1700:1705   */\n  dup2\n    /* \"#utility.yul\":1693:1705   */\n  swap1\n  pop\n    /* \"#utility.yul\":1651:1711   */\n  swap2\n  swap1\n  pop\n  jump\t// out\n    /* \"#utility.yul\":1717:1859   */\ntag_29:\n    /* \"#utility.yul\":1767:1776   */\n  0x00\n    /* \"#utility.yul\":1800:1853   */\n  tag_56\n    /* \"#utility.yul\":1818:1852   */\n  tag_57\n    /* \"#utility.yul\":1827:1851   */\n  tag_58\n    /* \"#utility.yul\":1845:1850   */\n  dup5\n    /* \"#utility.yul\":1827:1851   */\n  tag_27\n  jump\t// in\ntag_58:\n    /* \"#utility.yul\":1818:1852   */\n  tag_28\n  jump\t// in\ntag_57:\n    /* \"#utility.yul\":1800:1853   */\n  tag_27\n  jump\t// in\ntag_56:\n    /* \"#utility.yul\":1787:1853   */\n  swap1\n  pop\n    /* \"#utility.yul\":1717:1859   */\n  swap2\n  swap1\n  pop\n  jump\t// out\n    /* \"#utility.yul\":1865:1940   */\ntag_30:\n    /* \"#utility.yul\":1908:1911   */\n  0x00\n    /* \"#utility.yul\":1929:1934   */\n  dup2\n    /* \"#utility.yul\":1922:1934   */\n  swap1\n  pop\n    /* \"#utility.yul\":1865:1940   */\n  swap2\n  swap1\n  pop\n  jump\t// out\n    /* \"#utility.yul\":1946:2215   */\ntag_31:\n    /* \"#utility.yul\":2056:2095   */\n  tag_61\n    /* \"#utility.yul\":2087:2094   */\n  dup4\n    /* \"#utility.yul\":2056:2095   */\n  tag_29\n  jump\t// in\ntag_61:\n    /* \"#utility.yul\":2117:2208   */\n  tag_62\n    /* \"#utility.yul\":2166:2207   */\n  tag_63\n    /* \"#utility.yul\":2190:2206   */\n  dup3\n    /* \"#utility.yul\":2166:2207   */\n  tag_30\n  jump\t// in\ntag_63:\n    /* \"#utility.yul\":2158:2164   */\n  dup5\n    /* \"#utility.yul\":2151:2155   */\n  dup5\n    /* \"#utility.yul\":2145:2156   */\n  sload\n    /* \"#utility.yul\":2117:2208   */\n  tag_26\n  jump\t// in\ntag_62:\n    /* \"#utility.yul\":2111:2115   */\n  dup3\n    /* \"#utility.yul\":2104:2209   */\n  sstore\n    /* \"#utility.yul\":2022:2215   */\n  pop\n    /* \"#utility.yul\":1946:2215   */\n  pop\n  pop\n  pop\n  jump\t// out\n    /* \"#utility.yul\":2221:2294   */\ntag_32:\n    /* \"#utility.yul\":2266:2269   */\n  0x00\n    /* \"#utility.yul\":2287:2288   */\n  0x00\n    /* \"#utility.yul\":2280:2288   */\n  swap1\n  pop\n    /* \"#utility.yul\":2221:2294   */\n  swap1\n  jump\t// out\n    /* \"#utility.yul\":2300:2489   */\ntag_33:\n    /* \"#utility.yul\":2377:2409   */\n  tag_66\n  tag_32\n  jump\t// in\ntag_66:\n    /* \"#utility.yul\":2418:2483   */\n  tag_67\n    /* \"#utility.yul\":2476:2482   */\n  dup2\n    /* \"#utility.yul\":2468:2474   */\n  dup5\n    /* \"#utility.yul\":2462:2466   */\n  dup5\n    /* \"#utility.yul\":2418:2483   */\n  tag_31\n  jump\t// in\ntag_67:\n    /* \"#utility.yul\":2353:2489   */\n  pop\n    /* \"#utility.yul\":2300:2489   */\n  pop\n  pop\n  jump\t// out\n    /* \"#utility.yul\":2495:2681   */\ntag_34:\n    /* \"#utility.yul\":2555:2675   */\ntag_69:\n    /* \"#utility.yul\":2572:2575   */\n  dup2\n    /* \"#utility.yul\":2565:2570   */\n  dup2\n    /* \"#utility.yul\":2562:2576   */\n  lt\n    /* \"#utility.yul\":2555:2675   */\n  iszero\n  tag_71\n  jumpi\n    /* \"#utility.yul\":2626:2665   */\n  tag_72\n    /* \"#utility.yul\":2663:2664   */\n  0x00\n    /* \"#utility.yul\":2656:2661   */\n  dup3\n    /* \"#utility.yul\":2626:2665   */\n  tag_33\n  jump\t// in\ntag_72:\n    /* \"#utility.yul\":2599:2600   */\n  0x01\n    /* \"#utility.yul\":2592:2597   */\n  dup2\n    /* \"#utility.yul\":2588:2601   */\n  add\n    /* \"#utility.yul\":2579:2601   */\n  swap1\n  pop\n    /* \"#utility.yul\":2555:2675   */\n  jump(tag_69)\ntag_71:\n    /* \"#utility.yul\":2495:2681   */\n  pop\n  pop\n  jump\t// out\n    /* \"#utility.yul\":2687:3230   */\ntag_35:\n    /* \"#utility.yul\":2788:2790   */\n  0x1f\n    /* \"#utility.yul\":2783:2786   */\n  dup3\n    /* \"#utility.yul\":2780:2791   */\n  gt\n    /* \"#utility.yul\":2777:3223   */\n  iszero\n  tag_74\n  jumpi\n    /* \"#utility.yul\":2822:2860   */\n  tag_75\n    /* \"#utility.yul\":2854:2859   */\n  dup2\n    /* \"#utility.yul\":2822:2860   */\n  tag_23\n  jump\t// in\ntag_75:\n    /* \"#utility.yul\":2906:2935   */\n  tag_76\n    /* \"#utility.yul\":2924:2934   */\n  dup5\n    /* \"#utility.yul\":2906:2935   */\n  tag_24\n  jump\t// in\ntag_76:\n    /* \"#utility.yul\":2896:2904   */\n  dup2\n    /* \"#utility.yul\":2892:2936   */\n  add\n    /* \"#utility.yul\":3089:3091   */\n  0x20\n    /* \"#utility.yul\":3077:3087   */\n  dup6\n    /* \"#utility.yul\":3074:3092   */\n  lt\n    /* \"#utility.yul\":3071:3120   */\n  iszero\n  tag_77\n  jumpi\n    /* \"#utility.yul\":3110:3118   */\n  dup2\n    /* \"#utility.yul\":3095:3118   */\n  swap1\n  pop\n    /* \"#utility.yul\":3071:3120   */\ntag_77:\n    /* \"#utility.yul\":3133:3213   */\n  tag_78\n    /* \"#utility.yul\":3189:3211   */\n  tag_79\n    /* \"#utility.yul\":3207:3210   */\n  dup6\n    /* \"#utility.yul\":3189:3211   */\n  tag_24\n  jump\t// in\ntag_79:\n    /* \"#utility.yul\":3179:3187   */\n  dup4\n    /* \"#utility.yul\":3175:3212   */\n  add\n    /* \"#utility.yul\":3162:3173   */\n  dup3\n    /* \"#utility.yul\":3133:3213   */\n  tag_34\n  jump\t// in\ntag_78:\n    /* \"#utility.yul\":2792:3223   */\n  pop\n  pop\n    /* \"#utility.yul\":2777:3223   */\ntag_74:\n    /* \"#utility.yul\":2687:3230   */\n  pop\n  pop\n  pop\n  jump\t// out\n    /* \"#utility.yul\":3236:3353   */\ntag_36:\n    /* \"#utility.yul\":3290:3298   */\n  0x00\n    /* \"#utility.yul\":3340:3345   */\n  dup3\n    /* \"#utility.yul\":3334:3338   */\n  dup3\n    /* \"#utility.yul\":3330:3346   */\n  shr\n    /* \"#utility.yul\":3309:3346   */\n  swap1\n  pop\n    /* \"#utility.yul\":3236:3353   */\n  swap3\n  swap2\n  pop\n  pop\n  jump\t// out\n    /* \"#utility.yul\":3359:3528   */\ntag_37:\n    /* \"#utility.yul\":3403:3409   */\n  0x00\n    /* \"#utility.yul\":3436:3487   */\n  tag_82\n    /* \"#utility.yul\":3484:3485   */\n  0x00\n    /* \"#utility.yul\":3480:3486   */\n  not\n    /* \"#utility.yul\":3472:3477   */\n  dup5\n    /* \"#utility.yul\":3469:3470   */\n  0x08\n    /* \"#utility.yul\":3465:3478   */\n  mul\n    /* \"#utility.yul\":3436:3487   */\n  tag_36\n  jump\t// in\ntag_82:\n    /* \"#utility.yul\":3432:3488   */\n  not\n    /* \"#utility.yul\":3517:3521   */\n  dup1\n    /* \"#utility.yul\":3511:3515   */\n  dup4\n    /* \"#utility.yul\":3507:3522   */\n  and\n    /* \"#utility.yul\":3497:3522   */\n  swap2\n  pop\n    /* \"#utility.yul\":3410:3528   */\n  pop\n    /* \"#utility.yul\":3359:3528   */\n  swap3\n  swap2\n  pop\n  pop\n  jump\t// out\n    /* \"#utility.yul\":3533:3828   */\ntag_38:\n    /* \"#utility.yul\":3609:3613   */\n  0x00\n    /* \"#utility.yul\":3755:3784   */\n  tag_84\n    /* \"#utility.yul\":3780:3783   */\n  dup4\n    /* \"#utility.yul\":3774:3778   */\n  dup4\n    /* \"#utility.yul\":3755:3784   */\n  tag_37\n  jump\t// in\ntag_84:\n    /* \"#utility.yul\":3747:3784   */\n  swap2\n  pop\n    /* \"#utility.yul\":3817:3820   */\n  dup3\n    /* \"#utility.yul\":3814:3815   */\n  0x02\n    /* \"#utility.yul\":3810:3821   */\n  mul\n    /* \"#utility.yul\":3804:3808   */\n  dup3\n    /* \"#utility.yul\":3801:3822   */\n  or\n    /* \"#utility.yul\":3793:3822   */\n  swap1\n  pop\n    /* \"#utility.yul\":3533:3828   */\n  swap3\n  swap2\n  pop\n  pop\n  jump\t// out\n    /* \"#utility.yul\":3833:5228   */\ntag_5:\n    /* \"#utility.yul\":3950:3987   */\n  tag_86\n    /* \"#utility.yul\":3983:3986   */\n  dup3\n    /* \"#utility.yul\":3950:3987   */\n  tag_19\n  jump\t// in\ntag_86:\n    /* \"#utility.yul\":4052:4070   */\n  0xffffffffffffffff\n    /* \"#utility.yul\":4044:4050   */\n  dup2\n    /* \"#utility.yul\":4041:4071   */\n  gt\n    /* \"#utility.yul\":4038:4094   */\n  iszero\n  tag_87\n  jumpi\n    /* \"#utility.yul\":4074:4092   */\n  tag_88\n  tag_20\n  jump\t// in\ntag_88:\n    /* \"#utility.yul\":4038:4094   */\ntag_87:\n    /* \"#utility.yul\":4118:4156   */\n  tag_89\n    /* \"#utility.yul\":4150:4154   */\n  dup3\n    /* \"#utility.yul\":4144:4155   */\n  sload\n    /* \"#utility.yul\":4118:4156   */\n  tag_22\n  jump\t// in\ntag_89:\n    /* \"#utility.yul\":4203:4270   */\n  tag_90\n    /* \"#utility.yul\":4263:4269   */\n  dup3\n    /* \"#utility.yul\":4255:4261   */\n  dup3\n    /* \"#utility.yul\":4249:4253   */\n  dup6\n    /* \"#utility.yul\":4203:4270   */\n  tag_35\n  jump\t// in\ntag_90:\n    /* \"#utility.yul\":4297:4298   */\n  0x00\n    /* \"#utility.yul\":4321:4325   */\n  0x20\n    /* \"#utility.yul\":4308:4325   */\n  swap1\n  pop\n    /* \"#utility.yul\":4353:4355   */\n  0x1f\n    /* \"#utility.yul\":4345:4351   */\n  dup4\n    /* \"#utility.yul\":4342:4356   */\n  gt\n    /* \"#utility.yul\":4370:4371   */\n  0x01\n    /* \"#utility.yul\":4365:4983   */\n  dup2\n  eq\n  tag_92\n  jumpi\n    /* \"#utility.yul\":5027:5028   */\n  0x00\n    /* \"#utility.yul\":5044:5050   */\n  dup5\n    /* \"#utility.yul\":5041:5118   */\n  iszero\n  tag_93\n  jumpi\n    /* \"#utility.yul\":5093:5102   */\n  dup3\n    /* \"#utility.yul\":5088:5091   */\n  dup8\n    /* \"#utility.yul\":5084:5103   */\n  add\n    /* \"#utility.yul\":5078:5104   */\n  mload\n    /* \"#utility.yul\":5069:5104   */\n  swap1\n  pop\n    /* \"#utility.yul\":5041:5118   */\ntag_93:\n    /* \"#utility.yul\":5144:5211   */\n  tag_94\n    /* \"#utility.yul\":5204:5210   */\n  dup6\n    /* \"#utility.yul\":5197:5202   */\n  dup3\n    /* \"#utility.yul\":5144:5211   */\n  tag_38\n  jump\t// in\ntag_94:\n    /* \"#utility.yul\":5138:5142   */\n  dup7\n    /* \"#utility.yul\":5131:5212   */\n  sstore\n    /* \"#utility.yul\":5000:5222   */\n  pop\n    /* \"#utility.yul\":4335:5222   */\n  jump(tag_91)\n    /* \"#utility.yul\":4365:4983   */\ntag_92:\n    /* \"#utility.yul\":4417:4421   */\n  0x1f\n    /* \"#utility.yul\":4413:4422   */\n  not\n    /* \"#utility.yul\":4405:4411   */\n  dup5\n    /* \"#utility.yul\":4401:4423   */\n  and\n    /* \"#utility.yul\":4451:4488   */\n  tag_95\n    /* \"#utility.yul\":4483:4487   */\n  dup7\n    /* \"#utility.yul\":4451:4488   */\n  tag_23\n  jump\t// in\ntag_95:\n    /* \"#utility.yul\":4510:4511   */\n  0x00\n    /* \"#utility.yul\":4524:4732   */\ntag_96:\n    /* \"#utility.yul\":4538:4545   */\n  dup3\n    /* \"#utility.yul\":4535:4536   */\n  dup2\n    /* \"#utility.yul\":4532:4546   */\n  lt\n    /* \"#utility.yul\":4524:4732   */\n  iszero\n  tag_98\n  jumpi\n    /* \"#utility.yul\":4617:4626   */\n  dup5\n    /* \"#utility.yul\":4612:4615   */\n  dup10\n    /* \"#utility.yul\":4608:4627   */\n  add\n    /* \"#utility.yul\":4602:4628   */\n  mload\n    /* \"#utility.yul\":4594:4600   */\n  dup3\n    /* \"#utility.yul\":4587:4629   */\n  sstore\n    /* \"#utility.yul\":4668:4669   */\n  0x01\n    /* \"#utility.yul\":4660:4666   */\n  dup3\n    /* \"#utility.yul\":4656:4670   */\n  add\n    /* \"#utility.yul\":4646:4670   */\n  swap2\n  pop\n    /* \"#utility.yul\":4715:4717   */\n  0x20\n    /* \"#utility.yul\":4704:4713   */\n  dup6\n    /* \"#utility.yul\":4700:4718   */\n  add\n    /* \"#utility.yul\":4687:4718   */\n  swap5\n  pop\n    /* \"#utility.yul\":4561:4565   */\n  0x20\n    /* \"#utility.yul\":4558:4559   */\n  dup2\n    /* \"#utility.yul\":4554:4566   */\n  add\n    /* \"#utility.yul\":4549:4566   */\n  swap1\n  pop\n    /* \"#utility.yul\":4524:4732   */\n  jump(tag_96)\ntag_98:\n    /* \"#utility.yul\":4760:4766   */\n  dup7\n    /* \"#utility.yul\":4751:4758   */\n  dup4\n    /* \"#utility.yul\":4748:4767   */\n  lt\n    /* \"#utility.yul\":4745:4924   */\n  iszero\n  tag_99\n  jumpi\n    /* \"#utility.yul\":4818:4827   */\n  dup5\n    /* \"#utility.yul\":4813:4816   */\n  dup10\n    /* \"#utility.yul\":4809:4828   */\n  add\n    /* \"#utility.yul\":4803:4829   */\n  mload\n    /* \"#utility.yul\":4861:4909   */\n  tag_100\n    /* \"#utility.yul\":4903:4907   */\n  0x1f\n    /* \"#utility.yul\":4895:4901   */\n  dup10\n    /* \"#utility.yul\":4891:4908   */\n  and\n    /* \"#utility.yul\":4880:4889   */\n  dup3\n    /* \"#utility.yul\":4861:4909   */\n  tag_37\n  jump\t// in\ntag_100:\n    /* \"#utility.yul\":4853:4859   */\n  dup4\n    /* \"#utility.yul\":4846:4910   */\n  sstore\n    /* \"#utility.yul\":4768:4924   */\n  pop\n    /* \"#utility.yul\":4745:4924   */\ntag_99:\n    /* \"#utility.yul\":4970:4971   */\n  0x01\n    /* \"#utility.yul\":4966:4967   */\n  0x02\n    /* \"#utility.yul\":4958:4964   */\n  dup9\n    /* \"#utility.yul\":4954:4968   */\n  mul\n    /* \"#utility.yul\":4950:4972   */\n  add\n    /* \"#utility.yul\":4944:4948   */\n  dup9\n    /* \"#utility.yul\":4937:4973   */\n  sstore\n    /* \"#utility.yul\":4372:4983   */\n  pop\n  pop\n  pop\n    /* \"#utility.yul\":4335:5222   */\ntag_91:\n  pop\n    /* \"#utility.yul\":3925:5228   */\n  pop\n  pop\n  pop\n    /* \"#utility.yul\":3833:5228   */\n  pop\n  pop\n  jump\t// out\n    /* \"OtherTopics.sol\":1940:3088  contract IntToRoman {... */\ntag_18:\n  dataSize(sub_0)\n  dup1\n  dataOffset(sub_0)\n  0x00\n  codecopy\n  0x00\n  return\nstop\n\nsub_0: assembly {\n        /* \"OtherTopics.sol\":1940:3088  contract IntToRoman {... */\n      mstore(0x40, 0x80)\n      callvalue\n      dup1\n      iszero\n      tag_1\n      jumpi\n      revert(0x00, 0x00)\n    tag_1:\n      pop\n      jumpi(tag_2, lt(calldatasize, 0x04))\n      shr(0xe0, calldataload(0x00))\n      dup1\n      0x0cbc513a\n      eq\n      tag_3\n      jumpi\n    tag_2:\n      revert(0x00, 0x00)\n        /* \"OtherTopics.sol\":2445:3085  function intToRoman(uint _number) public view returns (string memory) {... */\n    tag_3:\n      tag_4\n      0x04\n      dup1\n      calldatasize\n      sub\n      dup2\n      add\n      swap1\n      tag_5\n      swap2\n      swap1\n      tag_6\n      jump\t// in\n    tag_5:\n      tag_7\n      jump\t// in\n    tag_4:\n      mload(0x40)\n      tag_8\n      swap2\n      swap1\n      tag_9\n      jump\t// in\n    tag_8:\n      mload(0x40)\n      dup1\n      swap2\n      sub\n      swap1\n      return\n    tag_7:\n        /* \"OtherTopics.sol\":2500:2513  string memory */\n      0x60\n        /* \"OtherTopics.sol\":2544:2545  0 */\n      0x00\n        /* \"OtherTopics.sol\":2534:2541  _number */\n      dup3\n        /* \"OtherTopics.sol\":2534:2545  _number > 0 */\n      gt\n        /* \"OtherTopics.sol\":2534:2564  _number > 0 && _number <= 3999 */\n      dup1\n      iszero\n      tag_11\n      jumpi\n      pop\n        /* \"OtherTopics.sol\":2560:2564  3999 */\n      0x0f9f\n        /* \"OtherTopics.sol\":2549:2556  _number */\n      dup3\n        /* \"OtherTopics.sol\":2549:2564  _number <= 3999 */\n      gt\n      iszero\n        /* \"OtherTopics.sol\":2534:2564  _number > 0 && _number <= 3999 */\n    tag_11:\n        /* \"OtherTopics.sol\":2526:2597  require(_number > 0 && _number <= 3999, \"Number out of range (1-3999)\") */\n      tag_12\n      jumpi\n      mload(0x40)\n      0x08c379a000000000000000000000000000000000000000000000000000000000\n      dup2\n      mstore\n      0x04\n      add\n      tag_13\n      swap1\n      tag_14\n      jump\t// in\n    tag_13:\n      mload(0x40)\n      dup1\n      swap2\n      sub\n      swap1\n      revert\n    tag_12:\n        /* \"OtherTopics.sol\":2608:2630  uint[13] memory values */\n      0x00\n        /* \"OtherTopics.sol\":2608:2693  uint[13] memory values = [uint(1000), 900, 500, 400, 100, 90, 50, 40, 10, 9, 5, 4, 1] */\n      mload(0x40)\n      dup1\n      0x01a0\n      add\n      0x40\n      mstore\n      dup1\n        /* \"OtherTopics.sol\":2639:2643  1000 */\n      0x03e8\n        /* \"OtherTopics.sol\":2608:2693  uint[13] memory values = [uint(1000), 900, 500, 400, 100, 90, 50, 40, 10, 9, 5, 4, 1] */\n      dup2\n      mstore\n      0x20\n      add\n        /* \"OtherTopics.sol\":2646:2649  900 */\n      0x0384\n        /* \"OtherTopics.sol\":2608:2693  uint[13] memory values = [uint(1000), 900, 500, 400, 100, 90, 50, 40, 10, 9, 5, 4, 1] */\n      dup2\n      mstore\n      0x20\n      add\n        /* \"OtherTopics.sol\":2651:2654  500 */\n      0x01f4\n        /* \"OtherTopics.sol\":2608:2693  uint[13] memory values = [uint(1000), 900, 500, 400, 100, 90, 50, 40, 10, 9, 5, 4, 1] */\n      dup2\n      mstore\n      0x20\n      add\n        /* \"OtherTopics.sol\":2656:2659  400 */\n      0x0190\n        /* \"OtherTopics.sol\":2608:2693  uint[13] memory values = [uint(1000), 900, 500, 400, 100, 90, 50, 40, 10, 9, 5, 4, 1] */\n      dup2\n      mstore\n      0x20\n      add\n        /* \"OtherTopics.sol\":2661:2664  100 */\n      0x64\n        /* \"OtherTopics.sol\":2608:2693  uint[13] memory values = [uint(1000), 900, 500, 400, 100, 90, 50, 40, 10, 9, 5, 4, 1] */\n      dup2\n      mstore\n      0x20\n      add\n        /* \"OtherTopics.sol\":2666:2668  90 */\n      0x5a\n        /* \"OtherTopics.sol\":2608:2693  uint[13] memory values = [uint(1000), 900, 500, 400, 100, 90, 50, 40, 10, 9, 5, 4, 1] */\n      dup2\n      mstore\n      0x20\n      add\n        /* \"OtherTopics.sol\":2670:2672  50 */\n      0x32\n        /* \"OtherTopics.sol\":2608:2693  uint[13] memory values = [uint(1000), 900, 500, 400, 100, 90, 50, 40, 10, 9, 5, 4, 1] */\n      dup2\n      mstore\n      0x20\n      add\n        /* \"OtherTopics.sol\":2674:2676  40 */\n      0x28\n        /* \"OtherTopics.sol\":2608:2693  uint[13] memory values = [uint(1000), 900, 500, 400, 100, 90, 50, 40, 10, 9, 5, 4, 1] */\n      dup2\n      mstore\n      0x20\n      add\n        /* \"OtherTopics.sol\":2678:2680  10 */\n      0x0a\n        /* \"OtherTopics.sol\":2608:2693  uint[13] memory values = [uint(1000), 900, 500, 400, 100, 90, 50, 40, 10, 9, 5, 4, 1] */\n      dup2\n      mstore\n      0x20\n      add\n        /* \"OtherTopics.sol\":2682:2683  9 */\n      0x09\n        /* \"OtherTopics.sol\":2608:2693  uint[13] memory values = [uint(1000), 900, 500, 400, 100, 90, 50, 40, 10, 9, 5, 4, 1] */\n      dup2\n      mstore\n      0x20\n      add\n        /* \"OtherTopics.sol\":2685:2686  5 */\n      0x05\n        /* \"OtherTopics.sol\":2608:2693  uint[13] memory values = [uint(1000), 900, 500, 400, 100, 90, 50, 40, 10, 9, 5, 4, 1] */\n      dup2\n      mstore\n      0x20\n      add\n        /* \"OtherTopics.sol\":2688:2689  4 */\n      0x04\n        /* \"OtherTopics.sol\":2608:2693  uint[13] memory values = [uint(1000), 900, 500, 400, 100, 90, 50, 40, 10, 9, 5, 4, 1] */\n      dup2\n      mstore\n      0x20\n      add\n        /* \"OtherTopics.sol\":2691:2692  1 */\n      0x01\n        /* \"OtherTopics.sol\":2608:2693  uint[13] memory values = [uint(1000), 900, 500, 400, 100, 90, 50, 40, 10, 9, 5, 4, 1] */\n      dup2\n      mstore\n      pop\n      swap1\n      pop\n        /* \"OtherTopics.sol\":2704:2723  bytes memory result */\n      0x60\n        /* \"OtherTopics.sol\":2741:2747  uint i */\n      0x00\n        /* \"OtherTopics.sol\":2750:2751  0 */\n      0x00\n        /* \"OtherTopics.sol\":2741:2751  uint i = 0 */\n      swap1\n      pop\n        /* \"OtherTopics.sol\":2736:3044  for (uint i = 0; i < values.length; i++) {... */\n    tag_15:\n        /* \"OtherTopics.sol\":2757:2770  values.length */\n      0x0d\n        /* \"OtherTopics.sol\":2753:2754  i */\n      dup2\n        /* \"OtherTopics.sol\":2753:2770  i < values.length */\n      lt\n        /* \"OtherTopics.sol\":2736:3044  for (uint i = 0; i < values.length; i++) {... */\n      iszero\n      tag_16\n      jumpi\n        /* \"OtherTopics.sol\":2875:3033  while (_number >= values[i]) {... */\n    tag_18:\n        /* \"OtherTopics.sol\":2893:2899  values */\n      dup3\n        /* \"OtherTopics.sol\":2900:2901  i */\n      dup2\n        /* \"OtherTopics.sol\":2893:2902  values[i] */\n      0x0d\n      dup2\n      lt\n      tag_20\n      jumpi\n      tag_21\n      tag_22\n      jump\t// in\n    tag_21:\n    tag_20:\n      0x20\n      mul\n      add\n      mload\n        /* \"OtherTopics.sol\":2882:2889  _number */\n      dup6\n        /* \"OtherTopics.sol\":2882:2902  _number >= values[i] */\n      lt\n        /* \"OtherTopics.sol\":2875:3033  while (_number >= values[i]) {... */\n      tag_19\n      jumpi\n        /* \"OtherTopics.sol\":2934:2940  values */\n      dup3\n        /* \"OtherTopics.sol\":2941:2942  i */\n      dup2\n        /* \"OtherTopics.sol\":2934:2943  values[i] */\n      0x0d\n      dup2\n      lt\n      tag_23\n      jumpi\n      tag_24\n      tag_22\n      jump\t// in\n    tag_24:\n    tag_23:\n      0x20\n      mul\n      add\n      mload\n        /* \"OtherTopics.sol\":2923:2943  _number -= values[i] */\n      dup6\n      tag_25\n      swap2\n      swap1\n      tag_26\n      jump\t// in\n    tag_25:\n      swap5\n      pop\n        /* \"OtherTopics.sol\":2988:2994  result */\n      dup2\n        /* \"OtherTopics.sol\":2996:3005  roman_map */\n      0x00\n        /* \"OtherTopics.sol\":2996:3016  roman_map[values[i]] */\n      0x00\n        /* \"OtherTopics.sol\":3006:3012  values */\n      dup6\n        /* \"OtherTopics.sol\":3013:3014  i */\n      dup5\n        /* \"OtherTopics.sol\":3006:3015  values[i] */\n      0x0d\n      dup2\n      lt\n      tag_27\n      jumpi\n      tag_28\n      tag_22\n      jump\t// in\n    tag_28:\n    tag_27:\n      0x20\n      mul\n      add\n      mload\n        /* \"OtherTopics.sol\":2996:3016  roman_map[values[i]] */\n      dup2\n      mstore\n      0x20\n      add\n      swap1\n      dup2\n      mstore\n      0x20\n      add\n      0x00\n      keccak256\n        /* \"OtherTopics.sol\":2971:3017  abi.encodePacked(result, roman_map[values[i]]) */\n      add(0x20, mload(0x40))\n      tag_29\n      swap3\n      swap2\n      swap1\n      tag_30\n      jump\t// in\n    tag_29:\n      mload(0x40)\n      0x20\n      dup2\n      dup4\n      sub\n      sub\n      dup2\n      mstore\n      swap1\n      0x40\n      mstore\n        /* \"OtherTopics.sol\":2962:3017  result = abi.encodePacked(result, roman_map[values[i]]) */\n      swap2\n      pop\n        /* \"OtherTopics.sol\":2875:3033  while (_number >= values[i]) {... */\n      jump(tag_18)\n    tag_19:\n        /* \"OtherTopics.sol\":2772:2775  i++ */\n      dup1\n      dup1\n      0x01\n      add\n      swap2\n      pop\n      pop\n        /* \"OtherTopics.sol\":2736:3044  for (uint i = 0; i < values.length; i++) {... */\n      jump(tag_15)\n    tag_16:\n      pop\n        /* \"OtherTopics.sol\":3070:3076  result */\n      dup1\n        /* \"OtherTopics.sol\":3056:3077  return string(result) */\n      swap3\n      pop\n      pop\n      pop\n        /* \"OtherTopics.sol\":2445:3085  function intToRoman(uint _number) public view returns (string memory) {... */\n      swap2\n      swap1\n      pop\n      jump\t// out\n        /* \"#utility.yul\":88:205   */\n    tag_32:\n        /* \"#utility.yul\":197:198   */\n      0x00\n        /* \"#utility.yul\":194:195   */\n      0x00\n        /* \"#utility.yul\":187:199   */\n      revert\n        /* \"#utility.yul\":334:411   */\n    tag_34:\n        /* \"#utility.yul\":371:378   */\n      0x00\n        /* \"#utility.yul\":400:405   */\n      dup2\n        /* \"#utility.yul\":389:405   */\n      swap1\n      pop\n        /* \"#utility.yul\":334:411   */\n      swap2\n      swap1\n      pop\n      jump\t// out\n        /* \"#utility.yul\":417:539   */\n    tag_35:\n        /* \"#utility.yul\":490:514   */\n      tag_59\n        /* \"#utility.yul\":508:513   */\n      dup2\n        /* \"#utility.yul\":490:514   */\n      tag_34\n      jump\t// in\n    tag_59:\n        /* \"#utility.yul\":483:488   */\n      dup2\n        /* \"#utility.yul\":480:515   */\n      eq\n        /* \"#utility.yul\":470:533   */\n      tag_60\n      jumpi\n        /* \"#utility.yul\":529:530   */\n      0x00\n        /* \"#utility.yul\":526:527   */\n      0x00\n        /* \"#utility.yul\":519:531   */\n      revert\n        /* \"#utility.yul\":470:533   */\n    tag_60:\n        /* \"#utility.yul\":417:539   */\n      pop\n      jump\t// out\n        /* \"#utility.yul\":545:684   */\n    tag_36:\n        /* \"#utility.yul\":591:596   */\n      0x00\n        /* \"#utility.yul\":629:635   */\n      dup2\n        /* \"#utility.yul\":616:636   */\n      calldataload\n        /* \"#utility.yul\":607:636   */\n      swap1\n      pop\n        /* \"#utility.yul\":645:678   */\n      tag_62\n        /* \"#utility.yul\":672:677   */\n      dup2\n        /* \"#utility.yul\":645:678   */\n      tag_35\n      jump\t// in\n    tag_62:\n        /* \"#utility.yul\":545:684   */\n      swap3\n      swap2\n      pop\n      pop\n      jump\t// out\n        /* \"#utility.yul\":690:1019   */\n    tag_6:\n        /* \"#utility.yul\":749:755   */\n      0x00\n        /* \"#utility.yul\":798:800   */\n      0x20\n        /* \"#utility.yul\":786:795   */\n      dup3\n        /* \"#utility.yul\":777:784   */\n      dup5\n        /* \"#utility.yul\":773:796   */\n      sub\n        /* \"#utility.yul\":769:801   */\n      slt\n        /* \"#utility.yul\":766:885   */\n      iszero\n      tag_64\n      jumpi\n        /* \"#utility.yul\":804:883   */\n      tag_65\n      tag_32\n      jump\t// in\n    tag_65:\n        /* \"#utility.yul\":766:885   */\n    tag_64:\n        /* \"#utility.yul\":924:925   */\n      0x00\n        /* \"#utility.yul\":949:1002   */\n      tag_66\n        /* \"#utility.yul\":994:1001   */\n      dup5\n        /* \"#utility.yul\":985:991   */\n      dup3\n        /* \"#utility.yul\":974:983   */\n      dup6\n        /* \"#utility.yul\":970:992   */\n      add\n        /* \"#utility.yul\":949:1002   */\n      tag_36\n      jump\t// in\n    tag_66:\n        /* \"#utility.yul\":939:1002   */\n      swap2\n      pop\n        /* \"#utility.yul\":895:1012   */\n      pop\n        /* \"#utility.yul\":690:1019   */\n      swap3\n      swap2\n      pop\n      pop\n      jump\t// out\n        /* \"#utility.yul\":1025:1124   */\n    tag_37:\n        /* \"#utility.yul\":1077:1083   */\n      0x00\n        /* \"#utility.yul\":1111:1116   */\n      dup2\n        /* \"#utility.yul\":1105:1117   */\n      mload\n        /* \"#utility.yul\":1095:1117   */\n      swap1\n      pop\n        /* \"#utility.yul\":1025:1124   */\n      swap2\n      swap1\n      pop\n      jump\t// out\n        /* \"#utility.yul\":1130:1299   */\n    tag_38:\n        /* \"#utility.yul\":1214:1225   */\n      0x00\n        /* \"#utility.yul\":1248:1254   */\n      dup3\n        /* \"#utility.yul\":1243:1246   */\n      dup3\n        /* \"#utility.yul\":1236:1255   */\n      mstore\n        /* \"#utility.yul\":1288:1292   */\n      0x20\n        /* \"#utility.yul\":1283:1286   */\n      dup3\n        /* \"#utility.yul\":1279:1293   */\n      add\n        /* \"#utility.yul\":1264:1293   */\n      swap1\n      pop\n        /* \"#utility.yul\":1130:1299   */\n      swap3\n      swap2\n      pop\n      pop\n      jump\t// out\n        /* \"#utility.yul\":1305:1444   */\n    tag_39:\n        /* \"#utility.yul\":1394:1400   */\n      dup3\n        /* \"#utility.yul\":1389:1392   */\n      dup2\n        /* \"#utility.yul\":1384:1387   */\n      dup4\n        /* \"#utility.yul\":1378:1401   */\n      mcopy\n        /* \"#utility.yul\":1435:1436   */\n      0x00\n        /* \"#utility.yul\":1426:1432   */\n      dup4\n        /* \"#utility.yul\":1421:1424   */\n      dup4\n        /* \"#utility.yul\":1417:1433   */\n      add\n        /* \"#utility.yul\":1410:1437   */\n      mstore\n        /* \"#utility.yul\":1305:1444   */\n      pop\n      pop\n      pop\n      jump\t// out\n        /* \"#utility.yul\":1450:1552   */\n    tag_40:\n        /* \"#utility.yul\":1491:1497   */\n      0x00\n        /* \"#utility.yul\":1542:1544   */\n      0x1f\n        /* \"#utility.yul\":1538:1545   */\n      not\n        /* \"#utility.yul\":1533:1535   */\n      0x1f\n        /* \"#utility.yul\":1526:1531   */\n      dup4\n        /* \"#utility.yul\":1522:1536   */\n      add\n        /* \"#utility.yul\":1518:1546   */\n      and\n        /* \"#utility.yul\":1508:1546   */\n      swap1\n      pop\n        /* \"#utility.yul\":1450:1552   */\n      swap2\n      swap1\n      pop\n      jump\t// out\n        /* \"#utility.yul\":1558:1935   */\n    tag_41:\n        /* \"#utility.yul\":1646:1649   */\n      0x00\n        /* \"#utility.yul\":1674:1713   */\n      tag_72\n        /* \"#utility.yul\":1707:1712   */\n      dup3\n        /* \"#utility.yul\":1674:1713   */\n      tag_37\n      jump\t// in\n    tag_72:\n        /* \"#utility.yul\":1729:1800   */\n      tag_73\n        /* \"#utility.yul\":1793:1799   */\n      dup2\n        /* \"#utility.yul\":1788:1791   */\n      dup6\n        /* \"#utility.yul\":1729:1800   */\n      tag_38\n      jump\t// in\n    tag_73:\n        /* \"#utility.yul\":1722:1800   */\n      swap4\n      pop\n        /* \"#utility.yul\":1809:1874   */\n      tag_74\n        /* \"#utility.yul\":1867:1873   */\n      dup2\n        /* \"#utility.yul\":1862:1865   */\n      dup6\n        /* \"#utility.yul\":1855:1859   */\n      0x20\n        /* \"#utility.yul\":1848:1853   */\n      dup7\n        /* \"#utility.yul\":1844:1860   */\n      add\n        /* \"#utility.yul\":1809:1874   */\n      tag_39\n      jump\t// in\n    tag_74:\n        /* \"#utility.yul\":1899:1928   */\n      tag_75\n        /* \"#utility.yul\":1921:1927   */\n      dup2\n        /* \"#utility.yul\":1899:1928   */\n      tag_40\n      jump\t// in\n    tag_75:\n        /* \"#utility.yul\":1894:1897   */\n      dup5\n        /* \"#utility.yul\":1890:1929   */\n      add\n        /* \"#utility.yul\":1883:1929   */\n      swap2\n      pop\n        /* \"#utility.yul\":1650:1935   */\n      pop\n        /* \"#utility.yul\":1558:1935   */\n      swap3\n      swap2\n      pop\n      pop\n      jump\t// out\n        /* \"#utility.yul\":1941:2254   */\n    tag_9:\n        /* \"#utility.yul\":2054:2058   */\n      0x00\n        /* \"#utility.yul\":2092:2094   */\n      0x20\n        /* \"#utility.yul\":2081:2090   */\n      dup3\n        /* \"#utility.yul\":2077:2095   */\n      add\n        /* \"#utility.yul\":2069:2095   */\n      swap1\n      pop\n        /* \"#utility.yul\":2141:2150   */\n      dup2\n        /* \"#utility.yul\":2135:2139   */\n      dup2\n        /* \"#utility.yul\":2131:2151   */\n      sub\n        /* \"#utility.yul\":2127:2128   */\n      0x00\n        /* \"#utility.yul\":2116:2125   */\n      dup4\n        /* \"#utility.yul\":2112:2129   */\n      add\n        /* \"#utility.yul\":2105:2152   */\n      mstore\n        /* \"#utility.yul\":2169:2247   */\n      tag_77\n        /* \"#utility.yul\":2242:2246   */\n      dup2\n        /* \"#utility.yul\":2233:2239   */\n      dup5\n        /* \"#utility.yul\":2169:2247   */\n      tag_41\n      jump\t// in\n    tag_77:\n        /* \"#utility.yul\":2161:2247   */\n      swap1\n      pop\n        /* \"#utility.yul\":1941:2254   */\n      swap3\n      swap2\n      pop\n      pop\n      jump\t// out\n        /* \"#utility.yul\":2260:2438   */\n    tag_42:\n        /* \"#utility.yul\":2400:2430   */\n      0x4e756d626572206f7574206f662072616e67652028312d333939392900000000\n        /* \"#utility.yul\":2396:2397   */\n      0x00\n        /* \"#utility.yul\":2388:2394   */\n      dup3\n        /* \"#utility.yul\":2384:2398   */\n      add\n        /* \"#utility.yul\":2377:2431   */\n      mstore\n        /* \"#utility.yul\":2260:2438   */\n      pop\n      jump\t// out\n        /* \"#utility.yul\":2444:2810   */\n    tag_43:\n        /* \"#utility.yul\":2586:2589   */\n      0x00\n        /* \"#utility.yul\":2607:2674   */\n      tag_80\n        /* \"#utility.yul\":2671:2673   */\n      0x1c\n        /* \"#utility.yul\":2666:2669   */\n      dup4\n        /* \"#utility.yul\":2607:2674   */\n      tag_38\n      jump\t// in\n    tag_80:\n        /* \"#utility.yul\":2600:2674   */\n      swap2\n      pop\n        /* \"#utility.yul\":2683:2776   */\n      tag_81\n        /* \"#utility.yul\":2772:2775   */\n      dup3\n        /* \"#utility.yul\":2683:2776   */\n      tag_42\n      jump\t// in\n    tag_81:\n        /* \"#utility.yul\":2801:2803   */\n      0x20\n        /* \"#utility.yul\":2796:2799   */\n      dup3\n        /* \"#utility.yul\":2792:2804   */\n      add\n        /* \"#utility.yul\":2785:2804   */\n      swap1\n      pop\n        /* \"#utility.yul\":2444:2810   */\n      swap2\n      swap1\n      pop\n      jump\t// out\n        /* \"#utility.yul\":2816:3235   */\n    tag_14:\n        /* \"#utility.yul\":2982:2986   */\n      0x00\n        /* \"#utility.yul\":3020:3022   */\n      0x20\n        /* \"#utility.yul\":3009:3018   */\n      dup3\n        /* \"#utility.yul\":3005:3023   */\n      add\n        /* \"#utility.yul\":2997:3023   */\n      swap1\n      pop\n        /* \"#utility.yul\":3069:3078   */\n      dup2\n        /* \"#utility.yul\":3063:3067   */\n      dup2\n        /* \"#utility.yul\":3059:3079   */\n      sub\n        /* \"#utility.yul\":3055:3056   */\n      0x00\n        /* \"#utility.yul\":3044:3053   */\n      dup4\n        /* \"#utility.yul\":3040:3057   */\n      add\n        /* \"#utility.yul\":3033:3080   */\n      mstore\n        /* \"#utility.yul\":3097:3228   */\n      tag_83\n        /* \"#utility.yul\":3223:3227   */\n      dup2\n        /* \"#utility.yul\":3097:3228   */\n      tag_43\n      jump\t// in\n    tag_83:\n        /* \"#utility.yul\":3089:3228   */\n      swap1\n      pop\n        /* \"#utility.yul\":2816:3235   */\n      swap2\n      swap1\n      pop\n      jump\t// out\n        /* \"#utility.yul\":3241:3421   */\n    tag_22:\n        /* \"#utility.yul\":3289:3366   */\n      0x4e487b7100000000000000000000000000000000000000000000000000000000\n        /* \"#utility.yul\":3286:3287   */\n      0x00\n        /* \"#utility.yul\":3279:3367   */\n      mstore\n        /* \"#utility.yul\":3386:3390   */\n      0x32\n        /* \"#utility.yul\":3383:3384   */\n      0x04\n        /* \"#utility.yul\":3376:3391   */\n      mstore\n        /* \"#utility.yul\":3410:3414   */\n      0x24\n        /* \"#utility.yul\":3407:3408   */\n      0x00\n        /* \"#utility.yul\":3400:3415   */\n      revert\n        /* \"#utility.yul\":3427:3607   */\n    tag_44:\n        /* \"#utility.yul\":3475:3552   */\n      0x4e487b7100000000000000000000000000000000000000000000000000000000\n        /* \"#utility.yul\":3472:3473   */\n      0x00\n        /* \"#utility.yul\":3465:3553   */\n      mstore\n        /* \"#utility.yul\":3572:3576   */\n      0x11\n        /* \"#utility.yul\":3569:3570   */\n      0x04\n        /* \"#utility.yul\":3562:3577   */\n      mstore\n        /* \"#utility.yul\":3596:3600   */\n      0x24\n        /* \"#utility.yul\":3593:3594   */\n      0x00\n        /* \"#utility.yul\":3586:3601   */\n      revert\n        /* \"#utility.yul\":3613:3807   */\n    tag_26:\n        /* \"#utility.yul\":3653:3657   */\n      0x00\n        /* \"#utility.yul\":3673:3693   */\n      tag_87\n        /* \"#utility.yul\":3691:3692   */\n      dup3\n        /* \"#utility.yul\":3673:3693   */\n      tag_34\n      jump\t// in\n    tag_87:\n        /* \"#utility.yul\":3668:3693   */\n      swap2\n      pop\n        /* \"#utility.yul\":3707:3727   */\n      tag_88\n        /* \"#utility.yul\":3725:3726   */\n      dup4\n        /* \"#utility.yul\":3707:3727   */\n      tag_34\n      jump\t// in\n    tag_88:\n        /* \"#utility.yul\":3702:3727   */\n      swap3\n      pop\n        /* \"#utility.yul\":3751:3752   */\n      dup3\n        /* \"#utility.yul\":3748:3749   */\n      dup3\n        /* \"#utility.yul\":3744:3753   */\n      sub\n        /* \"#utility.yul\":3736:3753   */\n      swap1\n      pop\n        /* \"#utility.yul\":3775:3776   */\n      dup2\n        /* \"#utility.yul\":3769:3773   */\n      dup2\n        /* \"#utility.yul\":3766:3777   */\n      gt\n        /* \"#utility.yul\":3763:3800   */\n      iszero\n      tag_89\n      jumpi\n        /* \"#utility.yul\":3780:3798   */\n      tag_90\n      tag_44\n      jump\t// in\n    tag_90:\n        /* \"#utility.yul\":3763:3800   */\n    tag_89:\n        /* \"#utility.yul\":3613:3807   */\n      swap3\n      swap2\n      pop\n      pop\n      jump\t// out\n        /* \"#utility.yul\":3813:3911   */\n    tag_45:\n        /* \"#utility.yul\":3864:3870   */\n      0x00\n        /* \"#utility.yul\":3898:3903   */\n      dup2\n        /* \"#utility.yul\":3892:3904   */\n      mload\n        /* \"#utility.yul\":3882:3904   */\n      swap1\n      pop\n        /* \"#utility.yul\":3813:3911   */\n      swap2\n      swap1\n      pop\n      jump\t// out\n        /* \"#utility.yul\":3917:4064   */\n    tag_46:\n        /* \"#utility.yul\":4018:4029   */\n      0x00\n        /* \"#utility.yul\":4055:4058   */\n      dup2\n        /* \"#utility.yul\":4040:4058   */\n      swap1\n      pop\n        /* \"#utility.yul\":3917:4064   */\n      swap3\n      swap2\n      pop\n      pop\n      jump\t// out\n        /* \"#utility.yul\":4070:4456   */\n    tag_47:\n        /* \"#utility.yul\":4174:4177   */\n      0x00\n        /* \"#utility.yul\":4202:4240   */\n      tag_94\n        /* \"#utility.yul\":4234:4239   */\n      dup3\n        /* \"#utility.yul\":4202:4240   */\n      tag_45\n      jump\t// in\n    tag_94:\n        /* \"#utility.yul\":4256:4344   */\n      tag_95\n        /* \"#utility.yul\":4337:4343   */\n      dup2\n        /* \"#utility.yul\":4332:4335   */\n      dup6\n        /* \"#utility.yul\":4256:4344   */\n      tag_46\n      jump\t// in\n    tag_95:\n        /* \"#utility.yul\":4249:4344   */\n      swap4\n      pop\n        /* \"#utility.yul\":4353:4418   */\n      tag_96\n        /* \"#utility.yul\":4411:4417   */\n      dup2\n        /* \"#utility.yul\":4406:4409   */\n      dup6\n        /* \"#utility.yul\":4399:4403   */\n      0x20\n        /* \"#utility.yul\":4392:4397   */\n      dup7\n        /* \"#utility.yul\":4388:4404   */\n      add\n        /* \"#utility.yul\":4353:4418   */\n      tag_39\n      jump\t// in\n    tag_96:\n        /* \"#utility.yul\":4443:4449   */\n      dup1\n        /* \"#utility.yul\":4438:4441   */\n      dup5\n        /* \"#utility.yul\":4434:4450   */\n      add\n        /* \"#utility.yul\":4427:4450   */\n      swap2\n      pop\n        /* \"#utility.yul\":4178:4456   */\n      pop\n        /* \"#utility.yul\":4070:4456   */\n      swap3\n      swap2\n      pop\n      pop\n      jump\t// out\n        /* \"#utility.yul\":4462:4642   */\n    tag_48:\n        /* \"#utility.yul\":4510:4587   */\n      0x4e487b7100000000000000000000000000000000000000000000000000000000\n        /* \"#utility.yul\":4507:4508   */\n      0x00\n        /* \"#utility.yul\":4500:4588   */\n      mstore\n        /* \"#utility.yul\":4607:4611   */\n      0x22\n        /* \"#utility.yul\":4604:4605   */\n      0x04\n        /* \"#utility.yul\":4597:4612   */\n      mstore\n        /* \"#utility.yul\":4631:4635   */\n      0x24\n        /* \"#utility.yul\":4628:4629   */\n      0x00\n        /* \"#utility.yul\":4621:4636   */\n      revert\n        /* \"#utility.yul\":4648:4968   */\n    tag_49:\n        /* \"#utility.yul\":4692:4698   */\n      0x00\n        /* \"#utility.yul\":4729:4730   */\n      0x02\n        /* \"#utility.yul\":4723:4727   */\n      dup3\n        /* \"#utility.yul\":4719:4731   */\n      div\n        /* \"#utility.yul\":4709:4731   */\n      swap1\n      pop\n        /* \"#utility.yul\":4776:4777   */\n      0x01\n        /* \"#utility.yul\":4770:4774   */\n      dup3\n        /* \"#utility.yul\":4766:4778   */\n      and\n        /* \"#utility.yul\":4797:4815   */\n      dup1\n        /* \"#utility.yul\":4787:4868   */\n      tag_99\n      jumpi\n        /* \"#utility.yul\":4853:4857   */\n      0x7f\n        /* \"#utility.yul\":4845:4851   */\n      dup3\n        /* \"#utility.yul\":4841:4858   */\n      and\n        /* \"#utility.yul\":4831:4858   */\n      swap2\n      pop\n        /* \"#utility.yul\":4787:4868   */\n    tag_99:\n        /* \"#utility.yul\":4915:4917   */\n      0x20\n        /* \"#utility.yul\":4907:4913   */\n      dup3\n        /* \"#utility.yul\":4904:4918   */\n      lt\n        /* \"#utility.yul\":4884:4902   */\n      dup2\n        /* \"#utility.yul\":4881:4919   */\n      sub\n        /* \"#utility.yul\":4878:4962   */\n      tag_100\n      jumpi\n        /* \"#utility.yul\":4934:4952   */\n      tag_101\n      tag_48\n      jump\t// in\n    tag_101:\n        /* \"#utility.yul\":4878:4962   */\n    tag_100:\n        /* \"#utility.yul\":4699:4968   */\n      pop\n        /* \"#utility.yul\":4648:4968   */\n      swap2\n      swap1\n      pop\n      jump\t// out\n        /* \"#utility.yul\":4974:5122   */\n    tag_50:\n        /* \"#utility.yul\":5076:5087   */\n      0x00\n        /* \"#utility.yul\":5113:5116   */\n      dup2\n        /* \"#utility.yul\":5098:5116   */\n      swap1\n      pop\n        /* \"#utility.yul\":4974:5122   */\n      swap3\n      swap2\n      pop\n      pop\n      jump\t// out\n        /* \"#utility.yul\":5128:5269   */\n    tag_51:\n        /* \"#utility.yul\":5177:5181   */\n      0x00\n        /* \"#utility.yul\":5200:5203   */\n      dup2\n        /* \"#utility.yul\":5192:5203   */\n      swap1\n      pop\n        /* \"#utility.yul\":5223:5226   */\n      dup2\n        /* \"#utility.yul\":5220:5221   */\n      0x00\n        /* \"#utility.yul\":5213:5227   */\n      mstore\n        /* \"#utility.yul\":5257:5261   */\n      0x20\n        /* \"#utility.yul\":5254:5255   */\n      0x00\n        /* \"#utility.yul\":5244:5262   */\n      keccak256\n        /* \"#utility.yul\":5236:5262   */\n      swap1\n      pop\n        /* \"#utility.yul\":5128:5269   */\n      swap2\n      swap1\n      pop\n      jump\t// out\n        /* \"#utility.yul\":5299:6173   */\n    tag_52:\n        /* \"#utility.yul\":5402:5405   */\n      0x00\n        /* \"#utility.yul\":5439:5444   */\n      dup2\n        /* \"#utility.yul\":5433:5445   */\n      sload\n        /* \"#utility.yul\":5468:5504   */\n      tag_105\n        /* \"#utility.yul\":5494:5503   */\n      dup2\n        /* \"#utility.yul\":5468:5504   */\n      tag_49\n      jump\t// in\n    tag_105:\n        /* \"#utility.yul\":5520:5609   */\n      tag_106\n        /* \"#utility.yul\":5602:5608   */\n      dup2\n        /* \"#utility.yul\":5597:5600   */\n      dup7\n        /* \"#utility.yul\":5520:5609   */\n      tag_50\n      jump\t// in\n    tag_106:\n        /* \"#utility.yul\":5513:5609   */\n      swap5\n      pop\n        /* \"#utility.yul\":5640:5641   */\n      0x01\n        /* \"#utility.yul\":5629:5638   */\n      dup3\n        /* \"#utility.yul\":5625:5642   */\n      and\n        /* \"#utility.yul\":5656:5657   */\n      0x00\n        /* \"#utility.yul\":5651:5817   */\n      dup2\n      eq\n      tag_108\n      jumpi\n        /* \"#utility.yul\":5831:5832   */\n      0x01\n        /* \"#utility.yul\":5826:6167   */\n      dup2\n      eq\n      tag_109\n      jumpi\n        /* \"#utility.yul\":5618:6167   */\n      jump(tag_107)\n        /* \"#utility.yul\":5651:5817   */\n    tag_108:\n        /* \"#utility.yul\":5735:5739   */\n      0xff\n        /* \"#utility.yul\":5731:5740   */\n      not\n        /* \"#utility.yul\":5720:5729   */\n      dup4\n        /* \"#utility.yul\":5716:5741   */\n      and\n        /* \"#utility.yul\":5711:5714   */\n      dup7\n        /* \"#utility.yul\":5704:5742   */\n      mstore\n        /* \"#utility.yul\":5797:5803   */\n      dup2\n        /* \"#utility.yul\":5790:5804   */\n      iszero\n        /* \"#utility.yul\":5783:5805   */\n      iszero\n        /* \"#utility.yul\":5775:5781   */\n      dup3\n        /* \"#utility.yul\":5771:5806   */\n      mul\n        /* \"#utility.yul\":5766:5769   */\n      dup7\n        /* \"#utility.yul\":5762:5807   */\n      add\n        /* \"#utility.yul\":5755:5807   */\n      swap4\n      pop\n        /* \"#utility.yul\":5651:5817   */\n      jump(tag_107)\n        /* \"#utility.yul\":5826:6167   */\n    tag_109:\n        /* \"#utility.yul\":5893:5931   */\n      tag_110\n        /* \"#utility.yul\":5925:5930   */\n      dup6\n        /* \"#utility.yul\":5893:5931   */\n      tag_51\n      jump\t// in\n    tag_110:\n        /* \"#utility.yul\":5953:5954   */\n      0x00\n        /* \"#utility.yul\":5967:6121   */\n    tag_111:\n        /* \"#utility.yul\":5981:5987   */\n      dup4\n        /* \"#utility.yul\":5978:5979   */\n      dup2\n        /* \"#utility.yul\":5975:5988   */\n      lt\n        /* \"#utility.yul\":5967:6121   */\n      iszero\n      tag_113\n      jumpi\n        /* \"#utility.yul\":6055:6062   */\n      dup2\n        /* \"#utility.yul\":6049:6063   */\n      sload\n        /* \"#utility.yul\":6045:6046   */\n      dup2\n        /* \"#utility.yul\":6040:6043   */\n      dup10\n        /* \"#utility.yul\":6036:6047   */\n      add\n        /* \"#utility.yul\":6029:6064   */\n      mstore\n        /* \"#utility.yul\":6105:6106   */\n      0x01\n        /* \"#utility.yul\":6096:6103   */\n      dup3\n        /* \"#utility.yul\":6092:6107   */\n      add\n        /* \"#utility.yul\":6081:6107   */\n      swap2\n      pop\n        /* \"#utility.yul\":6003:6007   */\n      0x20\n        /* \"#utility.yul\":6000:6001   */\n      dup2\n        /* \"#utility.yul\":5996:6008   */\n      add\n        /* \"#utility.yul\":5991:6008   */\n      swap1\n      pop\n        /* \"#utility.yul\":5967:6121   */\n      jump(tag_111)\n    tag_113:\n        /* \"#utility.yul\":6150:6156   */\n      dup4\n        /* \"#utility.yul\":6145:6148   */\n      dup9\n        /* \"#utility.yul\":6141:6157   */\n      add\n        /* \"#utility.yul\":6134:6157   */\n      swap6\n      pop\n        /* \"#utility.yul\":5833:6167   */\n      pop\n      pop\n        /* \"#utility.yul\":5618:6167   */\n    tag_107:\n      pop\n        /* \"#utility.yul\":5406:6173   */\n      pop\n      pop\n        /* \"#utility.yul\":5299:6173   */\n      swap3\n      swap2\n      pop\n      pop\n      jump\t// out\n        /* \"#utility.yul\":6179:6604   */\n    tag_30:\n        /* \"#utility.yul\":6354:6357   */\n      0x00\n        /* \"#utility.yul\":6376:6469   */\n      tag_115\n        /* \"#utility.yul\":6465:6468   */\n      dup3\n        /* \"#utility.yul\":6456:6462   */\n      dup6\n        /* \"#utility.yul\":6376:6469   */\n      tag_47\n      jump\t// in\n    tag_115:\n        /* \"#utility.yul\":6369:6469   */\n      swap2\n      pop\n        /* \"#utility.yul\":6486:6578   */\n      tag_116\n        /* \"#utility.yul\":6574:6577   */\n      dup3\n        /* \"#utility.yul\":6565:6571   */\n      dup5\n        /* \"#utility.yul\":6486:6578   */\n      tag_52\n      jump\t// in\n    tag_116:\n        /* \"#utility.yul\":6479:6578   */\n      swap2\n      pop\n        /* \"#utility.yul\":6595:6598   */\n      dup2\n        /* \"#utility.yul\":6588:6598   */\n      swap1\n      pop\n        /* \"#utility.yul\":6179:6604   */\n      swap4\n      swap3\n      pop\n      pop\n      pop\n      jump\t// out\n\n    auxdata: 0xa264697066735822122011a8bf1bd1ef538f08c8d723d1bdce294422d135a559da99fb67ffb8c767e1d264736f6c634300081e0033\n}\n",
				"bytecode": {
					"linkReferences": {},
					"object": "608060405234801561000f575f5ffd5b506040518060400160405280600181526020017f49000000000000000000000000000000000000000000000000000000000000008152505f5f600181526020019081526020015f209081610063919061069a565b506040518060400160405280600281526020017f49560000000000000000000000000000000000000000000000000000000000008152505f5f600481526020019081526020015f2090816100b7919061069a565b506040518060400160405280600181526020017f56000000000000000000000000000000000000000000000000000000000000008152505f5f600581526020019081526020015f20908161010b919061069a565b506040518060400160405280600281526020017f49580000000000000000000000000000000000000000000000000000000000008152505f5f600981526020019081526020015f20908161015f919061069a565b506040518060400160405280600181526020017f58000000000000000000000000000000000000000000000000000000000000008152505f5f600a81526020019081526020015f2090816101b3919061069a565b506040518060400160405280600281526020017f584c0000000000000000000000000000000000000000000000000000000000008152505f5f602881526020019081526020015f209081610207919061069a565b506040518060400160405280600181526020017f4c000000000000000000000000000000000000000000000000000000000000008152505f5f603281526020019081526020015f20908161025b919061069a565b506040518060400160405280600281526020017f58430000000000000000000000000000000000000000000000000000000000008152505f5f605a81526020019081526020015f2090816102af919061069a565b506040518060400160405280600181526020017f43000000000000000000000000000000000000000000000000000000000000008152505f5f606481526020019081526020015f209081610303919061069a565b506040518060400160405280600281526020017f43440000000000000000000000000000000000000000000000000000000000008152505f5f61019081526020019081526020015f209081610358919061069a565b506040518060400160405280600181526020017f44000000000000000000000000000000000000000000000000000000000000008152505f5f6101f481526020019081526020015f2090816103ad919061069a565b506040518060400160405280600281526020017f434d0000000000000000000000000000000000000000000000000000000000008152505f5f61038481526020019081526020015f209081610402919061069a565b506040518060400160405280600181526020017f4d000000000000000000000000000000000000000000000000000000000000008152505f5f6103e881526020019081526020015f209081610457919061069a565b50610769565b5f81519050919050565b7f4e487b71000000000000000000000000000000000000000000000000000000005f52604160045260245ffd5b7f4e487b71000000000000000000000000000000000000000000000000000000005f52602260045260245ffd5b5f60028204905060018216806104d857607f821691505b6020821081036104eb576104ea610494565b5b50919050565b5f819050815f5260205f209050919050565b5f6020601f8301049050919050565b5f82821b905092915050565b5f6008830261054d7fffffffffffffffffffffffffffffffffffffffffffffffffffffffffffffffff82610512565b6105578683610512565b95508019841693508086168417925050509392505050565b5f819050919050565b5f819050919050565b5f61059b6105966105918461056f565b610578565b61056f565b9050919050565b5f819050919050565b6105b483610581565b6105c86105c0826105a2565b84845461051e565b825550505050565b5f5f905090565b6105df6105d0565b6105ea8184846105ab565b505050565b5b8181101561060d576106025f826105d7565b6001810190506105f0565b5050565b601f82111561065257610623816104f1565b61062c84610503565b8101602085101561063b578190505b61064f61064785610503565b8301826105ef565b50505b505050565b5f82821c905092915050565b5f6106725f1984600802610657565b1980831691505092915050565b5f61068a8383610663565b9150826002028217905092915050565b6106a38261045d565b67ffffffffffffffff8111156106bc576106bb610467565b5b6106c682546104c1565b6106d1828285610611565b5f60209050601f831160018114610702575f84156106f0578287015190505b6106fa858261067f565b865550610761565b601f198416610710866104f1565b5f5b8281101561073757848901518255600182019150602085019450602081019050610712565b868310156107545784890151610750601f891682610663565b8355505b6001600288020188555050505b505050505050565b610553806107765f395ff3fe608060405234801561000f575f5ffd5b5060043610610029575f3560e01c80630cbc513a1461002d575b5f5ffd5b6100476004803603810190610042919061020d565b61005d565b60405161005491906102a8565b60405180910390f35b60605f821180156100705750610f9f8211155b6100af576040517f08c379a00000000000000000000000000000000000000000000000000000000081526004016100a690610312565b60405180910390fd5b5f604051806101a001604052806103e8815260200161038481526020016101f48152602001610190815260200160648152602001605a81526020016032815260200160288152602001600a81526020016009815260200160058152602001600481526020016001815250905060605f5f90505b600d8110156101cb575b8281600d811061013f5761013e610330565b5b602002015185106101be578281600d811061015d5761015c610330565b5b60200201518561016d919061038a565b9450815f5f8584600d811061018557610184610330565b5b602002015181526020019081526020015f206040516020016101a89291906104fa565b604051602081830303815290604052915061012c565b8080600101915050610122565b508092505050919050565b5f5ffd5b5f819050919050565b6101ec816101da565b81146101f6575f5ffd5b50565b5f81359050610207816101e3565b92915050565b5f60208284031215610222576102216101d6565b5b5f61022f848285016101f9565b91505092915050565b5f81519050919050565b5f82825260208201905092915050565b8281835e5f83830152505050565b5f601f19601f8301169050919050565b5f61027a82610238565b6102848185610242565b9350610294818560208601610252565b61029d81610260565b840191505092915050565b5f6020820190508181035f8301526102c08184610270565b905092915050565b7f4e756d626572206f7574206f662072616e67652028312d3339393929000000005f82015250565b5f6102fc601c83610242565b9150610307826102c8565b602082019050919050565b5f6020820190508181035f830152610329816102f0565b9050919050565b7f4e487b71000000000000000000000000000000000000000000000000000000005f52603260045260245ffd5b7f4e487b71000000000000000000000000000000000000000000000000000000005f52601160045260245ffd5b5f610394826101da565b915061039f836101da565b92508282039050818111156103b7576103b661035d565b5b92915050565b5f81519050919050565b5f81905092915050565b5f6103db826103bd565b6103e581856103c7565b93506103f5818560208601610252565b80840191505092915050565b7f4e487b71000000000000000000000000000000000000000000000000000000005f52602260045260245ffd5b5f600282049050600182168061044557607f821691505b60208210810361045857610457610401565b5b50919050565b5f81905092915050565b5f819050815f5260205f209050919050565b5f81546104868161042e565b610490818661045e565b9450600182165f81146104aa57600181146104bf576104f1565b60ff19831686528115158202860193506104f1565b6104c885610468565b5f5b838110156104e9578154818901526001820191506020810190506104ca565b838801955050505b50505092915050565b5f61050582856103d1565b9150610511828461047a565b9150819050939250505056fea264697066735822122011a8bf1bd1ef538f08c8d723d1bdce294422d135a559da99fb67ffb8c767e1d264736f6c634300081e0033",
					"opcodes": "PUSH1 0x80 PUSH1 0x40 MSTORE CALLVALUE DUP1 ISZERO PUSH2 0xF JUMPI PUSH0 PUSH0 REVERT JUMPDEST POP PUSH1 0x40 MLOAD DUP1 PUSH1 0x40 ADD PUSH1 0x40 MSTORE DUP1 PUSH1 0x1 DUP2 MSTORE PUSH1 0x20 ADD PUSH32 0x4900000000000000000000000000000000000000000000000000000000000000 DUP2 MSTORE POP PUSH0 PUSH0 PUSH1 0x1 DUP2 MSTORE PUSH1 0x20 ADD SWAP1 DUP2 MSTORE PUSH1 0x20 ADD PUSH0 KECCAK256 SWAP1 DUP2 PUSH2 0x63 SWAP2 SWAP1 PUSH2 0x69A JUMP JUMPDEST POP PUSH1 0x40 MLOAD DUP1 PUSH1 0x40 ADD PUSH1 0x40 MSTORE DUP1 PUSH1 0x2 DUP2 MSTORE PUSH1 0x20 ADD PUSH32 0x4956000000000000000000000000000000000000000000000000000000000000 DUP2 MSTORE POP PUSH0 PUSH0 PUSH1 0x4 DUP2 MSTORE PUSH1 0x20 ADD SWAP1 DUP2 MSTORE PUSH1 0x20 ADD PUSH0 KECCAK256 SWAP1 DUP2 PUSH2 0xB7 SWAP2 SWAP1 PUSH2 0x69A JUMP JUMPDEST POP PUSH1 0x40 MLOAD DUP1 PUSH1 0x40 ADD PUSH1 0x40 MSTORE DUP1 PUSH1 0x1 DUP2 MSTORE PUSH1 0x20 ADD PUSH32 0x5600000000000000000000000000000000000000000000000000000000000000 DUP2 MSTORE POP PUSH0 PUSH0 PUSH1 0x5 DUP2 MSTORE PUSH1 0x20 ADD SWAP1 DUP2 MSTORE PUSH1 0x20 ADD PUSH0 KECCAK256 SWAP1 DUP2 PUSH2 0x10B SWAP2 SWAP1 PUSH2 0x69A JUMP JUMPDEST POP PUSH1 0x40 MLOAD DUP1 PUSH1 0x40 ADD PUSH1 0x40 MSTORE DUP1 PUSH1 0x2 DUP2 MSTORE PUSH1 0x20 ADD PUSH32 0x4958000000000000000000000000000000000000000000000000000000000000 DUP2 MSTORE POP PUSH0 PUSH0 PUSH1 0x9 DUP2 MSTORE PUSH1 0x20 ADD SWAP1 DUP2 MSTORE PUSH1 0x20 ADD PUSH0 KECCAK256 SWAP1 DUP2 PUSH2 0x15F SWAP2 SWAP1 PUSH2 0x69A JUMP JUMPDEST POP PUSH1 0x40 MLOAD DUP1 PUSH1 0x40 ADD PUSH1 0x40 MSTORE DUP1 PUSH1 0x1 DUP2 MSTORE PUSH1 0x20 ADD PUSH32 0x5800000000000000000000000000000000000000000000000000000000000000 DUP2 MSTORE POP PUSH0 PUSH0 PUSH1 0xA DUP2 MSTORE PUSH1 0x20 ADD SWAP1 DUP2 MSTORE PUSH1 0x20 ADD PUSH0 KECCAK256 SWAP1 DUP2 PUSH2 0x1B3 SWAP2 SWAP1 PUSH2 0x69A JUMP JUMPDEST POP PUSH1 0x40 MLOAD DUP1 PUSH1 0x40 ADD PUSH1 0x40 MSTORE DUP1 PUSH1 0x2 DUP2 MSTORE PUSH1 0x20 ADD PUSH32 0x584C000000000000000000000000000000000000000000000000000000000000 DUP2 MSTORE POP PUSH0 PUSH0 PUSH1 0x28 DUP2 MSTORE PUSH1 0x20 ADD SWAP1 DUP2 MSTORE PUSH1 0x20 ADD PUSH0 KECCAK256 SWAP1 DUP2 PUSH2 0x207 SWAP2 SWAP1 PUSH2 0x69A JUMP JUMPDEST POP PUSH1 0x40 MLOAD DUP1 PUSH1 0x40 ADD PUSH1 0x40 MSTORE DUP1 PUSH1 0x1 DUP2 MSTORE PUSH1 0x20 ADD PUSH32 0x4C00000000000000000000000000000000000000000000000000000000000000 DUP2 MSTORE POP PUSH0 PUSH0 PUSH1 0x32 DUP2 MSTORE PUSH1 0x20 ADD SWAP1 DUP2 MSTORE PUSH1 0x20 ADD PUSH0 KECCAK256 SWAP1 DUP2 PUSH2 0x25B SWAP2 SWAP1 PUSH2 0x69A JUMP JUMPDEST POP PUSH1 0x40 MLOAD DUP1 PUSH1 0x40 ADD PUSH1 0x40 MSTORE DUP1 PUSH1 0x2 DUP2 MSTORE PUSH1 0x20 ADD PUSH32 0x5843000000000000000000000000000000000000000000000000000000000000 DUP2 MSTORE POP PUSH0 PUSH0 PUSH1 0x5A DUP2 MSTORE PUSH1 0x20 ADD SWAP1 DUP2 MSTORE PUSH1 0x20 ADD PUSH0 KECCAK256 SWAP1 DUP2 PUSH2 0x2AF SWAP2 SWAP1 PUSH2 0x69A JUMP JUMPDEST POP PUSH1 0x40 MLOAD DUP1 PUSH1 0x40 ADD PUSH1 0x40 MSTORE DUP1 PUSH1 0x1 DUP2 MSTORE PUSH1 0x20 ADD PUSH32 0x4300000000000000000000000000000000000000000000000000000000000000 DUP2 MSTORE POP PUSH0 PUSH0 PUSH1 0x64 DUP2 MSTORE PUSH1 0x20 ADD SWAP1 DUP2 MSTORE PUSH1 0x20 ADD PUSH0 KECCAK256 SWAP1 DUP2 PUSH2 0x303 SWAP2 SWAP1 PUSH2 0x69A JUMP JUMPDEST POP PUSH1 0x40 MLOAD DUP1 PUSH1 0x40 ADD PUSH1 0x40 MSTORE DUP1 PUSH1 0x2 DUP2 MSTORE PUSH1 0x20 ADD PUSH32 0x4344000000000000000000000000000000000000000000000000000000000000 DUP2 MSTORE POP PUSH0 PUSH0 PUSH2 0x190 DUP2 MSTORE PUSH1 0x20 ADD SWAP1 DUP2 MSTORE PUSH1 0x20 ADD PUSH0 KECCAK256 SWAP1 DUP2 PUSH2 0x358 SWAP2 SWAP1 PUSH2 0x69A JUMP JUMPDEST POP PUSH1 0x40 MLOAD DUP1 PUSH1 0x40 ADD PUSH1 0x40 MSTORE DUP1 PUSH1 0x1 DUP2 MSTORE PUSH1 0x20 ADD PUSH32 0x4400000000000000000000000000000000000000000000000000000000000000 DUP2 MSTORE POP PUSH0 PUSH0 PUSH2 0x1F4 DUP2 MSTORE PUSH1 0x20 ADD SWAP1 DUP2 MSTORE PUSH1 0x20 ADD PUSH0 KECCAK256 SWAP1 DUP2 PUSH2 0x3AD SWAP2 SWAP1 PUSH2 0x69A JUMP JUMPDEST POP PUSH1 0x40 MLOAD DUP1 PUSH1 0x40 ADD PUSH1 0x40 MSTORE DUP1 PUSH1 0x2 DUP2 MSTORE PUSH1 0x20 ADD PUSH32 0x434D000000000000000000000000000000000000000000000000000000000000 DUP2 MSTORE POP PUSH0 PUSH0 PUSH2 0x384 DUP2 MSTORE PUSH1 0x20 ADD SWAP1 DUP2 MSTORE PUSH1 0x20 ADD PUSH0 KECCAK256 SWAP1 DUP2 PUSH2 0x402 SWAP2 SWAP1 PUSH2 0x69A JUMP JUMPDEST POP PUSH1 0x40 MLOAD DUP1 PUSH1 0x40 ADD PUSH1 0x40 MSTORE DUP1 PUSH1 0x1 DUP2 MSTORE PUSH1 0x20 ADD PUSH32 0x4D00000000000000000000000000000000000000000000000000000000000000 DUP2 MSTORE POP PUSH0 PUSH0 PUSH2 0x3E8 DUP2 MSTORE PUSH1 0x20 ADD SWAP1 DUP2 MSTORE PUSH1 0x20 ADD PUSH0 KECCAK256 SWAP1 DUP2 PUSH2 0x457 SWAP2 SWAP1 PUSH2 0x69A JUMP JUMPDEST POP PUSH2 0x769 JUMP JUMPDEST PUSH0 DUP2 MLOAD SWAP1 POP SWAP2 SWAP1 POP JUMP JUMPDEST PUSH32 0x4E487B7100000000000000000000000000000000000000000000000000000000 PUSH0 MSTORE PUSH1 0x41 PUSH1 0x4 MSTORE PUSH1 0x24 PUSH0 REVERT JUMPDEST PUSH32 0x4E487B7100000000000000000000000000000000000000000000000000000000 PUSH0 MSTORE PUSH1 0x22 PUSH1 0x4 MSTORE PUSH1 0x24 PUSH0 REVERT JUMPDEST PUSH0 PUSH1 0x2 DUP3 DIV SWAP1 POP PUSH1 0x1 DUP3 AND DUP1 PUSH2 0x4D8 JUMPI PUSH1 0x7F DUP3 AND SWAP2 POP JUMPDEST PUSH1 0x20 DUP3 LT DUP2 SUB PUSH2 0x4EB JUMPI PUSH2 0x4EA PUSH2 0x494 JUMP JUMPDEST JUMPDEST POP SWAP2 SWAP1 POP JUMP JUMPDEST PUSH0 DUP2 SWAP1 POP DUP2 PUSH0 MSTORE PUSH1 0x20 PUSH0 KECCAK256 SWAP1 POP SWAP2 SWAP1 POP JUMP JUMPDEST PUSH0 PUSH1 0x20 PUSH1 0x1F DUP4 ADD DIV SWAP1 POP SWAP2 SWAP1 POP JUMP JUMPDEST PUSH0 DUP3 DUP3 SHL SWAP1 POP SWAP3 SWAP2 POP POP JUMP JUMPDEST PUSH0 PUSH1 0x8 DUP4 MUL PUSH2 0x54D PUSH32 0xFFFFFFFFFFFFFFFFFFFFFFFFFFFFFFFFFFFFFFFFFFFFFFFFFFFFFFFFFFFFFFFF DUP3 PUSH2 0x512 JUMP JUMPDEST PUSH2 0x557 DUP7 DUP4 PUSH2 0x512 JUMP JUMPDEST SWAP6 POP DUP1 NOT DUP5 AND SWAP4 POP DUP1 DUP7 AND DUP5 OR SWAP3 POP POP POP SWAP4 SWAP3 POP POP POP JUMP JUMPDEST PUSH0 DUP2 SWAP1 POP SWAP2 SWAP1 POP JUMP JUMPDEST PUSH0 DUP2 SWAP1 POP SWAP2 SWAP1 POP JUMP JUMPDEST PUSH0 PUSH2 0x59B PUSH2 0x596 PUSH2 0x591 DUP5 PUSH2 0x56F JUMP JUMPDEST PUSH2 0x578 JUMP JUMPDEST PUSH2 0x56F JUMP JUMPDEST SWAP1 POP SWAP2 SWAP1 POP JUMP JUMPDEST PUSH0 DUP2 SWAP1 POP SWAP2 SWAP1 POP JUMP JUMPDEST PUSH2 0x5B4 DUP4 PUSH2 0x581 JUMP JUMPDEST PUSH2 0x5C8 PUSH2 0x5C0 DUP3 PUSH2 0x5A2 JUMP JUMPDEST DUP5 DUP5 SLOAD PUSH2 0x51E JUMP JUMPDEST DUP3 SSTORE POP POP POP POP JUMP JUMPDEST PUSH0 PUSH0 SWAP1 POP SWAP1 JUMP JUMPDEST PUSH2 0x5DF PUSH2 0x5D0 JUMP JUMPDEST PUSH2 0x5EA DUP2 DUP5 DUP5 PUSH2 0x5AB JUMP JUMPDEST POP POP POP JUMP JUMPDEST JUMPDEST DUP2 DUP2 LT ISZERO PUSH2 0x60D JUMPI PUSH2 0x602 PUSH0 DUP3 PUSH2 0x5D7 JUMP JUMPDEST PUSH1 0x1 DUP2 ADD SWAP1 POP PUSH2 0x5F0 JUMP JUMPDEST POP POP JUMP JUMPDEST PUSH1 0x1F DUP3 GT ISZERO PUSH2 0x652 JUMPI PUSH2 0x623 DUP2 PUSH2 0x4F1 JUMP JUMPDEST PUSH2 0x62C DUP5 PUSH2 0x503 JUMP JUMPDEST DUP2 ADD PUSH1 0x20 DUP6 LT ISZERO PUSH2 0x63B JUMPI DUP2 SWAP1 POP JUMPDEST PUSH2 0x64F PUSH2 0x647 DUP6 PUSH2 0x503 JUMP JUMPDEST DUP4 ADD DUP3 PUSH2 0x5EF JUMP JUMPDEST POP POP JUMPDEST POP POP POP JUMP JUMPDEST PUSH0 DUP3 DUP3 SHR SWAP1 POP SWAP3 SWAP2 POP POP JUMP JUMPDEST PUSH0 PUSH2 0x672 PUSH0 NOT DUP5 PUSH1 0x8 MUL PUSH2 0x657 JUMP JUMPDEST NOT DUP1 DUP4 AND SWAP2 POP POP SWAP3 SWAP2 POP POP JUMP JUMPDEST PUSH0 PUSH2 0x68A DUP4 DUP4 PUSH2 0x663 JUMP JUMPDEST SWAP2 POP DUP3 PUSH1 0x2 MUL DUP3 OR SWAP1 POP SWAP3 SWAP2 POP POP JUMP JUMPDEST PUSH2 0x6A3 DUP3 PUSH2 0x45D JUMP JUMPDEST PUSH8 0xFFFFFFFFFFFFFFFF DUP2 GT ISZERO PUSH2 0x6BC JUMPI PUSH2 0x6BB PUSH2 0x467 JUMP JUMPDEST JUMPDEST PUSH2 0x6C6 DUP3 SLOAD PUSH2 0x4C1 JUMP JUMPDEST PUSH2 0x6D1 DUP3 DUP3 DUP6 PUSH2 0x611 JUMP JUMPDEST PUSH0 PUSH1 0x20 SWAP1 POP PUSH1 0x1F DUP4 GT PUSH1 0x1 DUP2 EQ PUSH2 0x702 JUMPI PUSH0 DUP5 ISZERO PUSH2 0x6F0 JUMPI DUP3 DUP8 ADD MLOAD SWAP1 POP JUMPDEST PUSH2 0x6FA DUP6 DUP3 PUSH2 0x67F JUMP JUMPDEST DUP7 SSTORE POP PUSH2 0x761 JUMP JUMPDEST PUSH1 0x1F NOT DUP5 AND PUSH2 0x710 DUP7 PUSH2 0x4F1 JUMP JUMPDEST PUSH0 JUMPDEST DUP3 DUP2 LT ISZERO PUSH2 0x737 JUMPI DUP5 DUP10 ADD MLOAD DUP3 SSTORE PUSH1 0x1 DUP3 ADD SWAP2 POP PUSH1 0x20 DUP6 ADD SWAP5 POP PUSH1 0x20 DUP2 ADD SWAP1 POP PUSH2 0x712 JUMP JUMPDEST DUP7 DUP4 LT ISZERO PUSH2 0x754 JUMPI DUP5 DUP10 ADD MLOAD PUSH2 0x750 PUSH1 0x1F DUP10 AND DUP3 PUSH2 0x663 JUMP JUMPDEST DUP4 SSTORE POP JUMPDEST PUSH1 0x1 PUSH1 0x2 DUP9 MUL ADD DUP9 SSTORE POP POP POP JUMPDEST POP POP POP POP POP POP JUMP JUMPDEST PUSH2 0x553 DUP1 PUSH2 0x776 PUSH0 CODECOPY PUSH0 RETURN INVALID PUSH1 0x80 PUSH1 0x40 MSTORE CALLVALUE DUP1 ISZERO PUSH2 0xF JUMPI PUSH0 PUSH0 REVERT JUMPDEST POP PUSH1 0x4 CALLDATASIZE LT PUSH2 0x29 JUMPI PUSH0 CALLDATALOAD PUSH1 0xE0 SHR DUP1 PUSH4 0xCBC513A EQ PUSH2 0x2D JUMPI JUMPDEST PUSH0 PUSH0 REVERT JUMPDEST PUSH2 0x47 PUSH1 0x4 DUP1 CALLDATASIZE SUB DUP2 ADD SWAP1 PUSH2 0x42 SWAP2 SWAP1 PUSH2 0x20D JUMP JUMPDEST PUSH2 0x5D JUMP JUMPDEST PUSH1 0x40 MLOAD PUSH2 0x54 SWAP2 SWAP1 PUSH2 0x2A8 JUMP JUMPDEST PUSH1 0x40 MLOAD DUP1 SWAP2 SUB SWAP1 RETURN JUMPDEST PUSH1 0x60 PUSH0 DUP3 GT DUP1 ISZERO PUSH2 0x70 JUMPI POP PUSH2 0xF9F DUP3 GT ISZERO JUMPDEST PUSH2 0xAF JUMPI PUSH1 0x40 MLOAD PUSH32 0x8C379A000000000000000000000000000000000000000000000000000000000 DUP2 MSTORE PUSH1 0x4 ADD PUSH2 0xA6 SWAP1 PUSH2 0x312 JUMP JUMPDEST PUSH1 0x40 MLOAD DUP1 SWAP2 SUB SWAP1 REVERT JUMPDEST PUSH0 PUSH1 0x40 MLOAD DUP1 PUSH2 0x1A0 ADD PUSH1 0x40 MSTORE DUP1 PUSH2 0x3E8 DUP2 MSTORE PUSH1 0x20 ADD PUSH2 0x384 DUP2 MSTORE PUSH1 0x20 ADD PUSH2 0x1F4 DUP2 MSTORE PUSH1 0x20 ADD PUSH2 0x190 DUP2 MSTORE PUSH1 0x20 ADD PUSH1 0x64 DUP2 MSTORE PUSH1 0x20 ADD PUSH1 0x5A DUP2 MSTORE PUSH1 0x20 ADD PUSH1 0x32 DUP2 MSTORE PUSH1 0x20 ADD PUSH1 0x28 DUP2 MSTORE PUSH1 0x20 ADD PUSH1 0xA DUP2 MSTORE PUSH1 0x20 ADD PUSH1 0x9 DUP2 MSTORE PUSH1 0x20 ADD PUSH1 0x5 DUP2 MSTORE PUSH1 0x20 ADD PUSH1 0x4 DUP2 MSTORE PUSH1 0x20 ADD PUSH1 0x1 DUP2 MSTORE POP SWAP1 POP PUSH1 0x60 PUSH0 PUSH0 SWAP1 POP JUMPDEST PUSH1 0xD DUP2 LT ISZERO PUSH2 0x1CB JUMPI JUMPDEST DUP3 DUP2 PUSH1 0xD DUP2 LT PUSH2 0x13F JUMPI PUSH2 0x13E PUSH2 0x330 JUMP JUMPDEST JUMPDEST PUSH1 0x20 MUL ADD MLOAD DUP6 LT PUSH2 0x1BE JUMPI DUP3 DUP2 PUSH1 0xD DUP2 LT PUSH2 0x15D JUMPI PUSH2 0x15C PUSH2 0x330 JUMP JUMPDEST JUMPDEST PUSH1 0x20 MUL ADD MLOAD DUP6 PUSH2 0x16D SWAP2 SWAP1 PUSH2 0x38A JUMP JUMPDEST SWAP5 POP DUP2 PUSH0 PUSH0 DUP6 DUP5 PUSH1 0xD DUP2 LT PUSH2 0x185 JUMPI PUSH2 0x184 PUSH2 0x330 JUMP JUMPDEST JUMPDEST PUSH1 0x20 MUL ADD MLOAD DUP2 MSTORE PUSH1 0x20 ADD SWAP1 DUP2 MSTORE PUSH1 0x20 ADD PUSH0 KECCAK256 PUSH1 0x40 MLOAD PUSH1 0x20 ADD PUSH2 0x1A8 SWAP3 SWAP2 SWAP1 PUSH2 0x4FA JUMP JUMPDEST PUSH1 0x40 MLOAD PUSH1 0x20 DUP2 DUP4 SUB SUB DUP2 MSTORE SWAP1 PUSH1 0x40 MSTORE SWAP2 POP PUSH2 0x12C JUMP JUMPDEST DUP1 DUP1 PUSH1 0x1 ADD SWAP2 POP POP PUSH2 0x122 JUMP JUMPDEST POP DUP1 SWAP3 POP POP POP SWAP2 SWAP1 POP JUMP JUMPDEST PUSH0 PUSH0 REVERT JUMPDEST PUSH0 DUP2 SWAP1 POP SWAP2 SWAP1 POP JUMP JUMPDEST PUSH2 0x1EC DUP2 PUSH2 0x1DA JUMP JUMPDEST DUP2 EQ PUSH2 0x1F6 JUMPI PUSH0 PUSH0 REVERT JUMPDEST POP JUMP JUMPDEST PUSH0 DUP2 CALLDATALOAD SWAP1 POP PUSH2 0x207 DUP2 PUSH2 0x1E3 JUMP JUMPDEST SWAP3 SWAP2 POP POP JUMP JUMPDEST PUSH0 PUSH1 0x20 DUP3 DUP5 SUB SLT ISZERO PUSH2 0x222 JUMPI PUSH2 0x221 PUSH2 0x1D6 JUMP JUMPDEST JUMPDEST PUSH0 PUSH2 0x22F DUP5 DUP3 DUP6 ADD PUSH2 0x1F9 JUMP JUMPDEST SWAP2 POP POP SWAP3 SWAP2 POP POP JUMP JUMPDEST PUSH0 DUP2 MLOAD SWAP1 POP SWAP2 SWAP1 POP JUMP JUMPDEST PUSH0 DUP3 DUP3 MSTORE PUSH1 0x20 DUP3 ADD SWAP1 POP SWAP3 SWAP2 POP POP JUMP JUMPDEST DUP3 DUP2 DUP4 MCOPY PUSH0 DUP4 DUP4 ADD MSTORE POP POP POP JUMP JUMPDEST PUSH0 PUSH1 0x1F NOT PUSH1 0x1F DUP4 ADD AND SWAP1 POP SWAP2 SWAP1 POP JUMP JUMPDEST PUSH0 PUSH2 0x27A DUP3 PUSH2 0x238 JUMP JUMPDEST PUSH2 0x284 DUP2 DUP6 PUSH2 0x242 JUMP JUMPDEST SWAP4 POP PUSH2 0x294 DUP2 DUP6 PUSH1 0x20 DUP7 ADD PUSH2 0x252 JUMP JUMPDEST PUSH2 0x29D DUP2 PUSH2 0x260 JUMP JUMPDEST DUP5 ADD SWAP2 POP POP SWAP3 SWAP2 POP POP JUMP JUMPDEST PUSH0 PUSH1 0x20 DUP3 ADD SWAP1 POP DUP2 DUP2 SUB PUSH0 DUP4 ADD MSTORE PUSH2 0x2C0 DUP2 DUP5 PUSH2 0x270 JUMP JUMPDEST SWAP1 POP SWAP3 SWAP2 POP POP JUMP JUMPDEST PUSH32 0x4E756D626572206F7574206F662072616E67652028312D333939392900000000 PUSH0 DUP3 ADD MSTORE POP JUMP JUMPDEST PUSH0 PUSH2 0x2FC PUSH1 0x1C DUP4 PUSH2 0x242 JUMP JUMPDEST SWAP2 POP PUSH2 0x307 DUP3 PUSH2 0x2C8 JUMP JUMPDEST PUSH1 0x20 DUP3 ADD SWAP1 POP SWAP2 SWAP1 POP JUMP JUMPDEST PUSH0 PUSH1 0x20 DUP3 ADD SWAP1 POP DUP2 DUP2 SUB PUSH0 DUP4 ADD MSTORE PUSH2 0x329 DUP2 PUSH2 0x2F0 JUMP JUMPDEST SWAP1 POP SWAP2 SWAP1 POP JUMP JUMPDEST PUSH32 0x4E487B7100000000000000000000000000000000000000000000000000000000 PUSH0 MSTORE PUSH1 0x32 PUSH1 0x4 MSTORE PUSH1 0x24 PUSH0 REVERT JUMPDEST PUSH32 0x4E487B7100000000000000000000000000000000000000000000000000000000 PUSH0 MSTORE PUSH1 0x11 PUSH1 0x4 MSTORE PUSH1 0x24 PUSH0 REVERT JUMPDEST PUSH0 PUSH2 0x394 DUP3 PUSH2 0x1DA JUMP JUMPDEST SWAP2 POP PUSH2 0x39F DUP4 PUSH2 0x1DA JUMP JUMPDEST SWAP3 POP DUP3 DUP3 SUB SWAP1 POP DUP2 DUP2 GT ISZERO PUSH2 0x3B7 JUMPI PUSH2 0x3B6 PUSH2 0x35D JUMP JUMPDEST JUMPDEST SWAP3 SWAP2 POP POP JUMP JUMPDEST PUSH0 DUP2 MLOAD SWAP1 POP SWAP2 SWAP1 POP JUMP JUMPDEST PUSH0 DUP2 SWAP1 POP SWAP3 SWAP2 POP POP JUMP JUMPDEST PUSH0 PUSH2 0x3DB DUP3 PUSH2 0x3BD JUMP JUMPDEST PUSH2 0x3E5 DUP2 DUP6 PUSH2 0x3C7 JUMP JUMPDEST SWAP4 POP PUSH2 0x3F5 DUP2 DUP6 PUSH1 0x20 DUP7 ADD PUSH2 0x252 JUMP JUMPDEST DUP1 DUP5 ADD SWAP2 POP POP SWAP3 SWAP2 POP POP JUMP JUMPDEST PUSH32 0x4E487B7100000000000000000000000000000000000000000000000000000000 PUSH0 MSTORE PUSH1 0x22 PUSH1 0x4 MSTORE PUSH1 0x24 PUSH0 REVERT JUMPDEST PUSH0 PUSH1 0x2 DUP3 DIV SWAP1 POP PUSH1 0x1 DUP3 AND DUP1 PUSH2 0x445 JUMPI PUSH1 0x7F DUP3 AND SWAP2 POP JUMPDEST PUSH1 0x20 DUP3 LT DUP2 SUB PUSH2 0x458 JUMPI PUSH2 0x457 PUSH2 0x401 JUMP JUMPDEST JUMPDEST POP SWAP2 SWAP1 POP JUMP JUMPDEST PUSH0 DUP2 SWAP1 POP SWAP3 SWAP2 POP POP JUMP JUMPDEST PUSH0 DUP2 SWAP1 POP DUP2 PUSH0 MSTORE PUSH1 0x20 PUSH0 KECCAK256 SWAP1 POP SWAP2 SWAP1 POP JUMP JUMPDEST PUSH0 DUP2 SLOAD PUSH2 0x486 DUP2 PUSH2 0x42E JUMP JUMPDEST PUSH2 0x490 DUP2 DUP7 PUSH2 0x45E JUMP JUMPDEST SWAP5 POP PUSH1 0x1 DUP3 AND PUSH0 DUP2 EQ PUSH2 0x4AA JUMPI PUSH1 0x1 DUP2 EQ PUSH2 0x4BF JUMPI PUSH2 0x4F1 JUMP JUMPDEST PUSH1 0xFF NOT DUP4 AND DUP7 MSTORE DUP2 ISZERO ISZERO DUP3 MUL DUP7 ADD SWAP4 POP PUSH2 0x4F1 JUMP JUMPDEST PUSH2 0x4C8 DUP6 PUSH2 0x468 JUMP JUMPDEST PUSH0 JUMPDEST DUP4 DUP2 LT ISZERO PUSH2 0x4E9 JUMPI DUP2 SLOAD DUP2 DUP10 ADD MSTORE PUSH1 0x1 DUP3 ADD SWAP2 POP PUSH1 0x20 DUP2 ADD SWAP1 POP PUSH2 0x4CA JUMP JUMPDEST DUP4 DUP9 ADD SWAP6 POP POP POP JUMPDEST POP POP POP SWAP3 SWAP2 POP POP JUMP JUMPDEST PUSH0 PUSH2 0x505 DUP3 DUP6 PUSH2 0x3D1 JUMP JUMPDEST SWAP2 POP PUSH2 0x511 DUP3 DUP5 PUSH2 0x47A JUMP JUMPDEST SWAP2 POP DUP2 SWAP1 POP SWAP4 SWAP3 POP POP POP JUMP INVALID LOG2 PUSH5 0x6970667358 0x22 SLT KECCAK256 GT 0xA8 0xBF SHL DATALOADN 0xEF53 DUP16 ADDMOD 0xC8 0xD7 0x23 DATALOADN 0xBDCE 0x29 PREVRANDAO 0x22 DATALOADN 0x35A5 MSIZE 0xDA SWAP10 EXTSTATICCALL PUSH8 0xFFB8C767E1D26473 PUSH16 0x6C634300081E00330000000000000000 "
				},
				"gasEstimates": {
					"creation": {
						"codeDepositCost": "272600",
						"executionCost": "infinite",
						"totalCost": "infinite"
					},
					"external": {
						"intToRoman(uint256)": "infinite"
					}
				},
				"methodIdentifiers": {
					"intToRoman(uint256)": "0cbc513a"
				}
			},
			"storageLayout": {
				"storage": [
					{
						"astId": 265,
						"contract": "OtherTopics.sol:IntToRoman",
						"label": "roman_map",
						"offset": 0,
						"slot": "0",
						"type": "t_mapping(t_uint256,t_string_storage)"
					}
				],
				"types": {
					"t_mapping(t_uint256,t_string_storage)": {
						"encoding": "mapping",
						"key": "t_uint256",
						"label": "mapping(uint256 => string)",
						"numberOfBytes": "32",
						"value": "t_string_storage"
					},
					"t_string_storage": {
						"encoding": "bytes",
						"label": "string",
						"numberOfBytes": "32"
					},
					"t_uint256": {
						"encoding": "inplace",
						"label": "uint256",
						"numberOfBytes": "32"
					}
				}
			},
			"userdoc": {
				"kind": "user",
				"methods": {},
				"version": 1
			}
		}
	}
}